{
  "_format": "hh-sol-artifact-1",
  "contractName": "PromptHubEscrowHire",
  "sourceName": "contracts/solidity/PromptHubEscrowHire.sol",
  "abi": [
    {
      "inputs": [
        {
          "internalType": "address",
          "name": "_treasury",
          "type": "address"
        }
      ],
      "stateMutability": "nonpayable",
      "type": "constructor"
    },
    {
      "inputs": [
        {
          "internalType": "address",
          "name": "owner",
          "type": "address"
        }
      ],
      "name": "OwnableInvalidOwner",
      "type": "error"
    },
    {
      "inputs": [
        {
          "internalType": "address",
          "name": "account",
          "type": "address"
        }
      ],
      "name": "OwnableUnauthorizedAccount",
      "type": "error"
    },
    {
      "inputs": [],
      "name": "ReentrancyGuardReentrantCall",
      "type": "error"
    },
    {
      "anonymous": false,
      "inputs": [
        {
          "indexed": true,
          "internalType": "uint256",
          "name": "jobId",
          "type": "uint256"
        },
        {
          "indexed": true,
          "internalType": "address",
          "name": "artist",
          "type": "address"
        },
        {
          "indexed": false,
          "internalType": "uint256",
          "name": "payout",
          "type": "uint256"
        }
      ],
      "name": "JobCompleted",
      "type": "event"
    },
    {
      "anonymous": false,
      "inputs": [
        {
          "indexed": true,
          "internalType": "uint256",
          "name": "jobId",
          "type": "uint256"
        },
        {
          "indexed": true,
          "internalType": "address",
          "name": "client",
          "type": "address"
        },
        {
          "indexed": true,
          "internalType": "address",
          "name": "artist",
          "type": "address"
        },
        {
          "indexed": false,
          "internalType": "uint256",
          "name": "amount",
          "type": "uint256"
        }
      ],
      "name": "JobCreated",
      "type": "event"
    },
    {
      "anonymous": false,
      "inputs": [
        {
          "indexed": true,
          "internalType": "uint256",
          "name": "jobId",
          "type": "uint256"
        },
        {
          "indexed": true,
          "internalType": "address",
          "name": "disputedBy",
          "type": "address"
        }
      ],
      "name": "JobDisputed",
      "type": "event"
    },
    {
      "anonymous": false,
      "inputs": [
        {
          "indexed": true,
          "internalType": "uint256",
          "name": "jobId",
          "type": "uint256"
        },
        {
          "indexed": true,
          "internalType": "address",
          "name": "client",
          "type": "address"
        },
        {
          "indexed": false,
          "internalType": "uint256",
          "name": "amount",
          "type": "uint256"
        }
      ],
      "name": "JobRefunded",
      "type": "event"
    },
    {
      "anonymous": false,
      "inputs": [
        {
          "indexed": true,
          "internalType": "uint256",
          "name": "jobId",
          "type": "uint256"
        },
        {
          "indexed": true,
          "internalType": "address",
          "name": "payoutTo",
          "type": "address"
        },
        {
          "indexed": false,
          "internalType": "uint256",
          "name": "amount",
          "type": "uint256"
        }
      ],
      "name": "JobResolved",
      "type": "event"
    },
    {
      "anonymous": false,
      "inputs": [
        {
          "indexed": true,
          "internalType": "address",
          "name": "previousOwner",
          "type": "address"
        },
        {
          "indexed": true,
          "internalType": "address",
          "name": "newOwner",
          "type": "address"
        }
      ],
      "name": "OwnershipTransferred",
      "type": "event"
    },
    {
      "inputs": [],
      "name": "DISPUTE_TIMEOUT_BLOCKS",
      "outputs": [
        {
          "internalType": "uint256",
          "name": "",
          "type": "uint256"
        }
      ],
      "stateMutability": "view",
      "type": "function"
    },
    {
      "inputs": [],
      "name": "FEE_DENOMINATOR",
      "outputs": [
        {
          "internalType": "uint256",
          "name": "",
          "type": "uint256"
        }
      ],
      "stateMutability": "view",
      "type": "function"
    },
    {
      "inputs": [],
      "name": "PLATFORM_FEE_PER_MILLE",
      "outputs": [
        {
          "internalType": "uint256",
          "name": "",
          "type": "uint256"
        }
      ],
      "stateMutability": "view",
      "type": "function"
    },
    {
      "inputs": [
        {
          "internalType": "uint256",
          "name": "jobId",
          "type": "uint256"
        }
      ],
      "name": "completeJob",
      "outputs": [],
      "stateMutability": "nonpayable",
      "type": "function"
    },
    {
      "inputs": [
        {
          "internalType": "address",
          "name": "artist",
          "type": "address"
        }
      ],
      "name": "createJob",
      "outputs": [
        {
          "internalType": "uint256",
          "name": "",
          "type": "uint256"
        }
      ],
      "stateMutability": "payable",
      "type": "function"
    },
    {
      "inputs": [
        {
          "internalType": "uint256",
          "name": "jobId",
          "type": "uint256"
        }
      ],
      "name": "disputeJob",
      "outputs": [],
      "stateMutability": "nonpayable",
      "type": "function"
    },
    {
      "inputs": [
        {
          "internalType": "uint256",
          "name": "jobId",
          "type": "uint256"
        }
      ],
      "name": "disputeJobArtist",
      "outputs": [],
      "stateMutability": "nonpayable",
      "type": "function"
    },
    {
      "inputs": [
        {
          "internalType": "uint256",
          "name": "jobId",
          "type": "uint256"
        }
      ],
      "name": "getJob",
      "outputs": [
        {
          "components": [
            {
              "internalType": "address",
              "name": "client",
              "type": "address"
            },
            {
              "internalType": "address",
              "name": "artist",
              "type": "address"
            },
            {
              "internalType": "uint256",
              "name": "amount",
              "type": "uint256"
            },
            {
              "internalType": "enum PromptHubEscrowHire.JobStatus",
              "name": "status",
              "type": "uint8"
            },
            {
              "internalType": "uint256",
              "name": "createdAt",
              "type": "uint256"
            }
          ],
          "internalType": "struct PromptHubEscrowHire.Job",
          "name": "",
          "type": "tuple"
        }
      ],
      "stateMutability": "view",
      "type": "function"
    },
    {
      "inputs": [
        {
          "internalType": "uint256",
          "name": "",
          "type": "uint256"
        }
      ],
      "name": "jobs",
      "outputs": [
        {
          "internalType": "address",
          "name": "client",
          "type": "address"
        },
        {
          "internalType": "address",
          "name": "artist",
          "type": "address"
        },
        {
          "internalType": "uint256",
          "name": "amount",
          "type": "uint256"
        },
        {
          "internalType": "enum PromptHubEscrowHire.JobStatus",
          "name": "status",
          "type": "uint8"
        },
        {
          "internalType": "uint256",
          "name": "createdAt",
          "type": "uint256"
        }
      ],
      "stateMutability": "view",
      "type": "function"
    },
    {
      "inputs": [],
      "name": "owner",
      "outputs": [
        {
          "internalType": "address",
          "name": "",
          "type": "address"
        }
      ],
      "stateMutability": "view",
      "type": "function"
    },
    {
      "inputs": [
        {
          "internalType": "uint256",
          "name": "jobId",
          "type": "uint256"
        }
      ],
      "name": "refundJob",
      "outputs": [],
      "stateMutability": "nonpayable",
      "type": "function"
    },
    {
      "inputs": [],
      "name": "renounceOwnership",
      "outputs": [],
      "stateMutability": "nonpayable",
      "type": "function"
    },
    {
      "inputs": [
        {
          "internalType": "uint256",
          "name": "jobId",
          "type": "uint256"
        },
        {
          "internalType": "address payable",
          "name": "payoutTo",
          "type": "address"
        }
      ],
      "name": "resolveDispute",
      "outputs": [],
      "stateMutability": "nonpayable",
      "type": "function"
    },
    {
      "inputs": [
        {
          "internalType": "address",
          "name": "_treasury",
          "type": "address"
        }
      ],
      "name": "setTreasury",
      "outputs": [],
      "stateMutability": "nonpayable",
      "type": "function"
    },
    {
      "inputs": [
        {
          "internalType": "address",
          "name": "newOwner",
          "type": "address"
        }
      ],
      "name": "transferOwnership",
      "outputs": [],
      "stateMutability": "nonpayable",
      "type": "function"
    },
    {
      "inputs": [],
      "name": "treasury",
      "outputs": [
        {
          "internalType": "address",
          "name": "",
          "type": "address"
        }
      ],
      "stateMutability": "view",
      "type": "function"
    }
  ],
  "bytecode": "0x60806040526001600255348015610014575f80fd5b506040516112ed3803806112ed83398101604081905261003391610144565b338061005957604051631e4fbdf760e01b81525f60048201526024015b60405180910390fd5b610062816100f5565b5060017f9b779b17422d0df92223018b32b4d1fa46e071723d6817e2486d003becc55f00556001600160a01b0381166100d05760405162461bcd60e51b815260206004820152601060248201526f496e76616c696420747265617375727960801b6044820152606401610050565b600180546001600160a01b0319166001600160a01b0392909216919091179055610171565b5f80546001600160a01b038381166001600160a01b0319831681178455604051919092169283917f8be0079c531659141344cd1fd0a4f28419497f9722a3daafe3b4186f6b6457e09190a35050565b5f60208284031215610154575f80fd5b81516001600160a01b038116811461016a575f80fd5b9392505050565b61116f8061017e5f395ff3fe6080604052600436106100ef575f3560e01c8063a1c0d32f11610087578063d73792a911610057578063d73792a9146102c0578063d93d9beb146102d5578063f0f44260146102f4578063f2fde38b14610313575f80fd5b8063a1c0d32f1461024d578063bf22c4571461026c578063c13f6ef814610298578063d004e985146102ad575f80fd5b80636c78546d116100c25780636c78546d146101dc57806370c75692146101fb578063715018a61461021d5780638da5cb5b14610231575f80fd5b80630e33599d146100f3578063180aedf3146101145780632d5d0aae1461018657806361d027b3146101a5575b5f80fd5b3480156100fe575f80fd5b5061011261010d366004610f40565b610332565b005b34801561011f575f80fd5b5061016c61012e366004610f6e565b600360208190525f9182526040909120805460018201546002830154938301546004909301546001600160a01b0392831694929091169260ff169085565b60405161017d959493929190610fb9565b60405180910390f35b348015610191575f80fd5b506101126101a0366004610f6e565b610577565b3480156101b0575f80fd5b506001546101c4906001600160a01b031681565b6040516001600160a01b03909116815260200161017d565b3480156101e7575f80fd5b506101126101f6366004610f6e565b610732565b348015610206575f80fd5b5061020f601981565b60405190815260200161017d565b348015610228575f80fd5b50610112610854565b34801561023c575f80fd5b505f546001600160a01b03166101c4565b348015610258575f80fd5b50610112610267366004610f6e565b610867565b348015610277575f80fd5b5061028b610286366004610f6e565b610aca565b60405161017d9190610ff5565b3480156102a3575f80fd5b5061020f6103f081565b61020f6102bb366004611041565b610b7b565b3480156102cb575f80fd5b5061020f6103e881565b3480156102e0575f80fd5b506101126102ef366004610f6e565b610d31565b3480156102ff575f80fd5b5061011261030e366004611041565b610dba565b34801561031e575f80fd5b5061011261032d366004611041565b610e2d565b61033a610e67565b5f546001600160a01b031633146103845760405162461bcd60e51b81526020600482015260096024820152682737ba1030b236b4b760b91b60448201526064015b60405180910390fd5b5f82815260036020819052604090912090600382015460ff1660048111156103ae576103ae610f85565b146103ea5760405162461bcd60e51b815260206004820152600c60248201526b139bdd08191a5cdc1d5d195960a21b604482015260640161037b565b80546001600160a01b0383811691161480610414575060018101546001600160a01b038381169116145b6104585760405162461bcd60e51b8152602060048201526015602482015274125b9d985b1a59081c185e5bdd5d081d185c99d95d605a1b604482015260640161037b565b60038101805460ff191660041790556002810154156105145760028101546040515f916001600160a01b038516918381818185875af1925050503d805f81146104bc576040519150601f19603f3d011682016040523d82523d5f602084013e6104c1565b606091505b50509050806105125760405162461bcd60e51b815260206004820152601860248201527f5265736f6c7574696f6e207061796f7574206661696c65640000000000000000604482015260640161037b565b505b816001600160a01b0316837fa049b72f5208a7e49c9ec2c4ea710ff27639713d1e19f33a90f0d15e23c7b4f1836002015460405161055491815260200190565b60405180910390a35061057360015f8051602061111a83398151915255565b5050565b61057f610e67565b5f81815260036020526040902080546001600160a01b03163314806105ad57505f546001600160a01b031633145b6105ea5760405162461bcd60e51b815260206004820152600e60248201526d139bdd08185d5d1a1bdc9a5e995960921b604482015260640161037b565b5f600382015460ff16600481111561060457610604610f85565b146106215760405162461bcd60e51b815260040161037b90611063565b60038101805460ff19166002908117909155810154156106d057805460028201546040515f926001600160a01b031691908381818185875af1925050503d805f8114610688576040519150601f19603f3d011682016040523d82523d5f602084013e61068d565b606091505b50509050806106ce5760405162461bcd60e51b815260206004820152600d60248201526c1499599d5b990819985a5b1959609a1b604482015260640161037b565b505b805460028201546040519081526001600160a01b039091169083907f6a1f355817b0c67f49d69eab66ba0feb8193205ca23b6ba8653427ff2d2790cc9060200160405180910390a35061072f60015f8051602061111a83398151915255565b50565b5f81815260036020526040902060018101546001600160a01b031633146107885760405162461bcd60e51b815260206004820152600a602482015269139bdd08185c9d1a5cdd60b21b604482015260640161037b565b5f600382015460ff1660048111156107a2576107a2610f85565b146107bf5760405162461bcd60e51b815260040161037b90611063565b6103f081600401546107d1919061109f565b43116108155760405162461bcd60e51b8152602060048201526013602482015272151a5b595bdd5d081b9bdd081c995858da1959606a1b604482015260640161037b565b6003818101805460ff19169091179055604051339083907e7a04c23fac86b9f00290f402ccec895256f0b46ad331c80038b783acbfe419905f90a35050565b61085c610e82565b6108655f610eae565b565b61086f610e67565b5f81815260036020526040902080546001600160a01b031633146108c25760405162461bcd60e51b815260206004820152600a602482015269139bdd0818db1a595b9d60b21b604482015260640161037b565b5f600382015460ff1660048111156108dc576108dc610f85565b146108f95760405162461bcd60e51b815260040161037b90611063565b5f6103e86019836002015461090e91906110b8565b61091891906110cf565b90505f81836002015461092b91906110ee565b60038401805460ff19166001179055905081156109d1576001546040515f916001600160a01b03169084908381818185875af1925050503d805f811461098c576040519150601f19603f3d011682016040523d82523d5f602084013e610991565b606091505b50509050806109cf5760405162461bcd60e51b815260206004820152600a6024820152691199594819985a5b195960b21b604482015260640161037b565b505b8015610a6b5760018301546040515f916001600160a01b03169083908381818185875af1925050503d805f8114610a23576040519150601f19603f3d011682016040523d82523d5f602084013e610a28565b606091505b5050905080610a695760405162461bcd60e51b815260206004820152600d60248201526c14185e5bdd5d0819985a5b1959609a1b604482015260640161037b565b505b60018301546040518281526001600160a01b039091169085907f4dbba472101e9f148a3a5ecbe793f0ee16a7efe4bf3f8cbfab5330e1642ef9559060200160405180910390a350505061072f60015f8051602061111a83398151915255565b6040805160a0810182525f808252602082018190529181018290526060810182905260808101919091525f82815260036020818152604092839020835160a08101855281546001600160a01b0390811682526001830154169281019290925260028101549382019390935290820154909190606083019060ff166004811115610b5557610b55610f85565b6004811115610b6657610b66610f85565b81526020016004820154815250509050919050565b5f803411610bc05760405162461bcd60e51b81526020600482015260126024820152714d757374206465706f7369742066756e647360701b604482015260640161037b565b6001600160a01b03821615801590610be157506001600160a01b0382163314155b610c1e5760405162461bcd60e51b815260206004820152600e60248201526d125b9d985b1a5908185c9d1a5cdd60921b604482015260640161037b565b600280545f9182610c2e83611101565b909155506040805160a0810182523381526001600160a01b038681166020808401918252348486019081525f60608601818152436080880152888252600393849052969020855181549086166001600160a01b03199182161782559351600180830180549290971691909516179094555160028401559351938201805495965092949193929160ff191690836004811115610ccb57610ccb610f85565b021790555060808201518160040155905050826001600160a01b0316336001600160a01b0316827f8f4ee83cefe0dfb2f73fe6057bfa5b233fc43358bbb5f5606f444cbd4c5c4f8c34604051610d2391815260200190565b60405180910390a492915050565b5f546001600160a01b03163314610d765760405162461bcd60e51b81526020600482015260096024820152682737ba1030b236b4b760b91b604482015260640161037b565b5f81815260036020526040812090600382015460ff166004811115610d9d57610d9d610f85565b146108155760405162461bcd60e51b815260040161037b90611063565b610dc2610e82565b6001600160a01b038116610e0b5760405162461bcd60e51b815260206004820152601060248201526f496e76616c696420747265617375727960801b604482015260640161037b565b600180546001600160a01b0319166001600160a01b0392909216919091179055565b610e35610e82565b6001600160a01b038116610e5e57604051631e4fbdf760e01b81525f600482015260240161037b565b61072f81610eae565b610e6f610efd565b60025f8051602061111a83398151915255565b5f546001600160a01b031633146108655760405163118cdaa760e01b815233600482015260240161037b565b5f80546001600160a01b038381166001600160a01b0319831681178455604051919092169283917f8be0079c531659141344cd1fd0a4f28419497f9722a3daafe3b4186f6b6457e09190a35050565b5f8051602061111a8339815191525460020361086557604051633ee5aeb560e01b815260040160405180910390fd5b6001600160a01b038116811461072f575f80fd5b5f8060408385031215610f51575f80fd5b823591506020830135610f6381610f2c565b809150509250929050565b5f60208284031215610f7e575f80fd5b5035919050565b634e487b7160e01b5f52602160045260245ffd5b60058110610fb557634e487b7160e01b5f52602160045260245ffd5b9052565b6001600160a01b038681168252851660208201526040810184905260a08101610fe56060830185610f99565b8260808301529695505050505050565b81516001600160a01b039081168252602080840151909116908201526040808301519082015260608083015160a083019161103290840182610f99565b50608092830151919092015290565b5f60208284031215611051575f80fd5b813561105c81610f2c565b9392505050565b6020808252600e908201526d496e76616c69642073746174757360901b604082015260600190565b634e487b7160e01b5f52601160045260245ffd5b808201808211156110b2576110b261108b565b92915050565b80820281158282048414176110b2576110b261108b565b5f826110e957634e487b7160e01b5f52601260045260245ffd5b500490565b818103818111156110b2576110b261108b565b5f600182016111125761111261108b565b506001019056fe9b779b17422d0df92223018b32b4d1fa46e071723d6817e2486d003becc55f00a264697066735822122003436152881226f2af9257fdebde5844434f44ed591665d67a4f938453a2263164736f6c63430008180033",
  "linkReferences": {},
  "deployedLinkReferences": {}
}