{
  "_format": "hh-sol-artifact-1",
  "contractName": "PromptHubEscrowHire",
  "sourceName": "contracts/solidity/PromptHubEscrowHire.sol",
  "abi": [
    {
      "inputs": [
        {
          "internalType": "address",
          "name": "_treasury",
          "type": "address"
        },
        {
          "internalType": "address",
          "name": "_agentRegistry",
          "type": "address"
        }
      ],
      "stateMutability": "nonpayable",
      "type": "constructor"
    },
    {
      "inputs": [
        {
          "internalType": "address",
          "name": "owner",
          "type": "address"
        }
      ],
      "name": "OwnableInvalidOwner",
      "type": "error"
    },
    {
      "inputs": [
        {
          "internalType": "address",
          "name": "account",
          "type": "address"
        }
      ],
      "name": "OwnableUnauthorizedAccount",
      "type": "error"
    },
    {
      "inputs": [],
      "name": "ReentrancyGuardReentrantCall",
      "type": "error"
    },
    {
      "anonymous": false,
      "inputs": [
        {
          "indexed": true,
          "internalType": "uint256",
          "name": "jobId",
          "type": "uint256"
        },
        {
          "indexed": true,
          "internalType": "address",
          "name": "artist",
          "type": "address"
        },
        {
          "indexed": false,
          "internalType": "uint256",
          "name": "payout",
          "type": "uint256"
        }
      ],
      "name": "JobCompleted",
      "type": "event"
    },
    {
      "anonymous": false,
      "inputs": [
        {
          "indexed": true,
          "internalType": "uint256",
          "name": "jobId",
          "type": "uint256"
        },
        {
          "indexed": true,
          "internalType": "address",
          "name": "client",
          "type": "address"
        },
        {
          "indexed": true,
          "internalType": "address",
          "name": "artist",
          "type": "address"
        },
        {
          "indexed": false,
          "internalType": "uint256",
          "name": "amount",
          "type": "uint256"
        }
      ],
      "name": "JobCreated",
      "type": "event"
    },
    {
      "anonymous": false,
      "inputs": [
        {
          "indexed": true,
          "internalType": "uint256",
          "name": "jobId",
          "type": "uint256"
        },
        {
          "indexed": true,
          "internalType": "address",
          "name": "disputedBy",
          "type": "address"
        }
      ],
      "name": "JobDisputed",
      "type": "event"
    },
    {
      "anonymous": false,
      "inputs": [
        {
          "indexed": true,
          "internalType": "uint256",
          "name": "jobId",
          "type": "uint256"
        },
        {
          "indexed": true,
          "internalType": "address",
          "name": "client",
          "type": "address"
        },
        {
          "indexed": false,
          "internalType": "uint256",
          "name": "amount",
          "type": "uint256"
        }
      ],
      "name": "JobRefunded",
      "type": "event"
    },
    {
      "anonymous": false,
      "inputs": [
        {
          "indexed": true,
          "internalType": "uint256",
          "name": "jobId",
          "type": "uint256"
        },
        {
          "indexed": true,
          "internalType": "address",
          "name": "payoutTo",
          "type": "address"
        },
        {
          "indexed": false,
          "internalType": "uint256",
          "name": "amount",
          "type": "uint256"
        }
      ],
      "name": "JobResolved",
      "type": "event"
    },
    {
      "anonymous": false,
      "inputs": [
        {
          "indexed": true,
          "internalType": "address",
          "name": "previousOwner",
          "type": "address"
        },
        {
          "indexed": true,
          "internalType": "address",
          "name": "newOwner",
          "type": "address"
        }
      ],
      "name": "OwnershipTransferred",
      "type": "event"
    },
    {
      "inputs": [],
      "name": "DISPUTE_TIMEOUT_BLOCKS",
      "outputs": [
        {
          "internalType": "uint256",
          "name": "",
          "type": "uint256"
        }
      ],
      "stateMutability": "view",
      "type": "function"
    },
    {
      "inputs": [],
      "name": "FEE_DENOMINATOR",
      "outputs": [
        {
          "internalType": "uint256",
          "name": "",
          "type": "uint256"
        }
      ],
      "stateMutability": "view",
      "type": "function"
    },
    {
      "inputs": [],
      "name": "PLATFORM_FEE_PER_MILLE",
      "outputs": [
        {
          "internalType": "uint256",
          "name": "",
          "type": "uint256"
        }
      ],
      "stateMutability": "view",
      "type": "function"
    },
    {
      "inputs": [],
      "name": "agentRegistry",
      "outputs": [
        {
          "internalType": "contract IAgentRegistry",
          "name": "",
          "type": "address"
        }
      ],
      "stateMutability": "view",
      "type": "function"
    },
    {
      "inputs": [
        {
          "internalType": "uint256",
          "name": "jobId",
          "type": "uint256"
        }
      ],
      "name": "completeJob",
      "outputs": [],
      "stateMutability": "nonpayable",
      "type": "function"
    },
    {
      "inputs": [
        {
          "internalType": "address",
          "name": "artist",
          "type": "address"
        }
      ],
      "name": "createJob",
      "outputs": [
        {
          "internalType": "uint256",
          "name": "",
          "type": "uint256"
        }
      ],
      "stateMutability": "payable",
      "type": "function"
    },
    {
      "inputs": [
        {
          "internalType": "uint256",
          "name": "jobId",
          "type": "uint256"
        }
      ],
      "name": "disputeJob",
      "outputs": [],
      "stateMutability": "nonpayable",
      "type": "function"
    },
    {
      "inputs": [
        {
          "internalType": "uint256",
          "name": "jobId",
          "type": "uint256"
        }
      ],
      "name": "disputeJobArtist",
      "outputs": [],
      "stateMutability": "nonpayable",
      "type": "function"
    },
    {
      "inputs": [
        {
          "internalType": "uint256",
          "name": "jobId",
          "type": "uint256"
        }
      ],
      "name": "getJob",
      "outputs": [
        {
          "components": [
            {
              "internalType": "address",
              "name": "client",
              "type": "address"
            },
            {
              "internalType": "address",
              "name": "artist",
              "type": "address"
            },
            {
              "internalType": "uint256",
              "name": "amount",
              "type": "uint256"
            },
            {
              "internalType": "enum PromptHubEscrowHire.JobStatus",
              "name": "status",
              "type": "uint8"
            },
            {
              "internalType": "uint256",
              "name": "createdAt",
              "type": "uint256"
            }
          ],
          "internalType": "struct PromptHubEscrowHire.Job",
          "name": "",
          "type": "tuple"
        }
      ],
      "stateMutability": "view",
      "type": "function"
    },
    {
      "inputs": [
        {
          "internalType": "uint256",
          "name": "",
          "type": "uint256"
        }
      ],
      "name": "jobs",
      "outputs": [
        {
          "internalType": "address",
          "name": "client",
          "type": "address"
        },
        {
          "internalType": "address",
          "name": "artist",
          "type": "address"
        },
        {
          "internalType": "uint256",
          "name": "amount",
          "type": "uint256"
        },
        {
          "internalType": "enum PromptHubEscrowHire.JobStatus",
          "name": "status",
          "type": "uint8"
        },
        {
          "internalType": "uint256",
          "name": "createdAt",
          "type": "uint256"
        }
      ],
      "stateMutability": "view",
      "type": "function"
    },
    {
      "inputs": [],
      "name": "owner",
      "outputs": [
        {
          "internalType": "address",
          "name": "",
          "type": "address"
        }
      ],
      "stateMutability": "view",
      "type": "function"
    },
    {
      "inputs": [
        {
          "internalType": "uint256",
          "name": "jobId",
          "type": "uint256"
        }
      ],
      "name": "refundJob",
      "outputs": [],
      "stateMutability": "nonpayable",
      "type": "function"
    },
    {
      "inputs": [],
      "name": "renounceOwnership",
      "outputs": [],
      "stateMutability": "nonpayable",
      "type": "function"
    },
    {
      "inputs": [
        {
          "internalType": "uint256",
          "name": "jobId",
          "type": "uint256"
        },
        {
          "internalType": "address payable",
          "name": "payoutTo",
          "type": "address"
        }
      ],
      "name": "resolveDispute",
      "outputs": [],
      "stateMutability": "nonpayable",
      "type": "function"
    },
    {
      "inputs": [
        {
          "internalType": "address",
          "name": "_treasury",
          "type": "address"
        }
      ],
      "name": "setTreasury",
      "outputs": [],
      "stateMutability": "nonpayable",
      "type": "function"
    },
    {
      "inputs": [
        {
          "internalType": "address",
          "name": "newOwner",
          "type": "address"
        }
      ],
      "name": "transferOwnership",
      "outputs": [],
      "stateMutability": "nonpayable",
      "type": "function"
    },
    {
      "inputs": [],
      "name": "treasury",
      "outputs": [
        {
          "internalType": "address",
          "name": "",
          "type": "address"
        }
      ],
      "stateMutability": "view",
      "type": "function"
    }
  ],
  "bytecode": "0x6080604052600160035534801562000015575f80fd5b5060405162001404380380620014048339810160408190526200003891620001c2565b33806200005f57604051631e4fbdf760e01b81525f60048201526024015b60405180910390fd5b6200006a8162000157565b5060017f9b779b17422d0df92223018b32b4d1fa46e071723d6817e2486d003becc55f00556001600160a01b038216620000da5760405162461bcd60e51b815260206004820152601060248201526f496e76616c696420747265617375727960801b604482015260640162000056565b6001600160a01b038116620001255760405162461bcd60e51b815260206004820152601060248201526f496e76616c696420726567697374727960801b604482015260640162000056565b600180546001600160a01b039384166001600160a01b03199182161790915560028054929093169116179055620001f8565b5f80546001600160a01b038381166001600160a01b0319831681178455604051919092169283917f8be0079c531659141344cd1fd0a4f28419497f9722a3daafe3b4186f6b6457e09190a35050565b80516001600160a01b0381168114620001bd575f80fd5b919050565b5f8060408385031215620001d4575f80fd5b620001df83620001a6565b9150620001ef60208401620001a6565b90509250929050565b6111fe80620002065f395ff3fe6080604052600436106100fa575f3560e01c80638da5cb5b11610092578063d004e98511610062578063d004e985146102d3578063d73792a9146102e6578063d93d9beb146102fb578063f0f442601461031a578063f2fde38b14610339575f80fd5b80638da5cb5b14610257578063a1c0d32f14610273578063bf22c45714610292578063c13f6ef8146102be575f80fd5b806361d027b3116100cd57806361d027b3146101e35780636c78546d1461020257806370c7569214610221578063715018a614610243575f80fd5b80630d1cfcae146100fe5780630e33599d1461013a578063180aedf31461015b5780632d5d0aae146101c4575b5f80fd5b348015610109575f80fd5b5060025461011d906001600160a01b031681565b6040516001600160a01b0390911681526020015b60405180910390f35b348015610145575f80fd5b50610159610154366004610fcf565b610358565b005b348015610166575f80fd5b506101b3610175366004610ffd565b600460208190525f9182526040909120805460018201546002830154600384015493909401546001600160a01b0392831694929091169260ff169085565b604051610131959493929190611048565b3480156101cf575f80fd5b506101596101de366004610ffd565b61059a565b3480156101ee575f80fd5b5060015461011d906001600160a01b031681565b34801561020d575f80fd5b5061015961021c366004610ffd565b610755565b34801561022c575f80fd5b50610235601981565b604051908152602001610131565b34801561024e575f80fd5b50610159610877565b348015610262575f80fd5b505f546001600160a01b031661011d565b34801561027e575f80fd5b5061015961028d366004610ffd565b61088a565b34801561029d575f80fd5b506102b16102ac366004610ffd565b610b57565b6040516101319190611084565b3480156102c9575f80fd5b506102356103f081565b6102356102e13660046110d0565b610c08565b3480156102f1575f80fd5b506102356103e881565b348015610306575f80fd5b50610159610315366004610ffd565b610dc0565b348015610325575f80fd5b506101596103343660046110d0565b610e49565b348015610344575f80fd5b506101596103533660046110d0565b610ebc565b610360610ef6565b5f546001600160a01b031633146103aa5760405162461bcd60e51b81526020600482015260096024820152682737ba1030b236b4b760b91b60448201526064015b60405180910390fd5b5f82815260046020526040902060038082015460ff1660048111156103d1576103d1611014565b1461040d5760405162461bcd60e51b815260206004820152600c60248201526b139bdd08191a5cdc1d5d195960a21b60448201526064016103a1565b80546001600160a01b0383811691161480610437575060018101546001600160a01b038381169116145b61047b5760405162461bcd60e51b8152602060048201526015602482015274125b9d985b1a59081c185e5bdd5d081d185c99d95d605a1b60448201526064016103a1565b60038101805460ff191660041790556002810154156105375760028101546040515f916001600160a01b038516918381818185875af1925050503d805f81146104df576040519150601f19603f3d011682016040523d82523d5f602084013e6104e4565b606091505b50509050806105355760405162461bcd60e51b815260206004820152601860248201527f5265736f6c7574696f6e207061796f7574206661696c6564000000000000000060448201526064016103a1565b505b816001600160a01b0316837fa049b72f5208a7e49c9ec2c4ea710ff27639713d1e19f33a90f0d15e23c7b4f1836002015460405161057791815260200190565b60405180910390a35061059660015f805160206111a983398151915255565b5050565b6105a2610ef6565b5f81815260046020526040902080546001600160a01b03163314806105d057505f546001600160a01b031633145b61060d5760405162461bcd60e51b815260206004820152600e60248201526d139bdd08185d5d1a1bdc9a5e995960921b60448201526064016103a1565b5f600382015460ff16600481111561062757610627611014565b146106445760405162461bcd60e51b81526004016103a1906110f2565b60038101805460ff19166002908117909155810154156106f357805460028201546040515f926001600160a01b031691908381818185875af1925050503d805f81146106ab576040519150601f19603f3d011682016040523d82523d5f602084013e6106b0565b606091505b50509050806106f15760405162461bcd60e51b815260206004820152600d60248201526c1499599d5b990819985a5b1959609a1b60448201526064016103a1565b505b805460028201546040519081526001600160a01b039091169083907f6a1f355817b0c67f49d69eab66ba0feb8193205ca23b6ba8653427ff2d2790cc9060200160405180910390a35061075260015f805160206111a983398151915255565b50565b5f81815260046020526040902060018101546001600160a01b031633146107ab5760405162461bcd60e51b815260206004820152600a602482015269139bdd08185c9d1a5cdd60b21b60448201526064016103a1565b5f600382015460ff1660048111156107c5576107c5611014565b146107e25760405162461bcd60e51b81526004016103a1906110f2565b6103f081600401546107f4919061112e565b43116108385760405162461bcd60e51b8152602060048201526013602482015272151a5b595bdd5d081b9bdd081c995858da1959606a1b60448201526064016103a1565b6003818101805460ff19169091179055604051339083907e7a04c23fac86b9f00290f402ccec895256f0b46ad331c80038b783acbfe419905f90a35050565b61087f610f11565b6108885f610f3d565b565b610892610ef6565b5f81815260046020526040902080546001600160a01b031633146108e55760405162461bcd60e51b815260206004820152600a602482015269139bdd0818db1a595b9d60b21b60448201526064016103a1565b5f600382015460ff1660048111156108ff576108ff611014565b1461091c5760405162461bcd60e51b81526004016103a1906110f2565b5f6103e8601983600201546109319190611147565b61093b919061115e565b90505f81836002015461094e919061117d565b60038401805460ff19166001179055905081156109f4576001546040515f916001600160a01b03169084908381818185875af1925050503d805f81146109af576040519150601f19603f3d011682016040523d82523d5f602084013e6109b4565b606091505b50509050806109f25760405162461bcd60e51b815260206004820152600a6024820152691199594819985a5b195960b21b60448201526064016103a1565b505b8015610a8e5760018301546040515f916001600160a01b03169083908381818185875af1925050503d805f8114610a46576040519150601f19603f3d011682016040523d82523d5f602084013e610a4b565b606091505b5050905080610a8c5760405162461bcd60e51b815260206004820152600d60248201526c14185e5bdd5d0819985a5b1959609a1b60448201526064016103a1565b505b60018301546040518281526001600160a01b039091169085907f4dbba472101e9f148a3a5ecbe793f0ee16a7efe4bf3f8cbfab5330e1642ef9559060200160405180910390a3600254600184810154604051637630272360e11b81526001600160a01b0391821660048201525f602482015260448101929092529091169063ec604e46906064015f604051808303815f87803b158015610b2c575f80fd5b505af1925050508015610b3d575060015b5050505061075260015f805160206111a983398151915255565b6040805160a0810182525f808252602082018190529181018290526060810182905260808101919091525f82815260046020818152604092839020835160a08101855281546001600160a01b039081168252600183015416928101929092526002810154938201939093526003830154909291606084019160ff1690811115610be257610be2611014565b6004811115610bf357610bf3611014565b81526020016004820154815250509050919050565b5f803411610c4d5760405162461bcd60e51b81526020600482015260126024820152714d757374206465706f7369742066756e647360701b60448201526064016103a1565b6001600160a01b03821615801590610c6e57506001600160a01b0382163314155b610cab5760405162461bcd60e51b815260206004820152600e60248201526d125b9d985b1a5908185c9d1a5cdd60921b60448201526064016103a1565b600380545f9182610cbb83611190565b909155506040805160a0810182523381526001600160a01b038681166020808401918252348486019081525f60608601818152436080880152888252600493849052969020855181549086166001600160a01b031991821617825593516001808301805492909716919095161790945551600284015593516003830180549697509395929490939260ff191691908490811115610d5a57610d5a611014565b021790555060808201518160040155905050826001600160a01b0316336001600160a01b0316827f8f4ee83cefe0dfb2f73fe6057bfa5b233fc43358bbb5f5606f444cbd4c5c4f8c34604051610db291815260200190565b60405180910390a492915050565b5f546001600160a01b03163314610e055760405162461bcd60e51b81526020600482015260096024820152682737ba1030b236b4b760b91b60448201526064016103a1565b5f81815260046020526040812090600382015460ff166004811115610e2c57610e2c611014565b146108385760405162461bcd60e51b81526004016103a1906110f2565b610e51610f11565b6001600160a01b038116610e9a5760405162461bcd60e51b815260206004820152601060248201526f496e76616c696420747265617375727960801b60448201526064016103a1565b600180546001600160a01b0319166001600160a01b0392909216919091179055565b610ec4610f11565b6001600160a01b038116610eed57604051631e4fbdf760e01b81525f60048201526024016103a1565b61075281610f3d565b610efe610f8c565b60025f805160206111a983398151915255565b5f546001600160a01b031633146108885760405163118cdaa760e01b81523360048201526024016103a1565b5f80546001600160a01b038381166001600160a01b0319831681178455604051919092169283917f8be0079c531659141344cd1fd0a4f28419497f9722a3daafe3b4186f6b6457e09190a35050565b5f805160206111a98339815191525460020361088857604051633ee5aeb560e01b815260040160405180910390fd5b6001600160a01b0381168114610752575f80fd5b5f8060408385031215610fe0575f80fd5b823591506020830135610ff281610fbb565b809150509250929050565b5f6020828403121561100d575f80fd5b5035919050565b634e487b7160e01b5f52602160045260245ffd5b6005811061104457634e487b7160e01b5f52602160045260245ffd5b9052565b6001600160a01b038681168252851660208201526040810184905260a081016110746060830185611028565b8260808301529695505050505050565b81516001600160a01b039081168252602080840151909116908201526040808301519082015260608083015160a08301916110c190840182611028565b50608092830151919092015290565b5f602082840312156110e0575f80fd5b81356110eb81610fbb565b9392505050565b6020808252600e908201526d496e76616c69642073746174757360901b604082015260600190565b634e487b7160e01b5f52601160045260245ffd5b808201808211156111415761114161111a565b92915050565b80820281158282048414176111415761114161111a565b5f8261117857634e487b7160e01b5f52601260045260245ffd5b500490565b818103818111156111415761114161111a565b5f600182016111a1576111a161111a565b506001019056fe9b779b17422d0df92223018b32b4d1fa46e071723d6817e2486d003becc55f00a26469706673582212204b3e2c8043ab7f5fc7c237f641825558a178084386fa155aa5d76e8d8644341c64736f6c63430008180033",
  "linkReferences": {},
  "deployedLinkReferences": {}
}