{
  "_format": "hh-sol-artifact-1",
  "contractName": "PromptHubContests",
  "sourceName": "contracts/solidity/PromptHubContests.sol",
  "abi": [
    {
      "inputs": [
        {
          "internalType": "address",
          "name": "_treasury",
          "type": "address"
        }
      ],
      "stateMutability": "nonpayable",
      "type": "constructor"
    },
    {
      "inputs": [
        {
          "internalType": "address",
          "name": "owner",
          "type": "address"
        }
      ],
      "name": "OwnableInvalidOwner",
      "type": "error"
    },
    {
      "inputs": [
        {
          "internalType": "address",
          "name": "account",
          "type": "address"
        }
      ],
      "name": "OwnableUnauthorizedAccount",
      "type": "error"
    },
    {
      "inputs": [],
      "name": "ReentrancyGuardReentrantCall",
      "type": "error"
    },
    {
      "anonymous": false,
      "inputs": [
        {
          "indexed": true,
          "internalType": "uint256",
          "name": "contestId",
          "type": "uint256"
        },
        {
          "indexed": false,
          "internalType": "uint256",
          "name": "refundAmount",
          "type": "uint256"
        }
      ],
      "name": "ContestCancelled",
      "type": "event"
    },
    {
      "anonymous": false,
      "inputs": [
        {
          "indexed": true,
          "internalType": "uint256",
          "name": "contestId",
          "type": "uint256"
        }
      ],
      "name": "ContestCompleted",
      "type": "event"
    },
    {
      "anonymous": false,
      "inputs": [
        {
          "indexed": true,
          "internalType": "uint256",
          "name": "contestId",
          "type": "uint256"
        },
        {
          "indexed": true,
          "internalType": "address",
          "name": "brand",
          "type": "address"
        },
        {
          "indexed": false,
          "internalType": "uint256",
          "name": "totalPool",
          "type": "uint256"
        },
        {
          "indexed": false,
          "internalType": "uint256",
          "name": "numTiers",
          "type": "uint256"
        }
      ],
      "name": "ContestFunded",
      "type": "event"
    },
    {
      "anonymous": false,
      "inputs": [
        {
          "indexed": true,
          "internalType": "uint256",
          "name": "contestId",
          "type": "uint256"
        },
        {
          "indexed": true,
          "internalType": "address",
          "name": "artist",
          "type": "address"
        },
        {
          "indexed": false,
          "internalType": "string",
          "name": "entryId",
          "type": "string"
        }
      ],
      "name": "EntrySubmitted",
      "type": "event"
    },
    {
      "anonymous": false,
      "inputs": [
        {
          "indexed": true,
          "internalType": "address",
          "name": "previousOwner",
          "type": "address"
        },
        {
          "indexed": true,
          "internalType": "address",
          "name": "newOwner",
          "type": "address"
        }
      ],
      "name": "OwnershipTransferred",
      "type": "event"
    },
    {
      "anonymous": false,
      "inputs": [
        {
          "indexed": true,
          "internalType": "uint256",
          "name": "contestId",
          "type": "uint256"
        },
        {
          "indexed": false,
          "internalType": "uint256",
          "name": "place",
          "type": "uint256"
        },
        {
          "indexed": true,
          "internalType": "address",
          "name": "winner",
          "type": "address"
        },
        {
          "indexed": false,
          "internalType": "uint256",
          "name": "payout",
          "type": "uint256"
        }
      ],
      "name": "WinnerDeclared",
      "type": "event"
    },
    {
      "inputs": [],
      "name": "FEE_DENOMINATOR",
      "outputs": [
        {
          "internalType": "uint256",
          "name": "",
          "type": "uint256"
        }
      ],
      "stateMutability": "view",
      "type": "function"
    },
    {
      "inputs": [],
      "name": "MAX_TIERS",
      "outputs": [
        {
          "internalType": "uint256",
          "name": "",
          "type": "uint256"
        }
      ],
      "stateMutability": "view",
      "type": "function"
    },
    {
      "inputs": [],
      "name": "PLATFORM_FEE_PER_MILLE",
      "outputs": [
        {
          "internalType": "uint256",
          "name": "",
          "type": "uint256"
        }
      ],
      "stateMutability": "view",
      "type": "function"
    },
    {
      "inputs": [
        {
          "internalType": "uint256",
          "name": "contestId",
          "type": "uint256"
        }
      ],
      "name": "cancelContest",
      "outputs": [],
      "stateMutability": "nonpayable",
      "type": "function"
    },
    {
      "inputs": [
        {
          "internalType": "uint256",
          "name": "",
          "type": "uint256"
        }
      ],
      "name": "contests",
      "outputs": [
        {
          "internalType": "address",
          "name": "brand",
          "type": "address"
        },
        {
          "internalType": "uint256",
          "name": "totalPool",
          "type": "uint256"
        },
        {
          "internalType": "uint256",
          "name": "remainingPool",
          "type": "uint256"
        },
        {
          "internalType": "uint256",
          "name": "numTiers",
          "type": "uint256"
        },
        {
          "internalType": "uint256",
          "name": "winnersDeclared",
          "type": "uint256"
        },
        {
          "internalType": "uint256",
          "name": "deadline",
          "type": "uint256"
        },
        {
          "internalType": "enum PromptHubContests.ContestStatus",
          "name": "status",
          "type": "uint8"
        }
      ],
      "stateMutability": "view",
      "type": "function"
    },
    {
      "inputs": [
        {
          "internalType": "uint256",
          "name": "contestId",
          "type": "uint256"
        },
        {
          "internalType": "uint256",
          "name": "place",
          "type": "uint256"
        },
        {
          "internalType": "address",
          "name": "winner",
          "type": "address"
        }
      ],
      "name": "declareWinner",
      "outputs": [],
      "stateMutability": "nonpayable",
      "type": "function"
    },
    {
      "inputs": [
        {
          "internalType": "uint256",
          "name": "contestId",
          "type": "uint256"
        },
        {
          "internalType": "uint256",
          "name": "place",
          "type": "uint256"
        },
        {
          "internalType": "address",
          "name": "winner",
          "type": "address"
        }
      ],
      "name": "declareWinnerExternal",
      "outputs": [],
      "stateMutability": "nonpayable",
      "type": "function"
    },
    {
      "inputs": [
        {
          "internalType": "uint256",
          "name": "numTiers",
          "type": "uint256"
        },
        {
          "internalType": "uint256[]",
          "name": "amounts",
          "type": "uint256[]"
        },
        {
          "internalType": "uint256",
          "name": "deadline",
          "type": "uint256"
        }
      ],
      "name": "fundContest",
      "outputs": [
        {
          "internalType": "uint256",
          "name": "",
          "type": "uint256"
        }
      ],
      "stateMutability": "payable",
      "type": "function"
    },
    {
      "inputs": [
        {
          "internalType": "uint256",
          "name": "contestId",
          "type": "uint256"
        }
      ],
      "name": "getContest",
      "outputs": [
        {
          "components": [
            {
              "internalType": "address",
              "name": "brand",
              "type": "address"
            },
            {
              "internalType": "uint256",
              "name": "totalPool",
              "type": "uint256"
            },
            {
              "internalType": "uint256",
              "name": "remainingPool",
              "type": "uint256"
            },
            {
              "internalType": "uint256",
              "name": "numTiers",
              "type": "uint256"
            },
            {
              "internalType": "uint256",
              "name": "winnersDeclared",
              "type": "uint256"
            },
            {
              "internalType": "uint256",
              "name": "deadline",
              "type": "uint256"
            },
            {
              "internalType": "enum PromptHubContests.ContestStatus",
              "name": "status",
              "type": "uint8"
            }
          ],
          "internalType": "struct PromptHubContests.Contest",
          "name": "",
          "type": "tuple"
        }
      ],
      "stateMutability": "view",
      "type": "function"
    },
    {
      "inputs": [
        {
          "internalType": "uint256",
          "name": "contestId",
          "type": "uint256"
        },
        {
          "internalType": "uint256",
          "name": "place",
          "type": "uint256"
        }
      ],
      "name": "getPrizeTier",
      "outputs": [
        {
          "components": [
            {
              "internalType": "uint256",
              "name": "amount",
              "type": "uint256"
            },
            {
              "internalType": "address",
              "name": "winner",
              "type": "address"
            },
            {
              "internalType": "bool",
              "name": "hasWinner",
              "type": "bool"
            }
          ],
          "internalType": "struct PromptHubContests.PrizeTier",
          "name": "",
          "type": "tuple"
        }
      ],
      "stateMutability": "view",
      "type": "function"
    },
    {
      "inputs": [
        {
          "internalType": "uint256",
          "name": "contestId",
          "type": "uint256"
        },
        {
          "internalType": "address",
          "name": "artist",
          "type": "address"
        }
      ],
      "name": "hasSubmitted",
      "outputs": [
        {
          "internalType": "bool",
          "name": "",
          "type": "bool"
        }
      ],
      "stateMutability": "view",
      "type": "function"
    },
    {
      "inputs": [],
      "name": "owner",
      "outputs": [
        {
          "internalType": "address",
          "name": "",
          "type": "address"
        }
      ],
      "stateMutability": "view",
      "type": "function"
    },
    {
      "inputs": [
        {
          "internalType": "uint256",
          "name": "",
          "type": "uint256"
        },
        {
          "internalType": "uint256",
          "name": "",
          "type": "uint256"
        }
      ],
      "name": "prizeTiers",
      "outputs": [
        {
          "internalType": "uint256",
          "name": "amount",
          "type": "uint256"
        },
        {
          "internalType": "address",
          "name": "winner",
          "type": "address"
        },
        {
          "internalType": "bool",
          "name": "hasWinner",
          "type": "bool"
        }
      ],
      "stateMutability": "view",
      "type": "function"
    },
    {
      "inputs": [],
      "name": "renounceOwnership",
      "outputs": [],
      "stateMutability": "nonpayable",
      "type": "function"
    },
    {
      "inputs": [
        {
          "internalType": "address",
          "name": "_treasury",
          "type": "address"
        }
      ],
      "name": "setTreasury",
      "outputs": [],
      "stateMutability": "nonpayable",
      "type": "function"
    },
    {
      "inputs": [
        {
          "internalType": "uint256",
          "name": "",
          "type": "uint256"
        },
        {
          "internalType": "address",
          "name": "",
          "type": "address"
        }
      ],
      "name": "submissions",
      "outputs": [
        {
          "internalType": "string",
          "name": "entryId",
          "type": "string"
        },
        {
          "internalType": "bool",
          "name": "exists",
          "type": "bool"
        }
      ],
      "stateMutability": "view",
      "type": "function"
    },
    {
      "inputs": [
        {
          "internalType": "uint256",
          "name": "contestId",
          "type": "uint256"
        },
        {
          "internalType": "string",
          "name": "entryId",
          "type": "string"
        }
      ],
      "name": "submitEntry",
      "outputs": [],
      "stateMutability": "nonpayable",
      "type": "function"
    },
    {
      "inputs": [
        {
          "internalType": "address",
          "name": "newOwner",
          "type": "address"
        }
      ],
      "name": "transferOwnership",
      "outputs": [],
      "stateMutability": "nonpayable",
      "type": "function"
    },
    {
      "inputs": [],
      "name": "treasury",
      "outputs": [
        {
          "internalType": "address",
          "name": "",
          "type": "address"
        }
      ],
      "stateMutability": "view",
      "type": "function"
    }
  ],
  "bytecode": "0x6080604052600160025534801562000015575f80fd5b5060405162001bbf38038062001bbf83398101604081905262000038916200014f565b33806200005f57604051631e4fbdf760e01b81525f60048201526024015b60405180910390fd5b6200006a8162000100565b5060017f9b779b17422d0df92223018b32b4d1fa46e071723d6817e2486d003becc55f00556001600160a01b038116620000da5760405162461bcd60e51b815260206004820152601060248201526f496e76616c696420747265617375727960801b604482015260640162000056565b600180546001600160a01b0319166001600160a01b03929092169190911790556200017e565b5f80546001600160a01b038381166001600160a01b0319831681178455604051919092169283917f8be0079c531659141344cd1fd0a4f28419497f9722a3daafe3b4186f6b6457e09190a35050565b5f6020828403121562000160575f80fd5b81516001600160a01b038116811462000177575f80fd5b9392505050565b611a33806200018c5f395ff3fe608060405260043610610110575f3560e01c8063904b9f721161009d578063d73792a911610062578063d73792a9146103ff578063dc4da68b14610414578063ee23f4ca14610433578063f0f4426014610446578063f2fde38b14610465575f80fd5b8063904b9f721461029a57806397223233146102c65780639d7ed73814610312578063a57d380614610389578063d533344f146103e0575f80fd5b806361d027b3116100e357806361d027b31461020057806370c7569214610237578063715018a61461024b57806372160cfe1461025f5780638da5cb5b1461027e575f80fd5b806307c3d4af146101145780630e4dbf5c1461013b5780633abadec01461016857806356ce45b6146101df575b5f80fd5b34801561011f575f80fd5b50610128600581565b6040519081526020015b60405180910390f35b348015610146575f80fd5b5061015a6101553660046114c2565b610484565b6040516101329291906114ec565b348015610173575f80fd5b506101ba610182366004611540565b600460209081525f9283526040808420909152908252902080546001909101546001600160a01b03811690600160a01b900460ff1683565b604080519384526001600160a01b039092166020840152151590820152606001610132565b3480156101ea575f80fd5b506101fe6101f9366004611560565b610533565b005b34801561020b575f80fd5b5060015461021f906001600160a01b031681565b6040516001600160a01b039091168152602001610132565b348015610242575f80fd5b50610128601981565b348015610256575f80fd5b506101fe6106cc565b34801561026a575f80fd5b506101fe6102793660046115d5565b6106df565b348015610289575f80fd5b505f546001600160a01b031661021f565b3480156102a5575f80fd5b506102b96102b4366004611607565b610842565b6040516101329190611652565b3480156102d1575f80fd5b506102e56102e0366004611540565b6108df565b60408051825181526020808401516001600160a01b03169082015291810151151590820152606001610132565b34801561031d575f80fd5b5061037661032c366004611607565b600360208190525f918252604090912080546001820154600283015493830154600484015460058501546006909501546001600160a01b0390941695929492939192909160ff1687565b60405161013297969594939291906116b0565b348015610394575f80fd5b506103d06103a33660046114c2565b5f9182526005602090815260408084206001600160a01b0393909316845291905290206001015460ff1690565b6040519015158152602001610132565b3480156103eb575f80fd5b506101fe6103fa3660046115d5565b610949565b34801561040a575f80fd5b506101286103e881565b34801561041f575f80fd5b506101fe61042e366004611607565b610ae6565b6101286104413660046116fc565b610c97565b348015610451575f80fd5b506101fe61046036600461177a565b6110a0565b348015610470575f80fd5b506101fe61047f36600461177a565b61110a565b600560209081525f92835260408084209091529082529020805481906104a99061179a565b80601f01602080910402602001604051908101604052809291908181526020018280546104d59061179a565b80156105205780601f106104f757610100808354040283529160200191610520565b820191905f5260205f20905b81548152906001019060200180831161050357829003601f168201915b5050506001909301549192505060ff1682565b5f83815260036020526040812090600682015460ff16600281111561055a5761055a61161e565b146105805760405162461bcd60e51b8152600401610577906117d2565b60405180910390fd5b80600501544311156105c65760405162461bcd60e51b815260206004820152600f60248201526e111958591b1a5b99481c185cdcd959608a1b6044820152606401610577565b816106075760405162461bcd60e51b8152602060048201526011602482015270115b9d1c9e481251081c995c5d5a5c9959607a1b6044820152606401610577565b6040805160606020601f860181900402820181018352918101848152909182919086908690819085018382808284375f9201829052509385525050600160209384015250868152600582526040808220338352909252208151819061066c9082611853565b50602091909101516001909101805460ff1916911515919091179055604051339085907f1d757c880bd3e669e02148cc1f4b862ab3a4bd8d1b84ffdb2f0d41340f2c9cba906106be9087908790611913565b60405180910390a350505050565b6106d4611144565b6106dd5f611170565b565b6106e76111bf565b5f83815260036020526040902080546001600160a01b031633146107395760405162461bcd60e51b8152602060048201526009602482015268139bdd08189c985b9960ba1b6044820152606401610577565b5f600682015460ff1660028111156107535761075361161e565b146107705760405162461bcd60e51b8152600401610577906117d2565b5f848152600460209081526040808320868452909152902080546107c75760405162461bcd60e51b815260206004820152600e60248201526d151a595c881b9bdd08199bdd5b9960921b6044820152606401610577565b6001810154600160a01b900460ff16156108185760405162461bcd60e51b815260206004820152601260248201527120b63932b0b23c903430b9903bb4b73732b960711b6044820152606401610577565b61082585858585856111da565b505061083d60015f805160206119de83398151915255565b505050565b61084a611458565b5f82815260036020818152604092839020835160e08101855281546001600160a01b031681526001820154928101929092526002808201549483019490945291820154606082015260048201546080820152600582015460a08201526006820154909260c084019160ff16908111156108c5576108c561161e565b60028111156108d6576108d661161e565b90525092915050565b60408051606080820183525f80835260208084018290529284018190528581526004835283812085825283528390208351918201845280548252600101546001600160a01b03811692820192909252600160a01b90910460ff161515918101919091525b92915050565b6109516111bf565b5f83815260036020526040902080546001600160a01b031633146109a35760405162461bcd60e51b8152602060048201526009602482015268139bdd08189c985b9960ba1b6044820152606401610577565b5f600682015460ff1660028111156109bd576109bd61161e565b146109da5760405162461bcd60e51b8152600401610577906117d2565b5f84815260046020908152604080832086845290915290208054610a315760405162461bcd60e51b815260206004820152600e60248201526d151a595c881b9bdd08199bdd5b9960921b6044820152606401610577565b6001810154600160a01b900460ff1615610a825760405162461bcd60e51b815260206004820152601260248201527120b63932b0b23c903430b9903bb4b73732b960711b6044820152606401610577565b5f8581526005602090815260408083206001600160a01b038716845290915290206001015460ff166108185760405162461bcd60e51b815260206004820152600d60248201526c27379039bab136b4b9b9b4b7b760991b6044820152606401610577565b610aee6111bf565b5f81815260036020526040902080546001600160a01b0316331480610b1c57505f546001600160a01b031633145b610b595760405162461bcd60e51b815260206004820152600e60248201526d139bdd08185d5d1a1bdc9a5e995960921b6044820152606401610577565b5f600682015460ff166002811115610b7357610b7361161e565b14610b905760405162461bcd60e51b8152600401610577906117d2565b600281810180545f90915560068301805460ff19169092179091558015610c425781546040515f916001600160a01b03169083908381818185875af1925050503d805f8114610bfa576040519150601f19603f3d011682016040523d82523d5f602084013e610bff565b606091505b5050905080610c405760405162461bcd60e51b815260206004820152600d60248201526c1499599d5b990819985a5b1959609a1b6044820152606401610577565b505b827f1c6c11e134c61b80e07671eec8a0bf2d02e70f63cee8bdc4d53f973b9fb90cca82604051610c7491815260200190565b60405180910390a25050610c9460015f805160206119de83398151915255565b50565b5f803411610cdb5760405162461bcd60e51b8152602060048201526011602482015270135d5cdd08199d5b990818dbdb9d195cdd607a1b6044820152606401610577565b60018510158015610ced575060058511155b610d295760405162461bcd60e51b815260206004820152600d60248201526c496e76616c696420746965727360981b6044820152606401610577565b828514610d6b5760405162461bcd60e51b815260206004820152601060248201526f082dadeeadce8e640dad2e6dac2e8c6d60831b6044820152606401610577565b438211610dba5760405162461bcd60e51b815260206004820152601760248201527f446561646c696e65206d757374206265206675747572650000000000000000006044820152606401610577565b5f805b86811015610e5a575f868683818110610dd857610dd8611941565b9050602002013511610e2c5760405162461bcd60e51b815260206004820152601760248201527f5469657220616d6f756e74206d757374206265203e20300000000000000000006044820152606401610577565b858582818110610e3e57610e3e611941565b9050602002013582610e509190611969565b9150600101610dbd565b50348114610eaa5760405162461bcd60e51b815260206004820152601a60248201527f416d6f756e7473206d75737420657175616c206465706f7369740000000000006044820152606401610577565b600280545f9182610eba8361197c565b9190505590506040518060e00160405280336001600160a01b031681526020013481526020013481526020018881526020015f81526020018581526020015f6002811115610f0a57610f0a61161e565b81525060035f8381526020019081526020015f205f820151815f015f6101000a8154816001600160a01b0302191690836001600160a01b031602179055506020820151816001015560408201518160020155606082015181600301556080820151816004015560a0820151816005015560c0820151816006015f6101000a81548160ff02191690836002811115610fa357610fa361161e565b02179055509050505f5b87811015611058576040518060600160405280888884818110610fd257610fd2611941565b602090810292909201358352505f8282018190526040928301819052858152600490915290812090611005846001611969565b815260208082019290925260409081015f2083518155918301516001928301805494909201511515600160a01b026001600160a81b03199094166001600160a01b03909116179290921790915501610fad565b506040805134815260208101899052339183917f8280ff1879c6ac2c53ba231886d678c2ea3004dacf8236df357e456aedbaf47b910160405180910390a39695505050505050565b6110a8611144565b6001600160a01b0381166110e85760405162461bcd60e51b8152602060048201526007602482015266125b9d985b1a5960ca1b6044820152606401610577565b600180546001600160a01b0319166001600160a01b0392909216919091179055565b611112611144565b6001600160a01b03811661113b57604051631e4fbdf760e01b81525f6004820152602401610577565b610c9481611170565b5f546001600160a01b031633146106dd5760405163118cdaa760e01b8152336004820152602401610577565b5f80546001600160a01b038381166001600160a01b0319831681178455604051919092169283917f8be0079c531659141344cd1fd0a4f28419497f9722a3daafe3b4186f6b6457e09190a35050565b6111c7611429565b60025f805160206119de83398151915255565b5f6103e86019835f01546111ee9190611994565b6111f891906119ab565b90505f81835f015461120a91906119ca565b6001840180546001600160a81b0319166001600160a01b03881617600160a01b1790556004850180549192505f6112408361197c565b909155505082546002850180545f9061125a9084906119ca565b909155505081156112f4576001546040515f916001600160a01b03169084908381818185875af1925050503d805f81146112af576040519150601f19603f3d011682016040523d82523d5f602084013e6112b4565b606091505b50509050806112f25760405162461bcd60e51b815260206004820152600a6024820152691199594819985a5b195960b21b6044820152606401610577565b505b8015611391575f856001600160a01b0316826040515f6040518083038185875af1925050503d805f8114611343576040519150601f19603f3d011682016040523d82523d5f602084013e611348565b606091505b505090508061138f5760405162461bcd60e51b8152602060048201526013602482015272141c9a5e99481c185e5bdd5d0819985a5b1959606a1b6044820152606401610577565b505b60408051878152602081018390526001600160a01b0387169189917fddb6d9af7d3cc0b9e91ff116672c006a4a0cc4082a426e8d3c1593b11e22a1d2910160405180910390a383600301548460040154106114205760068401805460ff1916600117905560405187907ffba192deaecbe7fa98bd977ab6a41d5e30515950160612a6341b3f3477568f68905f90a25b50505050505050565b5f805160206119de833981519152546002036106dd57604051633ee5aeb560e01b815260040160405180910390fd5b6040518060e001604052805f6001600160a01b031681526020015f81526020015f81526020015f81526020015f81526020015f81526020015f60028111156114a2576114a261161e565b905290565b80356001600160a01b03811681146114bd575f80fd5b919050565b5f80604083850312156114d3575f80fd5b823591506114e3602084016114a7565b90509250929050565b604081525f83518060408401525f5b8181101561151857602081870181015160608684010152016114fb565b505f606082850101526060601f19601f83011684010191505082151560208301529392505050565b5f8060408385031215611551575f80fd5b50508035926020909101359150565b5f805f60408486031215611572575f80fd5b83359250602084013567ffffffffffffffff80821115611590575f80fd5b818601915086601f8301126115a3575f80fd5b8135818111156115b1575f80fd5b8760208285010111156115c2575f80fd5b6020830194508093505050509250925092565b5f805f606084860312156115e7575f80fd5b83359250602084013591506115fe604085016114a7565b90509250925092565b5f60208284031215611617575f80fd5b5035919050565b634e487b7160e01b5f52602160045260245ffd5b6003811061164e57634e487b7160e01b5f52602160045260245ffd5b9052565b5f60e08201905060018060a01b0383511682526020830151602083015260408301516040830152606083015160608301526080830151608083015260a083015160a083015260c08301516116a960c0840182611632565b5092915050565b6001600160a01b03881681526020810187905260408101869052606081018590526080810184905260a0810183905260e081016116f060c0830184611632565b98975050505050505050565b5f805f806060858703121561170f575f80fd5b84359350602085013567ffffffffffffffff8082111561172d575f80fd5b818701915087601f830112611740575f80fd5b81358181111561174e575f80fd5b8860208260051b8501011115611762575f80fd5b95986020929092019750949560400135945092505050565b5f6020828403121561178a575f80fd5b611793826114a7565b9392505050565b600181811c908216806117ae57607f821691505b6020821081036117cc57634e487b7160e01b5f52602260045260245ffd5b50919050565b6020808252600890820152672737ba1037b832b760c11b604082015260600190565b634e487b7160e01b5f52604160045260245ffd5b601f82111561083d57805f5260205f20601f840160051c8101602085101561182d5750805b601f840160051c820191505b8181101561184c575f8155600101611839565b5050505050565b815167ffffffffffffffff81111561186d5761186d6117f4565b6118818161187b845461179a565b84611808565b602080601f8311600181146118b4575f841561189d5750858301515b5f19600386901b1c1916600185901b17855561190b565b5f85815260208120601f198616915b828110156118e2578886015182559484019460019091019084016118c3565b50858210156118ff57878501515f19600388901b60f8161c191681555b505060018460011b0185555b505050505050565b60208152816020820152818360408301375f818301604090810191909152601f909201601f19160101919050565b634e487b7160e01b5f52603260045260245ffd5b634e487b7160e01b5f52601160045260245ffd5b8082018082111561094357610943611955565b5f6001820161198d5761198d611955565b5060010190565b808202811582820484141761094357610943611955565b5f826119c557634e487b7160e01b5f52601260045260245ffd5b500490565b818103818111156109435761094361195556fe9b779b17422d0df92223018b32b4d1fa46e071723d6817e2486d003becc55f00a264697066735822122070c2b6b8075e65582055dedce19c9d3aee8585815abd33218de40fe55b4969e064736f6c63430008180033",
  "linkReferences": {},
  "deployedLinkReferences": {}
}