{
  "_format": "hh-sol-artifact-1",
  "contractName": "PromptHubContests",
  "sourceName": "contracts/solidity/PromptHubContests.sol",
  "abi": [
    {
      "inputs": [
        {
          "internalType": "address",
          "name": "_treasury",
          "type": "address"
        },
        {
          "internalType": "address",
          "name": "_agentRegistry",
          "type": "address"
        }
      ],
      "stateMutability": "nonpayable",
      "type": "constructor"
    },
    {
      "inputs": [
        {
          "internalType": "address",
          "name": "owner",
          "type": "address"
        }
      ],
      "name": "OwnableInvalidOwner",
      "type": "error"
    },
    {
      "inputs": [
        {
          "internalType": "address",
          "name": "account",
          "type": "address"
        }
      ],
      "name": "OwnableUnauthorizedAccount",
      "type": "error"
    },
    {
      "inputs": [],
      "name": "ReentrancyGuardReentrantCall",
      "type": "error"
    },
    {
      "anonymous": false,
      "inputs": [
        {
          "indexed": true,
          "internalType": "uint256",
          "name": "contestId",
          "type": "uint256"
        },
        {
          "indexed": false,
          "internalType": "uint256",
          "name": "refundAmount",
          "type": "uint256"
        }
      ],
      "name": "ContestCancelled",
      "type": "event"
    },
    {
      "anonymous": false,
      "inputs": [
        {
          "indexed": true,
          "internalType": "uint256",
          "name": "contestId",
          "type": "uint256"
        }
      ],
      "name": "ContestCompleted",
      "type": "event"
    },
    {
      "anonymous": false,
      "inputs": [
        {
          "indexed": true,
          "internalType": "uint256",
          "name": "contestId",
          "type": "uint256"
        },
        {
          "indexed": true,
          "internalType": "address",
          "name": "brand",
          "type": "address"
        },
        {
          "indexed": false,
          "internalType": "uint256",
          "name": "totalPool",
          "type": "uint256"
        },
        {
          "indexed": false,
          "internalType": "uint256",
          "name": "numTiers",
          "type": "uint256"
        }
      ],
      "name": "ContestFunded",
      "type": "event"
    },
    {
      "anonymous": false,
      "inputs": [
        {
          "indexed": true,
          "internalType": "uint256",
          "name": "contestId",
          "type": "uint256"
        },
        {
          "indexed": true,
          "internalType": "address",
          "name": "artist",
          "type": "address"
        },
        {
          "indexed": false,
          "internalType": "string",
          "name": "entryId",
          "type": "string"
        }
      ],
      "name": "EntrySubmitted",
      "type": "event"
    },
    {
      "anonymous": false,
      "inputs": [
        {
          "indexed": true,
          "internalType": "address",
          "name": "previousOwner",
          "type": "address"
        },
        {
          "indexed": true,
          "internalType": "address",
          "name": "newOwner",
          "type": "address"
        }
      ],
      "name": "OwnershipTransferred",
      "type": "event"
    },
    {
      "anonymous": false,
      "inputs": [
        {
          "indexed": true,
          "internalType": "uint256",
          "name": "contestId",
          "type": "uint256"
        },
        {
          "indexed": false,
          "internalType": "uint256",
          "name": "place",
          "type": "uint256"
        },
        {
          "indexed": true,
          "internalType": "address",
          "name": "winner",
          "type": "address"
        },
        {
          "indexed": false,
          "internalType": "uint256",
          "name": "payout",
          "type": "uint256"
        }
      ],
      "name": "WinnerDeclared",
      "type": "event"
    },
    {
      "inputs": [],
      "name": "FEE_DENOMINATOR",
      "outputs": [
        {
          "internalType": "uint256",
          "name": "",
          "type": "uint256"
        }
      ],
      "stateMutability": "view",
      "type": "function"
    },
    {
      "inputs": [],
      "name": "MAX_TIERS",
      "outputs": [
        {
          "internalType": "uint256",
          "name": "",
          "type": "uint256"
        }
      ],
      "stateMutability": "view",
      "type": "function"
    },
    {
      "inputs": [],
      "name": "PLATFORM_FEE_PER_MILLE",
      "outputs": [
        {
          "internalType": "uint256",
          "name": "",
          "type": "uint256"
        }
      ],
      "stateMutability": "view",
      "type": "function"
    },
    {
      "inputs": [],
      "name": "agentRegistry",
      "outputs": [
        {
          "internalType": "contract IAgentRegistry",
          "name": "",
          "type": "address"
        }
      ],
      "stateMutability": "view",
      "type": "function"
    },
    {
      "inputs": [
        {
          "internalType": "uint256",
          "name": "contestId",
          "type": "uint256"
        }
      ],
      "name": "cancelContest",
      "outputs": [],
      "stateMutability": "nonpayable",
      "type": "function"
    },
    {
      "inputs": [
        {
          "internalType": "uint256",
          "name": "",
          "type": "uint256"
        }
      ],
      "name": "contests",
      "outputs": [
        {
          "internalType": "address",
          "name": "brand",
          "type": "address"
        },
        {
          "internalType": "uint256",
          "name": "totalPool",
          "type": "uint256"
        },
        {
          "internalType": "uint256",
          "name": "remainingPool",
          "type": "uint256"
        },
        {
          "internalType": "uint256",
          "name": "numTiers",
          "type": "uint256"
        },
        {
          "internalType": "uint256",
          "name": "winnersDeclared",
          "type": "uint256"
        },
        {
          "internalType": "uint256",
          "name": "deadline",
          "type": "uint256"
        },
        {
          "internalType": "enum PromptHubContests.ContestStatus",
          "name": "status",
          "type": "uint8"
        }
      ],
      "stateMutability": "view",
      "type": "function"
    },
    {
      "inputs": [
        {
          "internalType": "uint256",
          "name": "contestId",
          "type": "uint256"
        },
        {
          "internalType": "uint256",
          "name": "place",
          "type": "uint256"
        },
        {
          "internalType": "address",
          "name": "winner",
          "type": "address"
        }
      ],
      "name": "declareWinner",
      "outputs": [],
      "stateMutability": "nonpayable",
      "type": "function"
    },
    {
      "inputs": [
        {
          "internalType": "uint256",
          "name": "contestId",
          "type": "uint256"
        },
        {
          "internalType": "uint256",
          "name": "place",
          "type": "uint256"
        },
        {
          "internalType": "address",
          "name": "winner",
          "type": "address"
        }
      ],
      "name": "declareWinnerExternal",
      "outputs": [],
      "stateMutability": "nonpayable",
      "type": "function"
    },
    {
      "inputs": [
        {
          "internalType": "uint256",
          "name": "numTiers",
          "type": "uint256"
        },
        {
          "internalType": "uint256[]",
          "name": "amounts",
          "type": "uint256[]"
        },
        {
          "internalType": "uint256",
          "name": "deadline",
          "type": "uint256"
        }
      ],
      "name": "fundContest",
      "outputs": [
        {
          "internalType": "uint256",
          "name": "",
          "type": "uint256"
        }
      ],
      "stateMutability": "payable",
      "type": "function"
    },
    {
      "inputs": [
        {
          "internalType": "uint256",
          "name": "contestId",
          "type": "uint256"
        }
      ],
      "name": "getContest",
      "outputs": [
        {
          "components": [
            {
              "internalType": "address",
              "name": "brand",
              "type": "address"
            },
            {
              "internalType": "uint256",
              "name": "totalPool",
              "type": "uint256"
            },
            {
              "internalType": "uint256",
              "name": "remainingPool",
              "type": "uint256"
            },
            {
              "internalType": "uint256",
              "name": "numTiers",
              "type": "uint256"
            },
            {
              "internalType": "uint256",
              "name": "winnersDeclared",
              "type": "uint256"
            },
            {
              "internalType": "uint256",
              "name": "deadline",
              "type": "uint256"
            },
            {
              "internalType": "enum PromptHubContests.ContestStatus",
              "name": "status",
              "type": "uint8"
            }
          ],
          "internalType": "struct PromptHubContests.Contest",
          "name": "",
          "type": "tuple"
        }
      ],
      "stateMutability": "view",
      "type": "function"
    },
    {
      "inputs": [
        {
          "internalType": "uint256",
          "name": "contestId",
          "type": "uint256"
        },
        {
          "internalType": "uint256",
          "name": "place",
          "type": "uint256"
        }
      ],
      "name": "getPrizeTier",
      "outputs": [
        {
          "components": [
            {
              "internalType": "uint256",
              "name": "amount",
              "type": "uint256"
            },
            {
              "internalType": "address",
              "name": "winner",
              "type": "address"
            },
            {
              "internalType": "bool",
              "name": "hasWinner",
              "type": "bool"
            }
          ],
          "internalType": "struct PromptHubContests.PrizeTier",
          "name": "",
          "type": "tuple"
        }
      ],
      "stateMutability": "view",
      "type": "function"
    },
    {
      "inputs": [
        {
          "internalType": "uint256",
          "name": "contestId",
          "type": "uint256"
        },
        {
          "internalType": "address",
          "name": "artist",
          "type": "address"
        }
      ],
      "name": "hasSubmitted",
      "outputs": [
        {
          "internalType": "bool",
          "name": "",
          "type": "bool"
        }
      ],
      "stateMutability": "view",
      "type": "function"
    },
    {
      "inputs": [],
      "name": "owner",
      "outputs": [
        {
          "internalType": "address",
          "name": "",
          "type": "address"
        }
      ],
      "stateMutability": "view",
      "type": "function"
    },
    {
      "inputs": [
        {
          "internalType": "uint256",
          "name": "",
          "type": "uint256"
        },
        {
          "internalType": "uint256",
          "name": "",
          "type": "uint256"
        }
      ],
      "name": "prizeTiers",
      "outputs": [
        {
          "internalType": "uint256",
          "name": "amount",
          "type": "uint256"
        },
        {
          "internalType": "address",
          "name": "winner",
          "type": "address"
        },
        {
          "internalType": "bool",
          "name": "hasWinner",
          "type": "bool"
        }
      ],
      "stateMutability": "view",
      "type": "function"
    },
    {
      "inputs": [],
      "name": "renounceOwnership",
      "outputs": [],
      "stateMutability": "nonpayable",
      "type": "function"
    },
    {
      "inputs": [
        {
          "internalType": "address",
          "name": "_treasury",
          "type": "address"
        }
      ],
      "name": "setTreasury",
      "outputs": [],
      "stateMutability": "nonpayable",
      "type": "function"
    },
    {
      "inputs": [
        {
          "internalType": "uint256",
          "name": "",
          "type": "uint256"
        },
        {
          "internalType": "address",
          "name": "",
          "type": "address"
        }
      ],
      "name": "submissions",
      "outputs": [
        {
          "internalType": "string",
          "name": "entryId",
          "type": "string"
        },
        {
          "internalType": "bool",
          "name": "exists",
          "type": "bool"
        }
      ],
      "stateMutability": "view",
      "type": "function"
    },
    {
      "inputs": [
        {
          "internalType": "uint256",
          "name": "contestId",
          "type": "uint256"
        },
        {
          "internalType": "string",
          "name": "entryId",
          "type": "string"
        }
      ],
      "name": "submitEntry",
      "outputs": [],
      "stateMutability": "nonpayable",
      "type": "function"
    },
    {
      "inputs": [
        {
          "internalType": "address",
          "name": "newOwner",
          "type": "address"
        }
      ],
      "name": "transferOwnership",
      "outputs": [],
      "stateMutability": "nonpayable",
      "type": "function"
    },
    {
      "inputs": [],
      "name": "treasury",
      "outputs": [
        {
          "internalType": "address",
          "name": "",
          "type": "address"
        }
      ],
      "stateMutability": "view",
      "type": "function"
    }
  ],
  "bytecode": "0x6080604052600160035534801562000015575f80fd5b5060405162001cc538038062001cc58339810160408190526200003891620001c2565b33806200005f57604051631e4fbdf760e01b81525f60048201526024015b60405180910390fd5b6200006a8162000157565b5060017f9b779b17422d0df92223018b32b4d1fa46e071723d6817e2486d003becc55f00556001600160a01b038216620000da5760405162461bcd60e51b815260206004820152601060248201526f496e76616c696420747265617375727960801b604482015260640162000056565b6001600160a01b038116620001255760405162461bcd60e51b815260206004820152601060248201526f496e76616c696420726567697374727960801b604482015260640162000056565b600180546001600160a01b039384166001600160a01b03199182161790915560028054929093169116179055620001f8565b5f80546001600160a01b038381166001600160a01b0319831681178455604051919092169283917f8be0079c531659141344cd1fd0a4f28419497f9722a3daafe3b4186f6b6457e09190a35050565b80516001600160a01b0381168114620001bd575f80fd5b919050565b5f8060408385031215620001d4575f80fd5b620001df83620001a6565b9150620001ef60208401620001a6565b90509250929050565b611abf80620002065f395ff3fe60806040526004361061011b575f3560e01c8063904b9f721161009d578063d73792a911610062578063d73792a914610428578063dc4da68b1461043d578063ee23f4ca1461045c578063f0f442601461046f578063f2fde38b1461048e575f80fd5b8063904b9f72146102c457806397223233146102f05780639d7ed7381461033c578063a57d3806146103b2578063d533344f14610409575f80fd5b806361d027b3116100e357806361d027b31461024257806370c7569214610261578063715018a61461027557806372160cfe146102895780638da5cb5b146102a8575f80fd5b806307c3d4af1461011f5780630d1cfcae146101465780630e4dbf5c1461017d5780633abadec0146101aa57806356ce45b614610221575b5f80fd5b34801561012a575f80fd5b50610133600581565b6040519081526020015b60405180910390f35b348015610151575f80fd5b50600254610165906001600160a01b031681565b6040516001600160a01b03909116815260200161013d565b348015610188575f80fd5b5061019c61019736600461154e565b6104ad565b60405161013d929190611578565b3480156101b5575f80fd5b506101fc6101c43660046115cc565b600560209081525f9283526040808420909152908252902080546001909101546001600160a01b03811690600160a01b900460ff1683565b604080519384526001600160a01b03909216602084015215159082015260600161013d565b34801561022c575f80fd5b5061024061023b3660046115ec565b61055c565b005b34801561024d575f80fd5b50600154610165906001600160a01b031681565b34801561026c575f80fd5b50610133601981565b348015610280575f80fd5b506102406106f5565b348015610294575f80fd5b506102406102a3366004611661565b610708565b3480156102b3575f80fd5b505f546001600160a01b0316610165565b3480156102cf575f80fd5b506102e36102de366004611693565b61086b565b60405161013d91906116de565b3480156102fb575f80fd5b5061030f61030a3660046115cc565b610908565b60408051825181526020808401516001600160a01b0316908201529181015115159082015260600161013d565b348015610347575f80fd5b5061039f610356366004611693565b600460208190525f918252604090912080546001820154600283015460038401549484015460058501546006909501546001600160a01b03909416959294919390919060ff1687565b60405161013d979695949392919061173c565b3480156103bd575f80fd5b506103f96103cc36600461154e565b5f9182526006602090815260408084206001600160a01b0393909316845291905290206001015460ff1690565b604051901515815260200161013d565b348015610414575f80fd5b50610240610423366004611661565b610972565b348015610433575f80fd5b506101336103e881565b348015610448575f80fd5b50610240610457366004611693565b610b0f565b61013361046a366004611788565b610cc0565b34801561047a575f80fd5b50610240610489366004611806565b6110c9565b348015610499575f80fd5b506102406104a8366004611806565b611133565b600660209081525f92835260408084209091529082529020805481906104d290611826565b80601f01602080910402602001604051908101604052809291908181526020018280546104fe90611826565b80156105495780601f1061052057610100808354040283529160200191610549565b820191905f5260205f20905b81548152906001019060200180831161052c57829003601f168201915b5050506001909301549192505060ff1682565b5f83815260046020526040812090600682015460ff166002811115610583576105836116aa565b146105a95760405162461bcd60e51b81526004016105a09061185e565b60405180910390fd5b80600501544311156105ef5760405162461bcd60e51b815260206004820152600f60248201526e111958591b1a5b99481c185cdcd959608a1b60448201526064016105a0565b816106305760405162461bcd60e51b8152602060048201526011602482015270115b9d1c9e481251081c995c5d5a5c9959607a1b60448201526064016105a0565b6040805160606020601f860181900402820181018352918101848152909182919086908690819085018382808284375f9201829052509385525050600160209384015250868152600682526040808220338352909252208151819061069590826118df565b50602091909101516001909101805460ff1916911515919091179055604051339085907f1d757c880bd3e669e02148cc1f4b862ab3a4bd8d1b84ffdb2f0d41340f2c9cba906106e7908790879061199f565b60405180910390a350505050565b6106fd61116d565b6107065f611199565b565b6107106111e8565b5f83815260046020526040902080546001600160a01b031633146107625760405162461bcd60e51b8152602060048201526009602482015268139bdd08189c985b9960ba1b60448201526064016105a0565b5f600682015460ff16600281111561077c5761077c6116aa565b146107995760405162461bcd60e51b81526004016105a09061185e565b5f848152600560209081526040808320868452909152902080546107f05760405162461bcd60e51b815260206004820152600e60248201526d151a595c881b9bdd08199bdd5b9960921b60448201526064016105a0565b6001810154600160a01b900460ff16156108415760405162461bcd60e51b815260206004820152601260248201527120b63932b0b23c903430b9903bb4b73732b960711b60448201526064016105a0565b61084e8585858585611203565b505061086660015f80516020611a6a83398151915255565b505050565b6108736114e4565b5f82815260046020818152604092839020835160e08101855281546001600160a01b031681526001820154928101929092526002808201549483019490945260038101546060830152918201546080820152600582015460a08201526006820154909260c084019160ff16908111156108ee576108ee6116aa565b60028111156108ff576108ff6116aa565b90525092915050565b60408051606080820183525f80835260208084018290529284018190528581526005835283812085825283528390208351918201845280548252600101546001600160a01b03811692820192909252600160a01b90910460ff161515918101919091525b92915050565b61097a6111e8565b5f83815260046020526040902080546001600160a01b031633146109cc5760405162461bcd60e51b8152602060048201526009602482015268139bdd08189c985b9960ba1b60448201526064016105a0565b5f600682015460ff1660028111156109e6576109e66116aa565b14610a035760405162461bcd60e51b81526004016105a09061185e565b5f84815260056020908152604080832086845290915290208054610a5a5760405162461bcd60e51b815260206004820152600e60248201526d151a595c881b9bdd08199bdd5b9960921b60448201526064016105a0565b6001810154600160a01b900460ff1615610aab5760405162461bcd60e51b815260206004820152601260248201527120b63932b0b23c903430b9903bb4b73732b960711b60448201526064016105a0565b5f8581526006602090815260408083206001600160a01b038716845290915290206001015460ff166108415760405162461bcd60e51b815260206004820152600d60248201526c27379039bab136b4b9b9b4b7b760991b60448201526064016105a0565b610b176111e8565b5f81815260046020526040902080546001600160a01b0316331480610b4557505f546001600160a01b031633145b610b825760405162461bcd60e51b815260206004820152600e60248201526d139bdd08185d5d1a1bdc9a5e995960921b60448201526064016105a0565b5f600682015460ff166002811115610b9c57610b9c6116aa565b14610bb95760405162461bcd60e51b81526004016105a09061185e565b600281810180545f90915560068301805460ff19169092179091558015610c6b5781546040515f916001600160a01b03169083908381818185875af1925050503d805f8114610c23576040519150601f19603f3d011682016040523d82523d5f602084013e610c28565b606091505b5050905080610c695760405162461bcd60e51b815260206004820152600d60248201526c1499599d5b990819985a5b1959609a1b60448201526064016105a0565b505b827f1c6c11e134c61b80e07671eec8a0bf2d02e70f63cee8bdc4d53f973b9fb90cca82604051610c9d91815260200190565b60405180910390a25050610cbd60015f80516020611a6a83398151915255565b50565b5f803411610d045760405162461bcd60e51b8152602060048201526011602482015270135d5cdd08199d5b990818dbdb9d195cdd607a1b60448201526064016105a0565b60018510158015610d16575060058511155b610d525760405162461bcd60e51b815260206004820152600d60248201526c496e76616c696420746965727360981b60448201526064016105a0565b828514610d945760405162461bcd60e51b815260206004820152601060248201526f082dadeeadce8e640dad2e6dac2e8c6d60831b60448201526064016105a0565b438211610de35760405162461bcd60e51b815260206004820152601760248201527f446561646c696e65206d7573742062652066757475726500000000000000000060448201526064016105a0565b5f805b86811015610e83575f868683818110610e0157610e016119cd565b9050602002013511610e555760405162461bcd60e51b815260206004820152601760248201527f5469657220616d6f756e74206d757374206265203e203000000000000000000060448201526064016105a0565b858582818110610e6757610e676119cd565b9050602002013582610e7991906119f5565b9150600101610de6565b50348114610ed35760405162461bcd60e51b815260206004820152601a60248201527f416d6f756e7473206d75737420657175616c206465706f73697400000000000060448201526064016105a0565b600380545f9182610ee383611a08565b9190505590506040518060e00160405280336001600160a01b031681526020013481526020013481526020018881526020015f81526020018581526020015f6002811115610f3357610f336116aa565b81525060045f8381526020019081526020015f205f820151815f015f6101000a8154816001600160a01b0302191690836001600160a01b031602179055506020820151816001015560408201518160020155606082015181600301556080820151816004015560a0820151816005015560c0820151816006015f6101000a81548160ff02191690836002811115610fcc57610fcc6116aa565b02179055509050505f5b87811015611081576040518060600160405280888884818110610ffb57610ffb6119cd565b602090810292909201358352505f828201819052604092830181905285815260059091529081209061102e8460016119f5565b815260208082019290925260409081015f2083518155918301516001928301805494909201511515600160a01b026001600160a81b03199094166001600160a01b03909116179290921790915501610fd6565b506040805134815260208101899052339183917f8280ff1879c6ac2c53ba231886d678c2ea3004dacf8236df357e456aedbaf47b910160405180910390a39695505050505050565b6110d161116d565b6001600160a01b0381166111115760405162461bcd60e51b8152602060048201526007602482015266125b9d985b1a5960ca1b60448201526064016105a0565b600180546001600160a01b0319166001600160a01b0392909216919091179055565b61113b61116d565b6001600160a01b03811661116457604051631e4fbdf760e01b81525f60048201526024016105a0565b610cbd81611199565b5f546001600160a01b031633146107065760405163118cdaa760e01b81523360048201526024016105a0565b5f80546001600160a01b038381166001600160a01b0319831681178455604051919092169283917f8be0079c531659141344cd1fd0a4f28419497f9722a3daafe3b4186f6b6457e09190a35050565b6111f06114b5565b60025f80516020611a6a83398151915255565b5f6103e86019835f01546112179190611a20565b6112219190611a37565b90505f81835f01546112339190611a56565b6001840180546001600160a81b0319166001600160a01b03881617600160a01b1790556004850180549192505f61126983611a08565b909155505082546002850180545f90611283908490611a56565b9091555050811561131d576001546040515f916001600160a01b03169084908381818185875af1925050503d805f81146112d8576040519150601f19603f3d011682016040523d82523d5f602084013e6112dd565b606091505b505090508061131b5760405162461bcd60e51b815260206004820152600a6024820152691199594819985a5b195960b21b60448201526064016105a0565b505b80156113ba575f856001600160a01b0316826040515f6040518083038185875af1925050503d805f811461136c576040519150601f19603f3d011682016040523d82523d5f602084013e611371565b606091505b50509050806113b85760405162461bcd60e51b8152602060048201526013602482015272141c9a5e99481c185e5bdd5d0819985a5b1959606a1b60448201526064016105a0565b505b60408051878152602081018390526001600160a01b0387169189917fddb6d9af7d3cc0b9e91ff116672c006a4a0cc4082a426e8d3c1593b11e22a1d2910160405180910390a3600254604051637630272360e11b81526001600160a01b0387811660048301525f6024830152600160448301529091169063ec604e46906064015f604051808303815f87803b158015611451575f80fd5b505af1925050508015611462575060015b5083600301548460040154106114ac5760068401805460ff1916600117905560405187907ffba192deaecbe7fa98bd977ab6a41d5e30515950160612a6341b3f3477568f68905f90a25b50505050505050565b5f80516020611a6a8339815191525460020361070657604051633ee5aeb560e01b815260040160405180910390fd5b6040518060e001604052805f6001600160a01b031681526020015f81526020015f81526020015f81526020015f81526020015f81526020015f600281111561152e5761152e6116aa565b905290565b80356001600160a01b0381168114611549575f80fd5b919050565b5f806040838503121561155f575f80fd5b8235915061156f60208401611533565b90509250929050565b604081525f83518060408401525f5b818110156115a45760208187018101516060868401015201611587565b505f606082850101526060601f19601f83011684010191505082151560208301529392505050565b5f80604083850312156115dd575f80fd5b50508035926020909101359150565b5f805f604084860312156115fe575f80fd5b83359250602084013567ffffffffffffffff8082111561161c575f80fd5b818601915086601f83011261162f575f80fd5b81358181111561163d575f80fd5b87602082850101111561164e575f80fd5b6020830194508093505050509250925092565b5f805f60608486031215611673575f80fd5b833592506020840135915061168a60408501611533565b90509250925092565b5f602082840312156116a3575f80fd5b5035919050565b634e487b7160e01b5f52602160045260245ffd5b600381106116da57634e487b7160e01b5f52602160045260245ffd5b9052565b5f60e08201905060018060a01b0383511682526020830151602083015260408301516040830152606083015160608301526080830151608083015260a083015160a083015260c083015161173560c08401826116be565b5092915050565b6001600160a01b03881681526020810187905260408101869052606081018590526080810184905260a0810183905260e0810161177c60c08301846116be565b98975050505050505050565b5f805f806060858703121561179b575f80fd5b84359350602085013567ffffffffffffffff808211156117b9575f80fd5b818701915087601f8301126117cc575f80fd5b8135818111156117da575f80fd5b8860208260051b85010111156117ee575f80fd5b95986020929092019750949560400135945092505050565b5f60208284031215611816575f80fd5b61181f82611533565b9392505050565b600181811c9082168061183a57607f821691505b60208210810361185857634e487b7160e01b5f52602260045260245ffd5b50919050565b6020808252600890820152672737ba1037b832b760c11b604082015260600190565b634e487b7160e01b5f52604160045260245ffd5b601f82111561086657805f5260205f20601f840160051c810160208510156118b95750805b601f840160051c820191505b818110156118d8575f81556001016118c5565b5050505050565b815167ffffffffffffffff8111156118f9576118f9611880565b61190d816119078454611826565b84611894565b602080601f831160018114611940575f84156119295750858301515b5f19600386901b1c1916600185901b178555611997565b5f85815260208120601f198616915b8281101561196e5788860151825594840194600190910190840161194f565b508582101561198b57878501515f19600388901b60f8161c191681555b505060018460011b0185555b505050505050565b60208152816020820152818360408301375f818301604090810191909152601f909201601f19160101919050565b634e487b7160e01b5f52603260045260245ffd5b634e487b7160e01b5f52601160045260245ffd5b8082018082111561096c5761096c6119e1565b5f60018201611a1957611a196119e1565b5060010190565b808202811582820484141761096c5761096c6119e1565b5f82611a5157634e487b7160e01b5f52601260045260245ffd5b500490565b8181038181111561096c5761096c6119e156fe9b779b17422d0df92223018b32b4d1fa46e071723d6817e2486d003becc55f00a26469706673582212206296ef7eb8d3baee7511e47c9ae34d462742b51a4e01da69c1bfc5c242e31e9c64736f6c63430008180033",
  "linkReferences": {},
  "deployedLinkReferences": {}
}