{
  "_format": "hh-sol-artifact-1",
  "contractName": "AgentRegistry",
  "sourceName": "contracts/solidity/AgentRegistry.sol",
  "abi": [
    {
      "inputs": [],
      "stateMutability": "nonpayable",
      "type": "constructor"
    },
    {
      "inputs": [
        {
          "internalType": "address",
          "name": "owner",
          "type": "address"
        }
      ],
      "name": "OwnableInvalidOwner",
      "type": "error"
    },
    {
      "inputs": [
        {
          "internalType": "address",
          "name": "account",
          "type": "address"
        }
      ],
      "name": "OwnableUnauthorizedAccount",
      "type": "error"
    },
    {
      "anonymous": false,
      "inputs": [
        {
          "indexed": true,
          "internalType": "address",
          "name": "agent",
          "type": "address"
        },
        {
          "indexed": false,
          "internalType": "string",
          "name": "metadataUri",
          "type": "string"
        }
      ],
      "name": "AgentMetadataUpdated",
      "type": "event"
    },
    {
      "anonymous": false,
      "inputs": [
        {
          "indexed": true,
          "internalType": "address",
          "name": "agent",
          "type": "address"
        },
        {
          "indexed": false,
          "internalType": "string",
          "name": "metadataUri",
          "type": "string"
        }
      ],
      "name": "AgentRegistered",
      "type": "event"
    },
    {
      "anonymous": false,
      "inputs": [
        {
          "indexed": true,
          "internalType": "address",
          "name": "agent",
          "type": "address"
        }
      ],
      "name": "AgentUnverified",
      "type": "event"
    },
    {
      "anonymous": false,
      "inputs": [
        {
          "indexed": true,
          "internalType": "address",
          "name": "agent",
          "type": "address"
        }
      ],
      "name": "AgentVerified",
      "type": "event"
    },
    {
      "anonymous": false,
      "inputs": [
        {
          "indexed": true,
          "internalType": "address",
          "name": "previousOwner",
          "type": "address"
        },
        {
          "indexed": true,
          "internalType": "address",
          "name": "newOwner",
          "type": "address"
        }
      ],
      "name": "OwnershipTransferred",
      "type": "event"
    },
    {
      "anonymous": false,
      "inputs": [
        {
          "indexed": true,
          "internalType": "address",
          "name": "agent",
          "type": "address"
        },
        {
          "indexed": false,
          "internalType": "uint256",
          "name": "newRating",
          "type": "uint256"
        },
        {
          "indexed": false,
          "internalType": "bool",
          "name": "jobCompleted",
          "type": "bool"
        }
      ],
      "name": "ReputationUpdated",
      "type": "event"
    },
    {
      "anonymous": false,
      "inputs": [
        {
          "indexed": true,
          "internalType": "address",
          "name": "updater",
          "type": "address"
        },
        {
          "indexed": false,
          "internalType": "bool",
          "name": "authorized",
          "type": "bool"
        }
      ],
      "name": "UpdaterAuthorized",
      "type": "event"
    },
    {
      "inputs": [
        {
          "internalType": "address",
          "name": "",
          "type": "address"
        }
      ],
      "name": "agents",
      "outputs": [
        {
          "internalType": "bool",
          "name": "isVerified",
          "type": "bool"
        },
        {
          "internalType": "string",
          "name": "metadataUri",
          "type": "string"
        },
        {
          "internalType": "uint256",
          "name": "completedJobs",
          "type": "uint256"
        },
        {
          "internalType": "uint256",
          "name": "totalReviews",
          "type": "uint256"
        },
        {
          "internalType": "uint256",
          "name": "ratingSum",
          "type": "uint256"
        },
        {
          "internalType": "uint256",
          "name": "registeredAt",
          "type": "uint256"
        }
      ],
      "stateMutability": "view",
      "type": "function"
    },
    {
      "inputs": [
        {
          "internalType": "address",
          "name": "",
          "type": "address"
        }
      ],
      "name": "authorizedUpdaters",
      "outputs": [
        {
          "internalType": "bool",
          "name": "",
          "type": "bool"
        }
      ],
      "stateMutability": "view",
      "type": "function"
    },
    {
      "inputs": [
        {
          "internalType": "address",
          "name": "agent",
          "type": "address"
        }
      ],
      "name": "getMetadataUri",
      "outputs": [
        {
          "internalType": "string",
          "name": "",
          "type": "string"
        }
      ],
      "stateMutability": "view",
      "type": "function"
    },
    {
      "inputs": [
        {
          "internalType": "address",
          "name": "agent",
          "type": "address"
        }
      ],
      "name": "getReputation",
      "outputs": [
        {
          "internalType": "bool",
          "name": "verified",
          "type": "bool"
        },
        {
          "internalType": "uint256",
          "name": "avgRating",
          "type": "uint256"
        },
        {
          "internalType": "uint256",
          "name": "completedJobs",
          "type": "uint256"
        },
        {
          "internalType": "uint256",
          "name": "totalReviews",
          "type": "uint256"
        }
      ],
      "stateMutability": "view",
      "type": "function"
    },
    {
      "inputs": [
        {
          "internalType": "address",
          "name": "agent",
          "type": "address"
        }
      ],
      "name": "isRegistered",
      "outputs": [
        {
          "internalType": "bool",
          "name": "",
          "type": "bool"
        }
      ],
      "stateMutability": "view",
      "type": "function"
    },
    {
      "inputs": [
        {
          "internalType": "address",
          "name": "agent",
          "type": "address"
        }
      ],
      "name": "isVerified",
      "outputs": [
        {
          "internalType": "bool",
          "name": "",
          "type": "bool"
        }
      ],
      "stateMutability": "view",
      "type": "function"
    },
    {
      "inputs": [],
      "name": "owner",
      "outputs": [
        {
          "internalType": "address",
          "name": "",
          "type": "address"
        }
      ],
      "stateMutability": "view",
      "type": "function"
    },
    {
      "inputs": [
        {
          "internalType": "string",
          "name": "metadataUri",
          "type": "string"
        }
      ],
      "name": "registerAgent",
      "outputs": [],
      "stateMutability": "nonpayable",
      "type": "function"
    },
    {
      "inputs": [],
      "name": "renounceOwnership",
      "outputs": [],
      "stateMutability": "nonpayable",
      "type": "function"
    },
    {
      "inputs": [
        {
          "internalType": "address",
          "name": "updater",
          "type": "address"
        },
        {
          "internalType": "bool",
          "name": "authorized",
          "type": "bool"
        }
      ],
      "name": "setAuthorizedUpdater",
      "outputs": [],
      "stateMutability": "nonpayable",
      "type": "function"
    },
    {
      "inputs": [
        {
          "internalType": "address",
          "name": "newOwner",
          "type": "address"
        }
      ],
      "name": "transferOwnership",
      "outputs": [],
      "stateMutability": "nonpayable",
      "type": "function"
    },
    {
      "inputs": [
        {
          "internalType": "address",
          "name": "agent",
          "type": "address"
        }
      ],
      "name": "unverifyAgent",
      "outputs": [],
      "stateMutability": "nonpayable",
      "type": "function"
    },
    {
      "inputs": [
        {
          "internalType": "string",
          "name": "metadataUri",
          "type": "string"
        }
      ],
      "name": "updateMetadata",
      "outputs": [],
      "stateMutability": "nonpayable",
      "type": "function"
    },
    {
      "inputs": [
        {
          "internalType": "address",
          "name": "agent",
          "type": "address"
        },
        {
          "internalType": "uint256",
          "name": "rating",
          "type": "uint256"
        },
        {
          "internalType": "bool",
          "name": "jobCompleted",
          "type": "bool"
        }
      ],
      "name": "updateReputation",
      "outputs": [],
      "stateMutability": "nonpayable",
      "type": "function"
    },
    {
      "inputs": [
        {
          "internalType": "address",
          "name": "agent",
          "type": "address"
        }
      ],
      "name": "verifyAgent",
      "outputs": [],
      "stateMutability": "nonpayable",
      "type": "function"
    }
  ],
  "bytecode": "0x608060405234801561000f575f80fd5b50338061003557604051631e4fbdf760e01b81525f600482015260240160405180910390fd5b61003e81610044565b50610093565b5f80546001600160a01b038381166001600160a01b0319831681178455604051919092169283917f8be0079c531659141344cd1fd0a4f28419497f9722a3daafe3b4186f6b6457e09190a35050565b61105c806100a05f395ff3fe608060405234801561000f575f80fd5b50600436106100f0575f3560e01c8063918b5be111610093578063c3c5a54711610063578063c3c5a54714610232578063ec604e461461025f578063f2fde38b14610272578063fd66091e14610285575f80fd5b8063918b5be1146101ac57806399fc65d4146101bf5780639c89a0e2146101d2578063b9209e3314610207575f80fd5b8063715018a6116100ce578063715018a61461014557806382de78dd1461014d5780638da5cb5b146101605780638ff29cfe1461017a575f80fd5b80632d2a9585146100f457806330740952146101095780635f8ab9df1461011c575b5f80fd5b610107610102366004610ba6565b6102aa565b005b610107610117366004610c2d565b610446565b61012f61012a366004610c2d565b6104d3565b60405161013c9190610c90565b60405180910390f35b610107610580565b61010761015b366004610c2d565b610593565b5f546040516001600160a01b03909116815260200161013c565b61019c610188366004610c2d565b60026020525f908152604090205460ff1681565b604051901515815260200161013c565b6101076101ba366004610ba6565b61061a565b6101076101cd366004610cb1565b6106e2565b6101e56101e0366004610c2d565b610741565b604080519415158552602085019390935291830152606082015260800161013c565b61019c610215366004610c2d565b6001600160a01b03165f9081526001602052604090205460ff1690565b61019c610240366004610c2d565b6001600160a01b03165f90815260016020526040902060050154151590565b61010761026d366004610ce2565b610878565b610107610280366004610c2d565b610a2f565b610298610293366004610c2d565b610a6c565b60405161013c96959493929190610d1b565b335f90815260016020526040902060050154156103035760405162461bcd60e51b8152602060048201526012602482015271105b1c9958591e481c9959da5cdd195c995960721b60448201526064015b60405180910390fd5b806103445760405162461bcd60e51b815260206004820152601160248201527013595d1859185d18481c995c5d5a5c9959607a1b60448201526064016102fa565b6040518060c001604052805f1515815260200183838080601f0160208091040260200160405190810160405280939291908181526020018383808284375f9201829052509385525050506020808301829052604080840183905260608401839052426080909401939093523382526001808252929091208351815460ff19169015151781559083015190918201906103dc9082610df2565b506040828101516002830155606083015160038301556080830151600483015560a0909201516005909101555133907fda816ca2fc37b9eecec62ae8263008ec6be1afb38dc28bc9c7c51d7e348da9c29061043a9085908590610eb2565b60405180910390a25050565b61044e610b2b565b6001600160a01b0381165f908152600160205260409020600501546104855760405162461bcd60e51b81526004016102fa90610ee0565b6001600160a01b0381165f818152600160208190526040808320805460ff1916909217909155517fe7d6bf5d30c0487ac50ca3ea0eb7664b6068db8faa1b74ae85b1a02edab3b11c9190a250565b6001600160a01b0381165f908152600160208190526040909120018054606091906104fd90610d6e565b80601f016020809104026020016040519081016040528092919081815260200182805461052990610d6e565b80156105745780601f1061054b57610100808354040283529160200191610574565b820191905f5260205f20905b81548152906001019060200180831161055757829003601f168201915b50505050509050919050565b610588610b2b565b6105915f610b57565b565b61059b610b2b565b6001600160a01b0381165f908152600160205260409020600501546105d25760405162461bcd60e51b81526004016102fa90610ee0565b6001600160a01b0381165f81815260016020526040808220805460ff19169055517f0f6d01cf3407102df85d50e889f4b5cba13d8b9d4056cc214aaee74213b550f09190a250565b335f908152600160205260409020600501546106485760405162461bcd60e51b81526004016102fa90610ee0565b806106895760405162461bcd60e51b815260206004820152601160248201527013595d1859185d18481c995c5d5a5c9959607a1b60448201526064016102fa565b335f908152600160208190526040909120016106a6828483610f08565b50336001600160a01b03167f12a9d4aa9479d9e2272759e07df3e6c2a5811bacb916aa3f202028957f205bc1838360405161043a929190610eb2565b6106ea610b2b565b6001600160a01b0382165f81815260026020908152604091829020805460ff191685151590811790915591519182527f5c001b1d70af3e0a09eed53bc0588d57fec6d23196319ba29c6313eb3321273c910161043a565b6001600160a01b0381165f908152600160208181526040808420815160c08101909252805460ff16151582529283018054859485948594859490939184019161078990610d6e565b80601f01602080910402602001604051908101604052809291908181526020018280546107b590610d6e565b80156108005780601f106107d757610100808354040283529160200191610800565b820191905f5260205f20905b8154815290600101906020018083116107e357829003601f168201915b5050505050815260200160028201548152602001600382015481526020016004820154815260200160058201548152505090505f80826060015111610845575f610859565b816060015182608001516108599190610fd6565b8251604084015160609094015190999198509296509194509092505050565b5f546001600160a01b031633148061089e5750335f9081526002602052604090205460ff165b6108db5760405162461bcd60e51b815260206004820152600e60248201526d139bdd08185d5d1a1bdc9a5e995960921b60448201526064016102fa565b60328211156109225760405162461bcd60e51b81526020600482015260136024820152724d617820726174696e6720352e30202835302960681b60448201526064016102fa565b6001600160a01b0383165f908152600160205260409020600501546109595760405162461bcd60e51b81526004016102fa90610ee0565b6001600160a01b0383165f90815260016020526040812060030180549161097f83610ff5565b90915550506001600160a01b0383165f90815260016020526040812060040180548492906109ae90849061100d565b909155505080156109e5576001600160a01b0383165f9081526001602052604081206002018054916109df83610ff5565b91905055505b6040805183815282151560208201526001600160a01b038516917fdb3885afbba6debf9c1bda35746ffcd3e3c749b3742be7c9a0904981b5befb99910160405180910390a2505050565b610a37610b2b565b6001600160a01b038116610a6057604051631e4fbdf760e01b81525f60048201526024016102fa565b610a6981610b57565b50565b600160208190525f91825260409091208054918101805460ff90931692610a9290610d6e565b80601f0160208091040260200160405190810160405280929190818152602001828054610abe90610d6e565b8015610b095780601f10610ae057610100808354040283529160200191610b09565b820191905f5260205f20905b815481529060010190602001808311610aec57829003601f168201915b5050505050908060020154908060030154908060040154908060050154905086565b5f546001600160a01b031633146105915760405163118cdaa760e01b81523360048201526024016102fa565b5f80546001600160a01b038381166001600160a01b0319831681178455604051919092169283917f8be0079c531659141344cd1fd0a4f28419497f9722a3daafe3b4186f6b6457e09190a35050565b5f8060208385031215610bb7575f80fd5b823567ffffffffffffffff80821115610bce575f80fd5b818501915085601f830112610be1575f80fd5b813581811115610bef575f80fd5b866020828501011115610c00575f80fd5b60209290920196919550909350505050565b80356001600160a01b0381168114610c28575f80fd5b919050565b5f60208284031215610c3d575f80fd5b610c4682610c12565b9392505050565b5f81518084525f5b81811015610c7157602081850181015186830182015201610c55565b505f602082860101526020601f19601f83011685010191505092915050565b602081525f610c466020830184610c4d565b80358015158114610c28575f80fd5b5f8060408385031215610cc2575f80fd5b610ccb83610c12565b9150610cd960208401610ca2565b90509250929050565b5f805f60608486031215610cf4575f80fd5b610cfd84610c12565b925060208401359150610d1260408501610ca2565b90509250925092565b861515815260c060208201525f610d3560c0830188610c4d565b90508560408301528460608301528360808301528260a0830152979650505050505050565b634e487b7160e01b5f52604160045260245ffd5b600181811c90821680610d8257607f821691505b602082108103610da057634e487b7160e01b5f52602260045260245ffd5b50919050565b601f821115610ded57805f5260205f20601f840160051c81016020851015610dcb5750805b601f840160051c820191505b81811015610dea575f8155600101610dd7565b50505b505050565b815167ffffffffffffffff811115610e0c57610e0c610d5a565b610e2081610e1a8454610d6e565b84610da6565b602080601f831160018114610e53575f8415610e3c5750858301515b5f19600386901b1c1916600185901b178555610eaa565b5f85815260208120601f198616915b82811015610e8157888601518255948401946001909101908401610e62565b5085821015610e9e57878501515f19600388901b60f8161c191681555b505060018460011b0185555b505050505050565b60208152816020820152818360408301375f818301604090810191909152601f909201601f19160101919050565b6020808252600e908201526d139bdd081c9959da5cdd195c995960921b604082015260600190565b67ffffffffffffffff831115610f2057610f20610d5a565b610f3483610f2e8354610d6e565b83610da6565b5f601f841160018114610f65575f8515610f4e5750838201355b5f19600387901b1c1916600186901b178355610dea565b5f83815260208120601f198716915b82811015610f945786850135825560209485019460019092019101610f74565b5086821015610fb0575f1960f88860031b161c19848701351681555b505060018560011b0183555050505050565b634e487b7160e01b5f52601160045260245ffd5b5f82610ff057634e487b7160e01b5f52601260045260245ffd5b500490565b5f6001820161100657611006610fc2565b5060010190565b8082018082111561102057611020610fc2565b9291505056fea26469706673582212208dd211809e91f7e57ff19f0952ddf93f16261c79e29a01c4ab8e206d135ca57564736f6c63430008180033",
  "linkReferences": {},
  "deployedLinkReferences": {}
}