{
  "_format": "hh-sol-artifact-1",
  "contractName": "PromptHubMarketplace",
  "sourceName": "contracts/solidity/PromptHubMarketplace.sol",
  "abi": [
    {
      "inputs": [
        {
          "internalType": "address",
          "name": "_treasury",
          "type": "address"
        },
        {
          "internalType": "address",
          "name": "_agentRegistry",
          "type": "address"
        }
      ],
      "stateMutability": "nonpayable",
      "type": "constructor"
    },
    {
      "inputs": [
        {
          "internalType": "address",
          "name": "sender",
          "type": "address"
        },
        {
          "internalType": "uint256",
          "name": "tokenId",
          "type": "uint256"
        },
        {
          "internalType": "address",
          "name": "owner",
          "type": "address"
        }
      ],
      "name": "ERC721IncorrectOwner",
      "type": "error"
    },
    {
      "inputs": [
        {
          "internalType": "address",
          "name": "operator",
          "type": "address"
        },
        {
          "internalType": "uint256",
          "name": "tokenId",
          "type": "uint256"
        }
      ],
      "name": "ERC721InsufficientApproval",
      "type": "error"
    },
    {
      "inputs": [
        {
          "internalType": "address",
          "name": "approver",
          "type": "address"
        }
      ],
      "name": "ERC721InvalidApprover",
      "type": "error"
    },
    {
      "inputs": [
        {
          "internalType": "address",
          "name": "operator",
          "type": "address"
        }
      ],
      "name": "ERC721InvalidOperator",
      "type": "error"
    },
    {
      "inputs": [
        {
          "internalType": "address",
          "name": "owner",
          "type": "address"
        }
      ],
      "name": "ERC721InvalidOwner",
      "type": "error"
    },
    {
      "inputs": [
        {
          "internalType": "address",
          "name": "receiver",
          "type": "address"
        }
      ],
      "name": "ERC721InvalidReceiver",
      "type": "error"
    },
    {
      "inputs": [
        {
          "internalType": "address",
          "name": "sender",
          "type": "address"
        }
      ],
      "name": "ERC721InvalidSender",
      "type": "error"
    },
    {
      "inputs": [
        {
          "internalType": "uint256",
          "name": "tokenId",
          "type": "uint256"
        }
      ],
      "name": "ERC721NonexistentToken",
      "type": "error"
    },
    {
      "inputs": [
        {
          "internalType": "address",
          "name": "owner",
          "type": "address"
        }
      ],
      "name": "OwnableInvalidOwner",
      "type": "error"
    },
    {
      "inputs": [
        {
          "internalType": "address",
          "name": "account",
          "type": "address"
        }
      ],
      "name": "OwnableUnauthorizedAccount",
      "type": "error"
    },
    {
      "inputs": [],
      "name": "ReentrancyGuardReentrantCall",
      "type": "error"
    },
    {
      "anonymous": false,
      "inputs": [
        {
          "indexed": true,
          "internalType": "address",
          "name": "owner",
          "type": "address"
        },
        {
          "indexed": true,
          "internalType": "address",
          "name": "approved",
          "type": "address"
        },
        {
          "indexed": true,
          "internalType": "uint256",
          "name": "tokenId",
          "type": "uint256"
        }
      ],
      "name": "Approval",
      "type": "event"
    },
    {
      "anonymous": false,
      "inputs": [
        {
          "indexed": true,
          "internalType": "address",
          "name": "owner",
          "type": "address"
        },
        {
          "indexed": true,
          "internalType": "address",
          "name": "operator",
          "type": "address"
        },
        {
          "indexed": false,
          "internalType": "bool",
          "name": "approved",
          "type": "bool"
        }
      ],
      "name": "ApprovalForAll",
      "type": "event"
    },
    {
      "anonymous": false,
      "inputs": [
        {
          "indexed": false,
          "internalType": "uint256",
          "name": "_fromTokenId",
          "type": "uint256"
        },
        {
          "indexed": false,
          "internalType": "uint256",
          "name": "_toTokenId",
          "type": "uint256"
        }
      ],
      "name": "BatchMetadataUpdate",
      "type": "event"
    },
    {
      "anonymous": false,
      "inputs": [
        {
          "indexed": false,
          "internalType": "uint256",
          "name": "_tokenId",
          "type": "uint256"
        }
      ],
      "name": "MetadataUpdate",
      "type": "event"
    },
    {
      "anonymous": false,
      "inputs": [
        {
          "indexed": true,
          "internalType": "address",
          "name": "previousOwner",
          "type": "address"
        },
        {
          "indexed": true,
          "internalType": "address",
          "name": "newOwner",
          "type": "address"
        }
      ],
      "name": "OwnershipTransferred",
      "type": "event"
    },
    {
      "anonymous": false,
      "inputs": [
        {
          "indexed": true,
          "internalType": "uint256",
          "name": "tokenId",
          "type": "uint256"
        },
        {
          "indexed": false,
          "internalType": "uint256",
          "name": "oldPrice",
          "type": "uint256"
        },
        {
          "indexed": false,
          "internalType": "uint256",
          "name": "newPrice",
          "type": "uint256"
        }
      ],
      "name": "PriceUpdated",
      "type": "event"
    },
    {
      "anonymous": false,
      "inputs": [
        {
          "indexed": true,
          "internalType": "uint256",
          "name": "tokenId",
          "type": "uint256"
        }
      ],
      "name": "PromptDelisted",
      "type": "event"
    },
    {
      "anonymous": false,
      "inputs": [
        {
          "indexed": true,
          "internalType": "uint256",
          "name": "tokenId",
          "type": "uint256"
        },
        {
          "indexed": true,
          "internalType": "address",
          "name": "creator",
          "type": "address"
        },
        {
          "indexed": false,
          "internalType": "uint256",
          "name": "price",
          "type": "uint256"
        },
        {
          "indexed": false,
          "internalType": "string",
          "name": "storageHash",
          "type": "string"
        },
        {
          "indexed": false,
          "internalType": "string",
          "name": "metadataUri",
          "type": "string"
        }
      ],
      "name": "PromptListed",
      "type": "event"
    },
    {
      "anonymous": false,
      "inputs": [
        {
          "indexed": true,
          "internalType": "uint256",
          "name": "tokenId",
          "type": "uint256"
        },
        {
          "indexed": true,
          "internalType": "address",
          "name": "buyer",
          "type": "address"
        },
        {
          "indexed": true,
          "internalType": "address",
          "name": "seller",
          "type": "address"
        },
        {
          "indexed": false,
          "internalType": "uint256",
          "name": "price",
          "type": "uint256"
        }
      ],
      "name": "PromptPurchased",
      "type": "event"
    },
    {
      "anonymous": false,
      "inputs": [
        {
          "indexed": true,
          "internalType": "uint256",
          "name": "tokenId",
          "type": "uint256"
        },
        {
          "indexed": true,
          "internalType": "address",
          "name": "owner",
          "type": "address"
        },
        {
          "indexed": false,
          "internalType": "uint256",
          "name": "newPrice",
          "type": "uint256"
        }
      ],
      "name": "PromptRelisted",
      "type": "event"
    },
    {
      "anonymous": false,
      "inputs": [
        {
          "indexed": true,
          "internalType": "uint256",
          "name": "tokenId",
          "type": "uint256"
        },
        {
          "indexed": true,
          "internalType": "uint256",
          "name": "version",
          "type": "uint256"
        },
        {
          "indexed": false,
          "internalType": "string",
          "name": "storageHash",
          "type": "string"
        },
        {
          "indexed": false,
          "internalType": "string",
          "name": "metadataUri",
          "type": "string"
        },
        {
          "indexed": true,
          "internalType": "address",
          "name": "updater",
          "type": "address"
        }
      ],
      "name": "PromptVersioned",
      "type": "event"
    },
    {
      "anonymous": false,
      "inputs": [
        {
          "indexed": true,
          "internalType": "address",
          "name": "from",
          "type": "address"
        },
        {
          "indexed": true,
          "internalType": "address",
          "name": "to",
          "type": "address"
        },
        {
          "indexed": true,
          "internalType": "uint256",
          "name": "tokenId",
          "type": "uint256"
        }
      ],
      "name": "Transfer",
      "type": "event"
    },
    {
      "inputs": [],
      "name": "FEE_DENOMINATOR",
      "outputs": [
        {
          "internalType": "uint256",
          "name": "",
          "type": "uint256"
        }
      ],
      "stateMutability": "view",
      "type": "function"
    },
    {
      "inputs": [],
      "name": "PLATFORM_FEE_PER_MILLE",
      "outputs": [
        {
          "internalType": "uint256",
          "name": "",
          "type": "uint256"
        }
      ],
      "stateMutability": "view",
      "type": "function"
    },
    {
      "inputs": [],
      "name": "agentRegistry",
      "outputs": [
        {
          "internalType": "contract IAgentRegistry",
          "name": "",
          "type": "address"
        }
      ],
      "stateMutability": "view",
      "type": "function"
    },
    {
      "inputs": [
        {
          "internalType": "address",
          "name": "to",
          "type": "address"
        },
        {
          "internalType": "uint256",
          "name": "tokenId",
          "type": "uint256"
        }
      ],
      "name": "approve",
      "outputs": [],
      "stateMutability": "nonpayable",
      "type": "function"
    },
    {
      "inputs": [
        {
          "internalType": "address",
          "name": "owner",
          "type": "address"
        }
      ],
      "name": "balanceOf",
      "outputs": [
        {
          "internalType": "uint256",
          "name": "",
          "type": "uint256"
        }
      ],
      "stateMutability": "view",
      "type": "function"
    },
    {
      "inputs": [
        {
          "internalType": "uint256",
          "name": "tokenId",
          "type": "uint256"
        }
      ],
      "name": "buyPrompt",
      "outputs": [],
      "stateMutability": "payable",
      "type": "function"
    },
    {
      "inputs": [
        {
          "internalType": "uint256",
          "name": "tokenId",
          "type": "uint256"
        },
        {
          "internalType": "address",
          "name": "user",
          "type": "address"
        }
      ],
      "name": "canAccess",
      "outputs": [
        {
          "internalType": "bool",
          "name": "",
          "type": "bool"
        }
      ],
      "stateMutability": "view",
      "type": "function"
    },
    {
      "inputs": [
        {
          "internalType": "uint256",
          "name": "tokenId",
          "type": "uint256"
        },
        {
          "internalType": "string",
          "name": "newMetadataUri",
          "type": "string"
        },
        {
          "internalType": "string",
          "name": "newStorageHash",
          "type": "string"
        }
      ],
      "name": "createPromptVersion",
      "outputs": [],
      "stateMutability": "nonpayable",
      "type": "function"
    },
    {
      "inputs": [
        {
          "internalType": "uint256",
          "name": "tokenId",
          "type": "uint256"
        }
      ],
      "name": "delistPrompt",
      "outputs": [],
      "stateMutability": "nonpayable",
      "type": "function"
    },
    {
      "inputs": [
        {
          "internalType": "uint256",
          "name": "tokenId",
          "type": "uint256"
        }
      ],
      "name": "getApproved",
      "outputs": [
        {
          "internalType": "address",
          "name": "",
          "type": "address"
        }
      ],
      "stateMutability": "view",
      "type": "function"
    },
    {
      "inputs": [
        {
          "internalType": "uint256",
          "name": "tokenId",
          "type": "uint256"
        },
        {
          "internalType": "uint256",
          "name": "index",
          "type": "uint256"
        }
      ],
      "name": "getPromptVersion",
      "outputs": [
        {
          "components": [
            {
              "internalType": "string",
              "name": "storageHash",
              "type": "string"
            },
            {
              "internalType": "string",
              "name": "metadataUri",
              "type": "string"
            },
            {
              "internalType": "uint256",
              "name": "updatedAt",
              "type": "uint256"
            },
            {
              "internalType": "address",
              "name": "updater",
              "type": "address"
            }
          ],
          "internalType": "struct PromptHubMarketplace.PromptVersion",
          "name": "",
          "type": "tuple"
        }
      ],
      "stateMutability": "view",
      "type": "function"
    },
    {
      "inputs": [
        {
          "internalType": "uint256",
          "name": "tokenId",
          "type": "uint256"
        }
      ],
      "name": "getPromptVersionCount",
      "outputs": [
        {
          "internalType": "uint256",
          "name": "",
          "type": "uint256"
        }
      ],
      "stateMutability": "view",
      "type": "function"
    },
    {
      "inputs": [
        {
          "internalType": "uint256",
          "name": "tokenId",
          "type": "uint256"
        }
      ],
      "name": "getStorageHash",
      "outputs": [
        {
          "internalType": "string",
          "name": "",
          "type": "string"
        }
      ],
      "stateMutability": "view",
      "type": "function"
    },
    {
      "inputs": [
        {
          "internalType": "uint256",
          "name": "",
          "type": "uint256"
        },
        {
          "internalType": "address",
          "name": "",
          "type": "address"
        }
      ],
      "name": "hasPurchased",
      "outputs": [
        {
          "internalType": "bool",
          "name": "",
          "type": "bool"
        }
      ],
      "stateMutability": "view",
      "type": "function"
    },
    {
      "inputs": [
        {
          "internalType": "address",
          "name": "owner",
          "type": "address"
        },
        {
          "internalType": "address",
          "name": "operator",
          "type": "address"
        }
      ],
      "name": "isApprovedForAll",
      "outputs": [
        {
          "internalType": "bool",
          "name": "",
          "type": "bool"
        }
      ],
      "stateMutability": "view",
      "type": "function"
    },
    {
      "inputs": [
        {
          "internalType": "string",
          "name": "metadataUri",
          "type": "string"
        },
        {
          "internalType": "uint256",
          "name": "price",
          "type": "uint256"
        },
        {
          "internalType": "uint256",
          "name": "royaltyPerMille",
          "type": "uint256"
        },
        {
          "internalType": "string",
          "name": "storageHash",
          "type": "string"
        }
      ],
      "name": "listPrompt",
      "outputs": [
        {
          "internalType": "uint256",
          "name": "",
          "type": "uint256"
        }
      ],
      "stateMutability": "nonpayable",
      "type": "function"
    },
    {
      "inputs": [],
      "name": "name",
      "outputs": [
        {
          "internalType": "string",
          "name": "",
          "type": "string"
        }
      ],
      "stateMutability": "view",
      "type": "function"
    },
    {
      "inputs": [],
      "name": "owner",
      "outputs": [
        {
          "internalType": "address",
          "name": "",
          "type": "address"
        }
      ],
      "stateMutability": "view",
      "type": "function"
    },
    {
      "inputs": [
        {
          "internalType": "uint256",
          "name": "tokenId",
          "type": "uint256"
        }
      ],
      "name": "ownerOf",
      "outputs": [
        {
          "internalType": "address",
          "name": "",
          "type": "address"
        }
      ],
      "stateMutability": "view",
      "type": "function"
    },
    {
      "inputs": [
        {
          "internalType": "uint256",
          "name": "",
          "type": "uint256"
        }
      ],
      "name": "prompts",
      "outputs": [
        {
          "internalType": "address",
          "name": "creator",
          "type": "address"
        },
        {
          "internalType": "uint256",
          "name": "price",
          "type": "uint256"
        },
        {
          "internalType": "uint256",
          "name": "royaltyPerMille",
          "type": "uint256"
        },
        {
          "internalType": "bool",
          "name": "isActive",
          "type": "bool"
        },
        {
          "internalType": "string",
          "name": "storageHash",
          "type": "string"
        }
      ],
      "stateMutability": "view",
      "type": "function"
    },
    {
      "inputs": [
        {
          "internalType": "uint256",
          "name": "tokenId",
          "type": "uint256"
        },
        {
          "internalType": "uint256",
          "name": "rating",
          "type": "uint256"
        }
      ],
      "name": "rateCreator",
      "outputs": [],
      "stateMutability": "nonpayable",
      "type": "function"
    },
    {
      "inputs": [
        {
          "internalType": "uint256",
          "name": "tokenId",
          "type": "uint256"
        },
        {
          "internalType": "uint256",
          "name": "newPrice",
          "type": "uint256"
        }
      ],
      "name": "relistPrompt",
      "outputs": [],
      "stateMutability": "nonpayable",
      "type": "function"
    },
    {
      "inputs": [],
      "name": "renounceOwnership",
      "outputs": [],
      "stateMutability": "nonpayable",
      "type": "function"
    },
    {
      "inputs": [
        {
          "internalType": "address",
          "name": "from",
          "type": "address"
        },
        {
          "internalType": "address",
          "name": "to",
          "type": "address"
        },
        {
          "internalType": "uint256",
          "name": "tokenId",
          "type": "uint256"
        }
      ],
      "name": "safeTransferFrom",
      "outputs": [],
      "stateMutability": "nonpayable",
      "type": "function"
    },
    {
      "inputs": [
        {
          "internalType": "address",
          "name": "from",
          "type": "address"
        },
        {
          "internalType": "address",
          "name": "to",
          "type": "address"
        },
        {
          "internalType": "uint256",
          "name": "tokenId",
          "type": "uint256"
        },
        {
          "internalType": "bytes",
          "name": "data",
          "type": "bytes"
        }
      ],
      "name": "safeTransferFrom",
      "outputs": [],
      "stateMutability": "nonpayable",
      "type": "function"
    },
    {
      "inputs": [
        {
          "internalType": "address",
          "name": "operator",
          "type": "address"
        },
        {
          "internalType": "bool",
          "name": "approved",
          "type": "bool"
        }
      ],
      "name": "setApprovalForAll",
      "outputs": [],
      "stateMutability": "nonpayable",
      "type": "function"
    },
    {
      "inputs": [
        {
          "internalType": "address",
          "name": "_treasury",
          "type": "address"
        }
      ],
      "name": "setTreasury",
      "outputs": [],
      "stateMutability": "nonpayable",
      "type": "function"
    },
    {
      "inputs": [
        {
          "internalType": "bytes4",
          "name": "interfaceId",
          "type": "bytes4"
        }
      ],
      "name": "supportsInterface",
      "outputs": [
        {
          "internalType": "bool",
          "name": "",
          "type": "bool"
        }
      ],
      "stateMutability": "view",
      "type": "function"
    },
    {
      "inputs": [],
      "name": "symbol",
      "outputs": [
        {
          "internalType": "string",
          "name": "",
          "type": "string"
        }
      ],
      "stateMutability": "view",
      "type": "function"
    },
    {
      "inputs": [
        {
          "internalType": "uint256",
          "name": "tokenId",
          "type": "uint256"
        }
      ],
      "name": "tokenURI",
      "outputs": [
        {
          "internalType": "string",
          "name": "",
          "type": "string"
        }
      ],
      "stateMutability": "view",
      "type": "function"
    },
    {
      "inputs": [],
      "name": "totalPrompts",
      "outputs": [
        {
          "internalType": "uint256",
          "name": "",
          "type": "uint256"
        }
      ],
      "stateMutability": "view",
      "type": "function"
    },
    {
      "inputs": [
        {
          "internalType": "address",
          "name": "from",
          "type": "address"
        },
        {
          "internalType": "address",
          "name": "to",
          "type": "address"
        },
        {
          "internalType": "uint256",
          "name": "tokenId",
          "type": "uint256"
        }
      ],
      "name": "transferFrom",
      "outputs": [],
      "stateMutability": "nonpayable",
      "type": "function"
    },
    {
      "inputs": [
        {
          "internalType": "address",
          "name": "newOwner",
          "type": "address"
        }
      ],
      "name": "transferOwnership",
      "outputs": [],
      "stateMutability": "nonpayable",
      "type": "function"
    },
    {
      "inputs": [],
      "name": "treasury",
      "outputs": [
        {
          "internalType": "address",
          "name": "",
          "type": "address"
        }
      ],
      "stateMutability": "view",
      "type": "function"
    },
    {
      "inputs": [
        {
          "internalType": "uint256",
          "name": "tokenId",
          "type": "uint256"
        },
        {
          "internalType": "uint256",
          "name": "newPrice",
          "type": "uint256"
        }
      ],
      "name": "updatePrice",
      "outputs": [],
      "stateMutability": "nonpayable",
      "type": "function"
    }
  ],
  "bytecode": "0x608060405234801562000010575f80fd5b50604051620035ee380380620035ee833981016040819052620000339162000229565b3360405180604001604052806009815260200168283937b6b83a243ab160b91b8152506040518060400160405280600481526020016328242aa160e11b815250815f9081620000839190620002fd565b506001620000928282620002fd565b5050506001600160a01b038116620000c457604051631e4fbdf760e01b81525f60048201526024015b60405180910390fd5b620000cf81620001bc565b5060017f9b779b17422d0df92223018b32b4d1fa46e071723d6817e2486d003becc55f00556001600160a01b0382166200013f5760405162461bcd60e51b815260206004820152601060248201526f496e76616c696420747265617375727960801b6044820152606401620000bb565b6001600160a01b0381166200018a5760405162461bcd60e51b815260206004820152601060248201526f496e76616c696420726567697374727960801b6044820152606401620000bb565b600980546001600160a01b039384166001600160a01b031991821617909155600a8054929093169116179055620003c9565b600780546001600160a01b038381166001600160a01b0319831681179093556040519116919082907f8be0079c531659141344cd1fd0a4f28419497f9722a3daafe3b4186f6b6457e0905f90a35050565b80516001600160a01b038116811462000224575f80fd5b919050565b5f80604083850312156200023b575f80fd5b62000246836200020d565b915062000256602084016200020d565b90509250929050565b634e487b7160e01b5f52604160045260245ffd5b600181811c908216806200028857607f821691505b602082108103620002a757634e487b7160e01b5f52602260045260245ffd5b50919050565b601f821115620002f857805f5260205f20601f840160051c81016020851015620002d45750805b601f840160051c820191505b81811015620002f5575f8155600101620002e0565b50505b505050565b81516001600160401b038111156200031957620003196200025f565b62000331816200032a845462000273565b84620002ad565b602080601f83116001811462000367575f84156200034f5750858301515b5f19600386901b1c1916600185901b178555620003c1565b5f85815260208120601f198616915b82811015620003975788860151825594840194600190910190840162000376565b5085821015620003b557878501515f19600388901b60f8161c191681555b505060018460011b0185555b505050505050565b61321780620003d75f395ff3fe6080604052600436106101fc575f3560e01c80638da5cb5b11610113578063d5b2d1ed1161009d578063dc9da2f81161006d578063dc9da2f8146105ba578063e985e9c5146105f3578063f0f4426014610612578063f2fde38b14610631578063f424bc7f14610650575f80fd5b8063d5b2d1ed1461053c578063d73792a91461055b578063d7de43fd14610570578063dc88032e1461059b575f80fd5b8063aeaa0c82116100e3578063aeaa0c8214610490578063b88d4fde146104af578063c49096a8146104ce578063c87b56dd146104ed578063d4cf9af71461050c575f80fd5b80638da5cb5b1461042157806395d89b411461043e578063a22cb46514610452578063a8e5edd614610471575f80fd5b80633cc214141161019457806370a082311161016457806370a082311461039957806370c75692146103c6578063715018a6146103da5780638106da60146103ee57806382367b2d14610402575f80fd5b80633cc214141461031d57806342842e0e1461033c57806361d027b31461035b5780636352211e1461037a575f80fd5b80630d1cfcae116101cf5780630d1cfcae146102ad5780631e1a082c146102cc57806323b872dd146102df5780632e64eb25146102fe575f80fd5b806301ffc9a71461020057806306fdde0314610234578063081812fc14610255578063095ea7b31461028c575b5f80fd5b34801561020b575f80fd5b5061021f61021a366004612981565b61067c565b60405190151581526020015b60405180910390f35b34801561023f575f80fd5b506102486106a6565b60405161022b91906129e9565b348015610260575f80fd5b5061027461026f3660046129fb565b610735565b6040516001600160a01b03909116815260200161022b565b348015610297575f80fd5b506102ab6102a6366004612a2d565b61075c565b005b3480156102b8575f80fd5b50600a54610274906001600160a01b031681565b6102ab6102da3660046129fb565b61076b565b3480156102ea575f80fd5b506102ab6102f9366004612a55565b610c7d565b348015610309575f80fd5b506102ab610318366004612ad3565b610d06565b348015610328575f80fd5b506102486103373660046129fb565b610f9b565b348015610347575f80fd5b506102ab610356366004612a55565b611101565b348015610366575f80fd5b50600954610274906001600160a01b031681565b348015610385575f80fd5b506102746103943660046129fb565b611120565b3480156103a4575f80fd5b506103b86103b3366004612b47565b61112a565b60405190815260200161022b565b3480156103d1575f80fd5b506103b8601981565b3480156103e5575f80fd5b506102ab61116f565b3480156103f9575f80fd5b506008546103b8565b34801561040d575f80fd5b506102ab61041c366004612b60565b611182565b34801561042c575f80fd5b506007546001600160a01b0316610274565b348015610449575f80fd5b50610248611279565b34801561045d575f80fd5b506102ab61046c366004612b80565b611288565b34801561047c575f80fd5b506102ab61048b3660046129fb565b611293565b34801561049b575f80fd5b506102ab6104aa366004612b60565b611335565b3480156104ba575f80fd5b506102ab6104c9366004612bcd565b611581565b3480156104d9575f80fd5b506102ab6104e8366004612b60565b611599565b3480156104f8575f80fd5b506102486105073660046129fb565b6116c1565b348015610517575f80fd5b5061052b6105263660046129fb565b611742565b60405161022b959493929190612ca2565b348015610547575f80fd5b5061021f610556366004612ce1565b611806565b348015610566575f80fd5b506103b86103e881565b34801561057b575f80fd5b506103b861058a3660046129fb565b5f908152600c602052604090205490565b3480156105a6575f80fd5b506103b86105b5366004612d0b565b611872565b3480156105c5575f80fd5b5061021f6105d4366004612ce1565b600d60209081525f928352604080842090915290825290205460ff1681565b3480156105fe575f80fd5b5061021f61060d366004612d88565b611c7e565b34801561061d575f80fd5b506102ab61062c366004612b47565b611cab565b34801561063c575f80fd5b506102ab61064b366004612b47565b611d1e565b34801561065b575f80fd5b5061066f61066a366004612b60565b611d58565b60405161022b9190612db0565b5f6001600160e01b03198216632483248360e11b14806106a057506106a082611f58565b92915050565b60605f80546106b490612e14565b80601f01602080910402602001604051908101604052809291908181526020018280546106e090612e14565b801561072b5780601f106107025761010080835404028352916020019161072b565b820191905f5260205f20905b81548152906001019060200180831161070e57829003601f168201915b5050505050905090565b5f61073f82611fa7565b505f828152600460205260409020546001600160a01b03166106a0565b610767828233611fde565b5050565b610773611feb565b5f818152600b60205260409020600381015460ff166107ad5760405162461bcd60e51b81526004016107a490612e4c565b60405180910390fd5b5f6107b783611120565b90506001600160a01b03811633036108095760405162461bcd60e51b815260206004820152601560248201527410d85b9b9bdd08189d5e481bdddb881c1c9bdb5c1d605a1b60448201526064016107a4565b81600101543410156108545760405162461bcd60e51b8152602060048201526014602482015273125b9cdd59999a58da595b9d081c185e5b595b9d60621b60448201526064016107a4565b5f6103e8601984600101546108699190612e84565b6108739190612e9b565b83549091505f906001600160a01b0390811690841603610893575f6108b4565b6103e8846002015485600101546108aa9190612e84565b6108b49190612e9b565b90505f818386600101546108c89190612eba565b6108d29190612eba565b90508215610972576009546040515f916001600160a01b03169085908381818185875af1925050503d805f8114610924576040519150601f19603f3d011682016040523d82523d5f602084013e610929565b606091505b50509050806109705760405162461bcd60e51b8152602060048201526013602482015272119959481d1c985b9cd9995c8819985a5b1959606a1b60448201526064016107a4565b505b8115610a195784546040515f916001600160a01b03169084908381818185875af1925050503d805f81146109c1576040519150601f19603f3d011682016040523d82523d5f602084013e6109c6565b606091505b5050905080610a175760405162461bcd60e51b815260206004820152601760248201527f526f79616c7479207472616e73666572206661696c656400000000000000000060448201526064016107a4565b505b8015610ab9575f846001600160a01b0316826040515f6040518083038185875af1925050503d805f8114610a68576040519150601f19603f3d011682016040523d82523d5f602084013e610a6d565b606091505b5050905080610ab75760405162461bcd60e51b815260206004820152601660248201527514d95b1b195c881d1c985b9cd9995c8819985a5b195960521b60448201526064016107a4565b505b610ac4843388612019565b60038501805460ff199081169091555f878152600d6020908152604080832033845290915281208054909216600190811790925590860154610b069034612eba565b90508015610b95576040515f90339083908381818185875af1925050503d805f8114610b4d576040519150601f19603f3d011682016040523d82523d5f602084013e610b52565b606091505b5050905080610b935760405162461bcd60e51b815260206004820152600d60248201526c1499599d5b990819985a5b1959609a1b60448201526064016107a4565b505b846001600160a01b0316336001600160a01b0316887f0a266a787da51d05458e31e30f069b6df3c2db67ac445b7c781793fe6965ab568960010154604051610bdf91815260200190565b60405180910390a4600a548654604051637630272360e11b81526001600160a01b0391821660048201525f60248201526001604482015291169063ec604e46906064015f604051808303815f87803b158015610c39575f80fd5b505af1925050508015610c4a575060015b50505050505050610c7a60017f9b779b17422d0df92223018b32b4d1fa46e071723d6817e2486d003becc55f0055565b50565b6001600160a01b038216610ca657604051633250574960e11b81525f60048201526024016107a4565b5f610cb28383336120c6565b9050836001600160a01b0316816001600160a01b031614610d00576040516364283d7b60e01b81526001600160a01b03808616600483015260248201849052821660448201526064016107a4565b50505050565b5f858152600b60205260409020546001600160a01b03163314610d595760405162461bcd60e51b815260206004820152600b60248201526a2737ba1031b932b0ba37b960a91b60448201526064016107a4565b82610d9a5760405162461bcd60e51b815260206004820152601160248201527013595d1859185d18481c995c5d5a5c9959607a1b60448201526064016107a4565b80610ddf5760405162461bcd60e51b815260206004820152601560248201527414dd1bdc9859d9481a185cda081c995c5d5a5c9959605a1b60448201526064016107a4565b5f858152600b60205260409020600401610dfa828483612f11565b50610e3a8585858080601f0160208091040260200160405190810160405280939291908181526020018383808284375f920191909152506121b392505050565b600c5f8681526020019081526020015f20604051806080016040528084848080601f0160208091040260200160405190810160405280939291908181526020018383808284375f92019190915250505090825250604080516020601f8901819004810282018101909252878152918101919088908890819084018382808284375f92018290525093855250504260208085019190915233604090940193909352508354600181018555938152208151919260040201908190610efc9082612fcb565b5060208201516001820190610f119082612fcb565b506040828101516002830155606090920151600390910180546001600160a01b0319166001600160a01b039092169190911790555f868152600c60205281902054905133919087907f8380cf27146e822bc067e8226875fcf9737613f722a05fdfb1eb9ff18f40263690610f8c90879087908b908b906130af565b60405180910390a45050505050565b60605f610fa783612202565b90506001600160a01b038116610ff65760405162461bcd60e51b8152602060048201526014602482015273151bdad95b88191bd95cc81b9bdd08195e1a5cdd60621b60448201526064016107a4565b5f838152600d6020908152604080832033845290915290205460ff168061102557506001600160a01b03811633145b6110625760405162461bcd60e51b815260206004820152600e60248201526d139bdd08185d5d1a1bdc9a5e995960921b60448201526064016107a4565b5f838152600b60205260409020600401805461107d90612e14565b80601f01602080910402602001604051908101604052809291908181526020018280546110a990612e14565b80156110f45780601f106110cb576101008083540402835291602001916110f4565b820191905f5260205f20905b8154815290600101906020018083116110d757829003601f168201915b5050505050915050919050565b61111b83838360405180602001604052805f815250611581565b505050565b5f6106a082611fa7565b5f6001600160a01b038216611154576040516322718ad960e21b81525f60048201526024016107a4565b506001600160a01b03165f9081526003602052604090205490565b61117761221c565b6111805f612249565b565b3361118c83612202565b6001600160a01b0316146111b25760405162461bcd60e51b81526004016107a4906130d5565b5f828152600b602052604090206003015460ff166111e25760405162461bcd60e51b81526004016107a490612e4c565b5f81116112215760405162461bcd60e51b815260206004820152600d60248201526c496e76616c696420707269636560981b60448201526064016107a4565b5f828152600b602090815260409182902060010180549084905582518181529182018490529184917f15819dd2fd9f6418b142e798d08a18d0bf06ea368f4480b7b0d3f75bd966bc48910160405180910390a2505050565b6060600180546106b490612e14565b61076733838361229a565b3361129d82612202565b6001600160a01b0316146112c35760405162461bcd60e51b81526004016107a4906130d5565b5f818152600b602052604090206003015460ff166112f35760405162461bcd60e51b81526004016107a490612e4c565b5f818152600b6020526040808220600301805460ff191690555182917f0bddeda537dfb7b32166e27a0b53c9b1e035fa574beb377e3a3605a5c134c64791a250565b5f828152600d6020908152604080832033845290915290205460ff1661138d5760405162461bcd60e51b815260206004820152600d60248201526c139bdd081c1d5c98da185cd959609a1b60448201526064016107a4565b5f8111801561139d575060328111155b6113da5760405162461bcd60e51b815260206004820152600e60248201526d496e76616c696420726174696e6760901b60448201526064016107a4565b5f828152600b60209081526040808320815160a08101835281546001600160a01b03168152600182015493810193909352600281015491830191909152600381015460ff161515606083015260048101805460808401919061143b90612e14565b80601f016020809104026020016040519081016040528092919081815260200182805461146790612e14565b80156114b25780601f10611489576101008083540402835291602001916114b2565b820191905f5260205f20905b81548152906001019060200180831161149557829003601f168201915b5050505050815250509050336001600160a01b0316815f01516001600160a01b0316036115145760405162461bcd60e51b815260206004820152601060248201526f21b0b73737ba103930ba329039b2b63360811b60448201526064016107a4565b600a548151604051637630272360e11b81526001600160a01b039182166004820152602481018590525f604482015291169063ec604e46906064015f604051808303815f87803b158015611566575f80fd5b505af1158015611578573d5f803e3d5ffd5b50505050505050565b61158c848484610c7d565b610d003385858585612361565b336115a383612202565b6001600160a01b0316146115c95760405162461bcd60e51b81526004016107a4906130d5565b5f828152600b602052604090206003015460ff161561161b5760405162461bcd60e51b815260206004820152600e60248201526d416c72656164792061637469766560901b60448201526064016107a4565b5f811161165a5760405162461bcd60e51b815260206004820152600d60248201526c496e76616c696420707269636560981b60448201526064016107a4565b5f828152600b60205260409081902060018082018490556003909101805460ff1916909117905551339083907f5f06fb2e7d11b3bf83850a59ec5b2eb0514eedac76d4b72ffe8451aba2521311906116b59085815260200190565b60405180910390a35050565b60606116cc82611fa7565b505f6116e260408051602081019091525f815290565b90505f6116ee84612489565b905081515f036116ff579392505050565b8051156117315781816040516020016117199291906130f8565b60405160208183030381529060405292505050919050565b61173a84612528565b949350505050565b600b6020525f9081526040902080546001820154600283015460038401546004850180546001600160a01b03909516959394929360ff9092169261178590612e14565b80601f01602080910402602001604051908101604052809291908181526020018280546117b190612e14565b80156117fc5780601f106117d3576101008083540402835291602001916117fc565b820191905f5260205f20905b8154815290600101906020018083116117df57829003601f168201915b5050505050905085565b5f8061181184612202565b90506001600160a01b03811661182a575f9150506106a0565b5f848152600d602090815260408083206001600160a01b038716845290915290205460ff168061173a5750826001600160a01b0316816001600160a01b031614949350505050565b5f8085116118b65760405162461bcd60e51b815260206004820152601160248201527005072696365206d757374206265203e203607c1b60448201526064016107a4565b60c88411156118fa5760405162461bcd60e51b815260206004820152601060248201526f0a4def2c2d8e8f240e8dede40d0d2ced60831b60448201526064016107a4565b8561193f5760405162461bcd60e51b815260206004820152601560248201527413595d1859185d1848155492481c995c5d5a5c9959605a1b60448201526064016107a4565b816119845760405162461bcd60e51b815260206004820152601560248201527414dd1bdc9859d9481a185cda081c995c5d5a5c9959605a1b60448201526064016107a4565b5f60085f815461199390613126565b918290555090506119a43382612599565b6119e38189898080601f0160208091040260200160405190810160405280939291908181526020018383808284375f920191909152506121b392505050565b6040518060a00160405280336001600160a01b0316815260200187815260200186815260200160011515815260200185858080601f0160208091040260200160405190810160405280939291908181526020018383808284375f920182905250939094525050838152600b6020908152604091829020845181546001600160a01b0319166001600160a01b03909116178155908401516001820155908301516002820155606083015160038201805460ff191691151591909117905560808301519091506004820190611ab69082612fcb565b50905050600c5f8281526020019081526020015f20604051806080016040528086868080601f0160208091040260200160405190810160405280939291908181526020018383808284375f92019190915250505090825250604080516020601f8d018190048102820181019092528b815291810191908c908c90819084018382808284375f92018290525093855250504260208085019190915233604090940193909352508354600181018555938152208151919260040201908190611b7c9082612fcb565b5060208201516001820190611b919082612fcb565b506040828101516002830155606090920151600390910180546001600160a01b0319166001600160a01b039092169190911790555f828152600d602090815282822033808452915290829020805460ff19166001179055905182907fae66545bff9b9a0d4b9e897351d9a199d6df9d859e94b4dd1916ff6689d977f890611c21908a90899089908f908f9061313e565b60405180910390a3336001600160a01b03166001827f8380cf27146e822bc067e8226875fcf9737613f722a05fdfb1eb9ff18f40263687878d8d604051611c6b94939291906130af565b60405180910390a4979650505050505050565b6001600160a01b039182165f90815260056020908152604080832093909416825291909152205460ff1690565b611cb361221c565b6001600160a01b038116611cfc5760405162461bcd60e51b815260206004820152601060248201526f496e76616c696420747265617375727960801b60448201526064016107a4565b600980546001600160a01b0319166001600160a01b0392909216919091179055565b611d2661221c565b6001600160a01b038116611d4f57604051631e4fbdf760e01b81525f60048201526024016107a4565b610c7a81612249565b611d8a604051806080016040528060608152602001606081526020015f81526020015f6001600160a01b031681525090565b5f838152600c60205260409020548210611dde5760405162461bcd60e51b815260206004820152601560248201527456657273696f6e206f7574206f6620626f756e647360581b60448201526064016107a4565b5f838152600c60205260409020805483908110611dfd57611dfd613176565b905f5260205f2090600402016040518060800160405290815f82018054611e2390612e14565b80601f0160208091040260200160405190810160405280929190818152602001828054611e4f90612e14565b8015611e9a5780601f10611e7157610100808354040283529160200191611e9a565b820191905f5260205f20905b815481529060010190602001808311611e7d57829003601f168201915b50505050508152602001600182018054611eb390612e14565b80601f0160208091040260200160405190810160405280929190818152602001828054611edf90612e14565b8015611f2a5780601f10611f0157610100808354040283529160200191611f2a565b820191905f5260205f20905b815481529060010190602001808311611f0d57829003601f168201915b5050509183525050600282015460208201526003909101546001600160a01b03166040909101529392505050565b5f6001600160e01b031982166380ac58cd60e01b1480611f8857506001600160e01b03198216635b5e139f60e01b145b806106a057506301ffc9a760e01b6001600160e01b03198316146106a0565b5f80611fb283612202565b90506001600160a01b0381166106a057604051637e27328960e01b8152600481018490526024016107a4565b61111b83838360016125fa565b611ff36126fe565b60027f9b779b17422d0df92223018b32b4d1fa46e071723d6817e2486d003becc55f0055565b6001600160a01b03821661204257604051633250574960e11b81525f60048201526024016107a4565b5f61204e83835f6120c6565b90506001600160a01b03811661207a57604051637e27328960e01b8152600481018390526024016107a4565b836001600160a01b0316816001600160a01b031614610d00576040516364283d7b60e01b81526001600160a01b03808616600483015260248201849052821660448201526064016107a4565b5f806120d184612202565b90506001600160a01b038316156120ed576120ed818486612740565b6001600160a01b03811615612127576121085f855f806125fa565b6001600160a01b0381165f90815260036020526040902080545f190190555b6001600160a01b03851615612155576001600160a01b0385165f908152600360205260409020805460010190555b5f8481526002602052604080822080546001600160a01b0319166001600160a01b0389811691821790925591518793918516917fddf252ad1be2c89b69c2b068fc378daa952ba7f163c4a11628f55a4df523b3ef91a4949350505050565b5f8281526006602052604090206121ca8282612fcb565b506040518281527ff8e1a15aba9398e019f0b49df1a4fde98ee17ae345cb5f6b5e2c27f5033e8ce79060200160405180910390a15050565b5f908152600260205260409020546001600160a01b031690565b6007546001600160a01b031633146111805760405163118cdaa760e01b81523360048201526024016107a4565b600780546001600160a01b038381166001600160a01b0319831681179093556040519116919082907f8be0079c531659141344cd1fd0a4f28419497f9722a3daafe3b4186f6b6457e0905f90a35050565b6001600160a01b0383166122c35760405163a9fbf51f60e01b81525f60048201526024016107a4565b6001600160a01b0382166122f557604051630b61174360e31b81526001600160a01b03831660048201526024016107a4565b6001600160a01b038381165f81815260056020908152604080832094871680845294825291829020805460ff191686151590811790915591519182527f17307eab39ab6107e8899845ad3d59bd9653f200f220920489ca2b5937696c31910160405180910390a3505050565b6001600160a01b0383163b1561248257604051630a85bd0160e11b81526001600160a01b0384169063150b7a02906123a390889088908790879060040161318a565b6020604051808303815f875af19250505080156123dd575060408051601f3d908101601f191682019092526123da918101906131c6565b60015b612444573d80801561240a576040519150601f19603f3d011682016040523d82523d5f602084013e61240f565b606091505b5080515f0361243c57604051633250574960e11b81526001600160a01b03851660048201526024016107a4565b805160208201fd5b6001600160e01b03198116630a85bd0160e11b1461248057604051633250574960e11b81526001600160a01b03851660048201526024016107a4565b505b5050505050565b5f8181526006602052604090208054606091906124a590612e14565b80601f01602080910402602001604051908101604052809291908181526020018280546124d190612e14565b801561251c5780601f106124f35761010080835404028352916020019161251c565b820191905f5260205f20905b8154815290600101906020018083116124ff57829003601f168201915b50505050509050919050565b606061253382611fa7565b505f61254960408051602081019091525f815290565b90505f8151116125675760405180602001604052805f815250612592565b80612571846127a4565b6040516020016125829291906130f8565b6040516020818303038152906040525b9392505050565b6001600160a01b0382166125c257604051633250574960e11b81525f60048201526024016107a4565b5f6125ce83835f6120c6565b90506001600160a01b0381161561111b576040516339e3563760e11b81525f60048201526024016107a4565b808061260e57506001600160a01b03821615155b156126cf575f61261d84611fa7565b90506001600160a01b038316158015906126495750826001600160a01b0316816001600160a01b031614155b801561265c575061265a8184611c7e565b155b156126855760405163a9fbf51f60e01b81526001600160a01b03841660048201526024016107a4565b81156126cd5783856001600160a01b0316826001600160a01b03167f8c5be1e5ebec7d5bd14f71427d1e84f3dd0314c0f7b2291e5b200ac8c7c3b92560405160405180910390a45b505b50505f90815260046020526040902080546001600160a01b0319166001600160a01b0392909216919091179055565b7f9b779b17422d0df92223018b32b4d1fa46e071723d6817e2486d003becc55f005460020361118057604051633ee5aeb560e01b815260040160405180910390fd5b61274b838383612834565b61111b576001600160a01b03831661277957604051637e27328960e01b8152600481018290526024016107a4565b60405163177e802f60e01b81526001600160a01b0383166004820152602481018290526044016107a4565b60605f6127b083612895565b60010190505f8167ffffffffffffffff8111156127cf576127cf612bb9565b6040519080825280601f01601f1916602001820160405280156127f9576020820181803683370190505b5090508181016020015b5f19016f181899199a1a9b1b9c1cb0b131b232b360811b600a86061a8153600a850494508461280357509392505050565b5f6001600160a01b0383161580159061173a5750826001600160a01b0316846001600160a01b0316148061286d575061286d8484611c7e565b8061173a5750505f908152600460205260409020546001600160a01b03908116911614919050565b5f8072184f03e93ff9f4daa797ed6e38ed64bf6a1f0160401b83106128d35772184f03e93ff9f4daa797ed6e38ed64bf6a1f0160401b830492506040015b6d04ee2d6d415b85acef810000000083106128ff576d04ee2d6d415b85acef8100000000830492506020015b662386f26fc10000831061291d57662386f26fc10000830492506010015b6305f5e1008310612935576305f5e100830492506008015b612710831061294957612710830492506004015b6064831061295b576064830492506002015b600a83106106a05760010192915050565b6001600160e01b031981168114610c7a575f80fd5b5f60208284031215612991575f80fd5b81356125928161296c565b5f5b838110156129b657818101518382015260200161299e565b50505f910152565b5f81518084526129d581602086016020860161299c565b601f01601f19169290920160200192915050565b602081525f61259260208301846129be565b5f60208284031215612a0b575f80fd5b5035919050565b80356001600160a01b0381168114612a28575f80fd5b919050565b5f8060408385031215612a3e575f80fd5b612a4783612a12565b946020939093013593505050565b5f805f60608486031215612a67575f80fd5b612a7084612a12565b9250612a7e60208501612a12565b9150604084013590509250925092565b5f8083601f840112612a9e575f80fd5b50813567ffffffffffffffff811115612ab5575f80fd5b602083019150836020828501011115612acc575f80fd5b9250929050565b5f805f805f60608688031215612ae7575f80fd5b85359450602086013567ffffffffffffffff80821115612b05575f80fd5b612b1189838a01612a8e565b90965094506040880135915080821115612b29575f80fd5b50612b3688828901612a8e565b969995985093965092949392505050565b5f60208284031215612b57575f80fd5b61259282612a12565b5f8060408385031215612b71575f80fd5b50508035926020909101359150565b5f8060408385031215612b91575f80fd5b612b9a83612a12565b915060208301358015158114612bae575f80fd5b809150509250929050565b634e487b7160e01b5f52604160045260245ffd5b5f805f8060808587031215612be0575f80fd5b612be985612a12565b9350612bf760208601612a12565b925060408501359150606085013567ffffffffffffffff80821115612c1a575f80fd5b818701915087601f830112612c2d575f80fd5b813581811115612c3f57612c3f612bb9565b604051601f8201601f19908116603f01168101908382118183101715612c6757612c67612bb9565b816040528281528a6020848701011115612c7f575f80fd5b826020860160208301375f60208483010152809550505050505092959194509250565b60018060a01b0386168152846020820152836040820152821515606082015260a060808201525f612cd660a08301846129be565b979650505050505050565b5f8060408385031215612cf2575f80fd5b82359150612d0260208401612a12565b90509250929050565b5f805f805f8060808789031215612d20575f80fd5b863567ffffffffffffffff80821115612d37575f80fd5b612d438a838b01612a8e565b909850965060208901359550604089013594506060890135915080821115612d69575f80fd5b50612d7689828a01612a8e565b979a9699509497509295939492505050565b5f8060408385031215612d99575f80fd5b612da283612a12565b9150612d0260208401612a12565b602081525f825160806020840152612dcb60a08401826129be565b90506020840151601f19848303016040850152612de882826129be565b6040860151606086810191909152909501516001600160a01b0316608090940193909352509192915050565b600181811c90821680612e2857607f821691505b602082108103612e4657634e487b7160e01b5f52602260045260245ffd5b50919050565b6020808252600a90820152694e6f742061637469766560b01b604082015260600190565b634e487b7160e01b5f52601160045260245ffd5b80820281158282048414176106a0576106a0612e70565b5f82612eb557634e487b7160e01b5f52601260045260245ffd5b500490565b818103818111156106a0576106a0612e70565b601f82111561111b57805f5260205f20601f840160051c81016020851015612ef25750805b601f840160051c820191505b81811015612482575f8155600101612efe565b67ffffffffffffffff831115612f2957612f29612bb9565b612f3d83612f378354612e14565b83612ecd565b5f601f841160018114612f6e575f8515612f575750838201355b5f19600387901b1c1916600186901b178355612482565b5f83815260208120601f198716915b82811015612f9d5786850135825560209485019460019092019101612f7d565b5086821015612fb9575f1960f88860031b161c19848701351681555b505060018560011b0183555050505050565b815167ffffffffffffffff811115612fe557612fe5612bb9565b612ff981612ff38454612e14565b84612ecd565b602080601f83116001811461302c575f84156130155750858301515b5f19600386901b1c1916600185901b178555612480565b5f85815260208120601f198616915b8281101561305a5788860151825594840194600190910190840161303b565b508582101561307757878501515f19600388901b60f8161c191681555b5050505050600190811b01905550565b81835281816020850137505f828201602090810191909152601f909101601f19169091010190565b604081525f6130c2604083018688613087565b8281036020840152612cd6818587613087565b6020808252600990820152682737ba1037bbb732b960b91b604082015260600190565b5f835161310981846020880161299c565b83519083019061311d81836020880161299c565b01949350505050565b5f6001820161313757613137612e70565b5060010190565b858152606060208201525f613157606083018688613087565b828103604084015261316a818587613087565b98975050505050505050565b634e487b7160e01b5f52603260045260245ffd5b6001600160a01b03858116825284166020820152604081018390526080606082018190525f906131bc908301846129be565b9695505050505050565b5f602082840312156131d6575f80fd5b81516125928161296c56fea26469706673582212202242a33b5bf874134367398ac4f8d02bb9ccbad8ba25a930ff49e2aec1db223164736f6c63430008180033",
  "linkReferences": {},
  "deployedLinkReferences": {}
}