{
  "_format": "hh-sol-artifact-1",
  "contractName": "PromptHubMarketplace",
  "sourceName": "contracts/solidity/PromptHubMarketplace.sol",
  "abi": [
    {
      "inputs": [
        {
          "internalType": "address",
          "name": "_treasury",
          "type": "address"
        }
      ],
      "stateMutability": "nonpayable",
      "type": "constructor"
    },
    {
      "inputs": [
        {
          "internalType": "address",
          "name": "sender",
          "type": "address"
        },
        {
          "internalType": "uint256",
          "name": "tokenId",
          "type": "uint256"
        },
        {
          "internalType": "address",
          "name": "owner",
          "type": "address"
        }
      ],
      "name": "ERC721IncorrectOwner",
      "type": "error"
    },
    {
      "inputs": [
        {
          "internalType": "address",
          "name": "operator",
          "type": "address"
        },
        {
          "internalType": "uint256",
          "name": "tokenId",
          "type": "uint256"
        }
      ],
      "name": "ERC721InsufficientApproval",
      "type": "error"
    },
    {
      "inputs": [
        {
          "internalType": "address",
          "name": "approver",
          "type": "address"
        }
      ],
      "name": "ERC721InvalidApprover",
      "type": "error"
    },
    {
      "inputs": [
        {
          "internalType": "address",
          "name": "operator",
          "type": "address"
        }
      ],
      "name": "ERC721InvalidOperator",
      "type": "error"
    },
    {
      "inputs": [
        {
          "internalType": "address",
          "name": "owner",
          "type": "address"
        }
      ],
      "name": "ERC721InvalidOwner",
      "type": "error"
    },
    {
      "inputs": [
        {
          "internalType": "address",
          "name": "receiver",
          "type": "address"
        }
      ],
      "name": "ERC721InvalidReceiver",
      "type": "error"
    },
    {
      "inputs": [
        {
          "internalType": "address",
          "name": "sender",
          "type": "address"
        }
      ],
      "name": "ERC721InvalidSender",
      "type": "error"
    },
    {
      "inputs": [
        {
          "internalType": "uint256",
          "name": "tokenId",
          "type": "uint256"
        }
      ],
      "name": "ERC721NonexistentToken",
      "type": "error"
    },
    {
      "inputs": [
        {
          "internalType": "address",
          "name": "owner",
          "type": "address"
        }
      ],
      "name": "OwnableInvalidOwner",
      "type": "error"
    },
    {
      "inputs": [
        {
          "internalType": "address",
          "name": "account",
          "type": "address"
        }
      ],
      "name": "OwnableUnauthorizedAccount",
      "type": "error"
    },
    {
      "inputs": [],
      "name": "ReentrancyGuardReentrantCall",
      "type": "error"
    },
    {
      "anonymous": false,
      "inputs": [
        {
          "indexed": true,
          "internalType": "address",
          "name": "owner",
          "type": "address"
        },
        {
          "indexed": true,
          "internalType": "address",
          "name": "approved",
          "type": "address"
        },
        {
          "indexed": true,
          "internalType": "uint256",
          "name": "tokenId",
          "type": "uint256"
        }
      ],
      "name": "Approval",
      "type": "event"
    },
    {
      "anonymous": false,
      "inputs": [
        {
          "indexed": true,
          "internalType": "address",
          "name": "owner",
          "type": "address"
        },
        {
          "indexed": true,
          "internalType": "address",
          "name": "operator",
          "type": "address"
        },
        {
          "indexed": false,
          "internalType": "bool",
          "name": "approved",
          "type": "bool"
        }
      ],
      "name": "ApprovalForAll",
      "type": "event"
    },
    {
      "anonymous": false,
      "inputs": [
        {
          "indexed": false,
          "internalType": "uint256",
          "name": "_fromTokenId",
          "type": "uint256"
        },
        {
          "indexed": false,
          "internalType": "uint256",
          "name": "_toTokenId",
          "type": "uint256"
        }
      ],
      "name": "BatchMetadataUpdate",
      "type": "event"
    },
    {
      "anonymous": false,
      "inputs": [
        {
          "indexed": false,
          "internalType": "uint256",
          "name": "_tokenId",
          "type": "uint256"
        }
      ],
      "name": "MetadataUpdate",
      "type": "event"
    },
    {
      "anonymous": false,
      "inputs": [
        {
          "indexed": true,
          "internalType": "address",
          "name": "previousOwner",
          "type": "address"
        },
        {
          "indexed": true,
          "internalType": "address",
          "name": "newOwner",
          "type": "address"
        }
      ],
      "name": "OwnershipTransferred",
      "type": "event"
    },
    {
      "anonymous": false,
      "inputs": [
        {
          "indexed": true,
          "internalType": "uint256",
          "name": "tokenId",
          "type": "uint256"
        },
        {
          "indexed": false,
          "internalType": "uint256",
          "name": "oldPrice",
          "type": "uint256"
        },
        {
          "indexed": false,
          "internalType": "uint256",
          "name": "newPrice",
          "type": "uint256"
        }
      ],
      "name": "PriceUpdated",
      "type": "event"
    },
    {
      "anonymous": false,
      "inputs": [
        {
          "indexed": true,
          "internalType": "uint256",
          "name": "tokenId",
          "type": "uint256"
        }
      ],
      "name": "PromptDelisted",
      "type": "event"
    },
    {
      "anonymous": false,
      "inputs": [
        {
          "indexed": true,
          "internalType": "uint256",
          "name": "tokenId",
          "type": "uint256"
        },
        {
          "indexed": true,
          "internalType": "address",
          "name": "creator",
          "type": "address"
        },
        {
          "indexed": false,
          "internalType": "uint256",
          "name": "price",
          "type": "uint256"
        },
        {
          "indexed": false,
          "internalType": "string",
          "name": "storageHash",
          "type": "string"
        },
        {
          "indexed": false,
          "internalType": "string",
          "name": "metadataUri",
          "type": "string"
        }
      ],
      "name": "PromptListed",
      "type": "event"
    },
    {
      "anonymous": false,
      "inputs": [
        {
          "indexed": true,
          "internalType": "uint256",
          "name": "tokenId",
          "type": "uint256"
        },
        {
          "indexed": true,
          "internalType": "address",
          "name": "buyer",
          "type": "address"
        },
        {
          "indexed": true,
          "internalType": "address",
          "name": "seller",
          "type": "address"
        },
        {
          "indexed": false,
          "internalType": "uint256",
          "name": "price",
          "type": "uint256"
        }
      ],
      "name": "PromptPurchased",
      "type": "event"
    },
    {
      "anonymous": false,
      "inputs": [
        {
          "indexed": true,
          "internalType": "uint256",
          "name": "tokenId",
          "type": "uint256"
        },
        {
          "indexed": true,
          "internalType": "address",
          "name": "owner",
          "type": "address"
        },
        {
          "indexed": false,
          "internalType": "uint256",
          "name": "newPrice",
          "type": "uint256"
        }
      ],
      "name": "PromptRelisted",
      "type": "event"
    },
    {
      "anonymous": false,
      "inputs": [
        {
          "indexed": true,
          "internalType": "uint256",
          "name": "tokenId",
          "type": "uint256"
        },
        {
          "indexed": true,
          "internalType": "uint256",
          "name": "version",
          "type": "uint256"
        },
        {
          "indexed": false,
          "internalType": "string",
          "name": "storageHash",
          "type": "string"
        },
        {
          "indexed": false,
          "internalType": "string",
          "name": "metadataUri",
          "type": "string"
        },
        {
          "indexed": true,
          "internalType": "address",
          "name": "updater",
          "type": "address"
        }
      ],
      "name": "PromptVersioned",
      "type": "event"
    },
    {
      "anonymous": false,
      "inputs": [
        {
          "indexed": true,
          "internalType": "address",
          "name": "from",
          "type": "address"
        },
        {
          "indexed": true,
          "internalType": "address",
          "name": "to",
          "type": "address"
        },
        {
          "indexed": true,
          "internalType": "uint256",
          "name": "tokenId",
          "type": "uint256"
        }
      ],
      "name": "Transfer",
      "type": "event"
    },
    {
      "inputs": [],
      "name": "FEE_DENOMINATOR",
      "outputs": [
        {
          "internalType": "uint256",
          "name": "",
          "type": "uint256"
        }
      ],
      "stateMutability": "view",
      "type": "function"
    },
    {
      "inputs": [],
      "name": "PLATFORM_FEE_PER_MILLE",
      "outputs": [
        {
          "internalType": "uint256",
          "name": "",
          "type": "uint256"
        }
      ],
      "stateMutability": "view",
      "type": "function"
    },
    {
      "inputs": [
        {
          "internalType": "address",
          "name": "to",
          "type": "address"
        },
        {
          "internalType": "uint256",
          "name": "tokenId",
          "type": "uint256"
        }
      ],
      "name": "approve",
      "outputs": [],
      "stateMutability": "nonpayable",
      "type": "function"
    },
    {
      "inputs": [
        {
          "internalType": "address",
          "name": "owner",
          "type": "address"
        }
      ],
      "name": "balanceOf",
      "outputs": [
        {
          "internalType": "uint256",
          "name": "",
          "type": "uint256"
        }
      ],
      "stateMutability": "view",
      "type": "function"
    },
    {
      "inputs": [
        {
          "internalType": "uint256",
          "name": "tokenId",
          "type": "uint256"
        }
      ],
      "name": "buyPrompt",
      "outputs": [],
      "stateMutability": "payable",
      "type": "function"
    },
    {
      "inputs": [
        {
          "internalType": "uint256",
          "name": "tokenId",
          "type": "uint256"
        },
        {
          "internalType": "address",
          "name": "user",
          "type": "address"
        }
      ],
      "name": "canAccess",
      "outputs": [
        {
          "internalType": "bool",
          "name": "",
          "type": "bool"
        }
      ],
      "stateMutability": "view",
      "type": "function"
    },
    {
      "inputs": [
        {
          "internalType": "uint256",
          "name": "tokenId",
          "type": "uint256"
        },
        {
          "internalType": "string",
          "name": "newMetadataUri",
          "type": "string"
        },
        {
          "internalType": "string",
          "name": "newStorageHash",
          "type": "string"
        }
      ],
      "name": "createPromptVersion",
      "outputs": [],
      "stateMutability": "nonpayable",
      "type": "function"
    },
    {
      "inputs": [
        {
          "internalType": "uint256",
          "name": "tokenId",
          "type": "uint256"
        }
      ],
      "name": "delistPrompt",
      "outputs": [],
      "stateMutability": "nonpayable",
      "type": "function"
    },
    {
      "inputs": [
        {
          "internalType": "uint256",
          "name": "tokenId",
          "type": "uint256"
        }
      ],
      "name": "getApproved",
      "outputs": [
        {
          "internalType": "address",
          "name": "",
          "type": "address"
        }
      ],
      "stateMutability": "view",
      "type": "function"
    },
    {
      "inputs": [
        {
          "internalType": "uint256",
          "name": "tokenId",
          "type": "uint256"
        },
        {
          "internalType": "uint256",
          "name": "index",
          "type": "uint256"
        }
      ],
      "name": "getPromptVersion",
      "outputs": [
        {
          "components": [
            {
              "internalType": "string",
              "name": "storageHash",
              "type": "string"
            },
            {
              "internalType": "string",
              "name": "metadataUri",
              "type": "string"
            },
            {
              "internalType": "uint256",
              "name": "updatedAt",
              "type": "uint256"
            },
            {
              "internalType": "address",
              "name": "updater",
              "type": "address"
            }
          ],
          "internalType": "struct PromptHubMarketplace.PromptVersion",
          "name": "",
          "type": "tuple"
        }
      ],
      "stateMutability": "view",
      "type": "function"
    },
    {
      "inputs": [
        {
          "internalType": "uint256",
          "name": "tokenId",
          "type": "uint256"
        }
      ],
      "name": "getPromptVersionCount",
      "outputs": [
        {
          "internalType": "uint256",
          "name": "",
          "type": "uint256"
        }
      ],
      "stateMutability": "view",
      "type": "function"
    },
    {
      "inputs": [
        {
          "internalType": "uint256",
          "name": "tokenId",
          "type": "uint256"
        }
      ],
      "name": "getStorageHash",
      "outputs": [
        {
          "internalType": "string",
          "name": "",
          "type": "string"
        }
      ],
      "stateMutability": "view",
      "type": "function"
    },
    {
      "inputs": [
        {
          "internalType": "uint256",
          "name": "",
          "type": "uint256"
        },
        {
          "internalType": "address",
          "name": "",
          "type": "address"
        }
      ],
      "name": "hasPurchased",
      "outputs": [
        {
          "internalType": "bool",
          "name": "",
          "type": "bool"
        }
      ],
      "stateMutability": "view",
      "type": "function"
    },
    {
      "inputs": [
        {
          "internalType": "address",
          "name": "owner",
          "type": "address"
        },
        {
          "internalType": "address",
          "name": "operator",
          "type": "address"
        }
      ],
      "name": "isApprovedForAll",
      "outputs": [
        {
          "internalType": "bool",
          "name": "",
          "type": "bool"
        }
      ],
      "stateMutability": "view",
      "type": "function"
    },
    {
      "inputs": [
        {
          "internalType": "string",
          "name": "metadataUri",
          "type": "string"
        },
        {
          "internalType": "uint256",
          "name": "price",
          "type": "uint256"
        },
        {
          "internalType": "uint256",
          "name": "royaltyPerMille",
          "type": "uint256"
        },
        {
          "internalType": "string",
          "name": "storageHash",
          "type": "string"
        }
      ],
      "name": "listPrompt",
      "outputs": [
        {
          "internalType": "uint256",
          "name": "",
          "type": "uint256"
        }
      ],
      "stateMutability": "nonpayable",
      "type": "function"
    },
    {
      "inputs": [],
      "name": "name",
      "outputs": [
        {
          "internalType": "string",
          "name": "",
          "type": "string"
        }
      ],
      "stateMutability": "view",
      "type": "function"
    },
    {
      "inputs": [],
      "name": "owner",
      "outputs": [
        {
          "internalType": "address",
          "name": "",
          "type": "address"
        }
      ],
      "stateMutability": "view",
      "type": "function"
    },
    {
      "inputs": [
        {
          "internalType": "uint256",
          "name": "tokenId",
          "type": "uint256"
        }
      ],
      "name": "ownerOf",
      "outputs": [
        {
          "internalType": "address",
          "name": "",
          "type": "address"
        }
      ],
      "stateMutability": "view",
      "type": "function"
    },
    {
      "inputs": [
        {
          "internalType": "uint256",
          "name": "",
          "type": "uint256"
        }
      ],
      "name": "prompts",
      "outputs": [
        {
          "internalType": "address",
          "name": "creator",
          "type": "address"
        },
        {
          "internalType": "uint256",
          "name": "price",
          "type": "uint256"
        },
        {
          "internalType": "uint256",
          "name": "royaltyPerMille",
          "type": "uint256"
        },
        {
          "internalType": "bool",
          "name": "isActive",
          "type": "bool"
        },
        {
          "internalType": "string",
          "name": "storageHash",
          "type": "string"
        }
      ],
      "stateMutability": "view",
      "type": "function"
    },
    {
      "inputs": [
        {
          "internalType": "uint256",
          "name": "tokenId",
          "type": "uint256"
        },
        {
          "internalType": "uint256",
          "name": "newPrice",
          "type": "uint256"
        }
      ],
      "name": "relistPrompt",
      "outputs": [],
      "stateMutability": "nonpayable",
      "type": "function"
    },
    {
      "inputs": [],
      "name": "renounceOwnership",
      "outputs": [],
      "stateMutability": "nonpayable",
      "type": "function"
    },
    {
      "inputs": [
        {
          "internalType": "address",
          "name": "from",
          "type": "address"
        },
        {
          "internalType": "address",
          "name": "to",
          "type": "address"
        },
        {
          "internalType": "uint256",
          "name": "tokenId",
          "type": "uint256"
        }
      ],
      "name": "safeTransferFrom",
      "outputs": [],
      "stateMutability": "nonpayable",
      "type": "function"
    },
    {
      "inputs": [
        {
          "internalType": "address",
          "name": "from",
          "type": "address"
        },
        {
          "internalType": "address",
          "name": "to",
          "type": "address"
        },
        {
          "internalType": "uint256",
          "name": "tokenId",
          "type": "uint256"
        },
        {
          "internalType": "bytes",
          "name": "data",
          "type": "bytes"
        }
      ],
      "name": "safeTransferFrom",
      "outputs": [],
      "stateMutability": "nonpayable",
      "type": "function"
    },
    {
      "inputs": [
        {
          "internalType": "address",
          "name": "operator",
          "type": "address"
        },
        {
          "internalType": "bool",
          "name": "approved",
          "type": "bool"
        }
      ],
      "name": "setApprovalForAll",
      "outputs": [],
      "stateMutability": "nonpayable",
      "type": "function"
    },
    {
      "inputs": [
        {
          "internalType": "address",
          "name": "_treasury",
          "type": "address"
        }
      ],
      "name": "setTreasury",
      "outputs": [],
      "stateMutability": "nonpayable",
      "type": "function"
    },
    {
      "inputs": [
        {
          "internalType": "bytes4",
          "name": "interfaceId",
          "type": "bytes4"
        }
      ],
      "name": "supportsInterface",
      "outputs": [
        {
          "internalType": "bool",
          "name": "",
          "type": "bool"
        }
      ],
      "stateMutability": "view",
      "type": "function"
    },
    {
      "inputs": [],
      "name": "symbol",
      "outputs": [
        {
          "internalType": "string",
          "name": "",
          "type": "string"
        }
      ],
      "stateMutability": "view",
      "type": "function"
    },
    {
      "inputs": [
        {
          "internalType": "uint256",
          "name": "tokenId",
          "type": "uint256"
        }
      ],
      "name": "tokenURI",
      "outputs": [
        {
          "internalType": "string",
          "name": "",
          "type": "string"
        }
      ],
      "stateMutability": "view",
      "type": "function"
    },
    {
      "inputs": [],
      "name": "totalPrompts",
      "outputs": [
        {
          "internalType": "uint256",
          "name": "",
          "type": "uint256"
        }
      ],
      "stateMutability": "view",
      "type": "function"
    },
    {
      "inputs": [
        {
          "internalType": "address",
          "name": "from",
          "type": "address"
        },
        {
          "internalType": "address",
          "name": "to",
          "type": "address"
        },
        {
          "internalType": "uint256",
          "name": "tokenId",
          "type": "uint256"
        }
      ],
      "name": "transferFrom",
      "outputs": [],
      "stateMutability": "nonpayable",
      "type": "function"
    },
    {
      "inputs": [
        {
          "internalType": "address",
          "name": "newOwner",
          "type": "address"
        }
      ],
      "name": "transferOwnership",
      "outputs": [],
      "stateMutability": "nonpayable",
      "type": "function"
    },
    {
      "inputs": [],
      "name": "treasury",
      "outputs": [
        {
          "internalType": "address",
          "name": "",
          "type": "address"
        }
      ],
      "stateMutability": "view",
      "type": "function"
    },
    {
      "inputs": [
        {
          "internalType": "uint256",
          "name": "tokenId",
          "type": "uint256"
        },
        {
          "internalType": "uint256",
          "name": "newPrice",
          "type": "uint256"
        }
      ],
      "name": "updatePrice",
      "outputs": [],
      "stateMutability": "nonpayable",
      "type": "function"
    }
  ],
  "bytecode": "0x608060405234801562000010575f80fd5b5060405162003270380380620032708339810160408190526200003391620001b6565b3360405180604001604052806009815260200168283937b6b83a243ab160b91b8152506040518060400160405280600481526020016328242aa160e11b815250815f908162000083919062000283565b50600162000092828262000283565b5050506001600160a01b038116620000c457604051631e4fbdf760e01b81525f60048201526024015b60405180910390fd5b620000cf8162000165565b5060017f9b779b17422d0df92223018b32b4d1fa46e071723d6817e2486d003becc55f00556001600160a01b0381166200013f5760405162461bcd60e51b815260206004820152601060248201526f496e76616c696420747265617375727960801b6044820152606401620000bb565b600980546001600160a01b0319166001600160a01b03929092169190911790556200034f565b600780546001600160a01b038381166001600160a01b0319831681179093556040519116919082907f8be0079c531659141344cd1fd0a4f28419497f9722a3daafe3b4186f6b6457e0905f90a35050565b5f60208284031215620001c7575f80fd5b81516001600160a01b0381168114620001de575f80fd5b9392505050565b634e487b7160e01b5f52604160045260245ffd5b600181811c908216806200020e57607f821691505b6020821081036200022d57634e487b7160e01b5f52602260045260245ffd5b50919050565b601f8211156200027e57805f5260205f20601f840160051c810160208510156200025a5750805b601f840160051c820191505b818110156200027b575f815560010162000266565b50505b505050565b81516001600160401b038111156200029f576200029f620001e5565b620002b781620002b08454620001f9565b8462000233565b602080601f831160018114620002ed575f8415620002d55750858301515b5f19600386901b1c1916600185901b17855562000347565b5f85815260208120601f198616915b828110156200031d57888601518255948401946001909101908401620002fc565b50858210156200033b57878501515f19600388901b60f8161c191681555b505060018460011b0185555b505050505050565b612f13806200035d5f395ff3fe6080604052600436106101e6575f3560e01c80638da5cb5b11610108578063d5b2d1ed1161009d578063dc9da2f81161006d578063dc9da2f814610566578063e985e9c51461059f578063f0f44260146105be578063f2fde38b146105dd578063f424bc7f146105fc575f80fd5b8063d5b2d1ed146104e8578063d73792a914610507578063d7de43fd1461051c578063dc88032e14610547575f80fd5b8063b88d4fde116100d8578063b88d4fde1461045b578063c49096a81461047a578063c87b56dd14610499578063d4cf9af7146104b8575f80fd5b80638da5cb5b146103ec57806395d89b4114610409578063a22cb4651461041d578063a8e5edd61461043c575f80fd5b806342842e0e1161017e57806370c756921161014e57806370c7569214610391578063715018a6146103a55780638106da60146103b957806382367b2d146103cd575f80fd5b806342842e0e1461030757806361d027b3146103265780636352211e1461034557806370a0823114610364575f80fd5b80631e1a082c116101b95780631e1a082c1461029757806323b872dd146102aa5780632e64eb25146102c95780633cc21414146102e8575f80fd5b806301ffc9a7146101ea57806306fdde031461021e578063081812fc1461023f578063095ea7b314610276575b5f80fd5b3480156101f5575f80fd5b5061020961020436600461267d565b610628565b60405190151581526020015b60405180910390f35b348015610229575f80fd5b50610232610652565b60405161021591906126e5565b34801561024a575f80fd5b5061025e6102593660046126f7565b6106e1565b6040516001600160a01b039091168152602001610215565b348015610281575f80fd5b50610295610290366004612729565b610708565b005b6102956102a53660046126f7565b610717565b3480156102b5575f80fd5b506102956102c4366004612751565b610bc5565b3480156102d4575f80fd5b506102956102e33660046127cf565b610c4e565b3480156102f3575f80fd5b506102326103023660046126f7565b610ee3565b348015610312575f80fd5b50610295610321366004612751565b611049565b348015610331575f80fd5b5060095461025e906001600160a01b031681565b348015610350575f80fd5b5061025e61035f3660046126f7565b611068565b34801561036f575f80fd5b5061038361037e366004612843565b611072565b604051908152602001610215565b34801561039c575f80fd5b50610383601981565b3480156103b0575f80fd5b506102956110b7565b3480156103c4575f80fd5b50600854610383565b3480156103d8575f80fd5b506102956103e736600461285c565b6110ca565b3480156103f7575f80fd5b506007546001600160a01b031661025e565b348015610414575f80fd5b506102326111c1565b348015610428575f80fd5b5061029561043736600461287c565b6111d0565b348015610447575f80fd5b506102956104563660046126f7565b6111db565b348015610466575f80fd5b506102956104753660046128c9565b61127d565b348015610485575f80fd5b5061029561049436600461285c565b611295565b3480156104a4575f80fd5b506102326104b33660046126f7565b6113bd565b3480156104c3575f80fd5b506104d76104d23660046126f7565b61143e565b60405161021595949392919061299e565b3480156104f3575f80fd5b506102096105023660046129dd565b611502565b348015610512575f80fd5b506103836103e881565b348015610527575f80fd5b506103836105363660046126f7565b5f908152600b602052604090205490565b348015610552575f80fd5b50610383610561366004612a07565b61156e565b348015610571575f80fd5b506102096105803660046129dd565b600c60209081525f928352604080842090915290825290205460ff1681565b3480156105aa575f80fd5b506102096105b9366004612a84565b61197a565b3480156105c9575f80fd5b506102956105d8366004612843565b6119a7565b3480156105e8575f80fd5b506102956105f7366004612843565b611a1a565b348015610607575f80fd5b5061061b61061636600461285c565b611a54565b6040516102159190612aac565b5f6001600160e01b03198216632483248360e11b148061064c575061064c82611c54565b92915050565b60605f805461066090612b10565b80601f016020809104026020016040519081016040528092919081815260200182805461068c90612b10565b80156106d75780601f106106ae576101008083540402835291602001916106d7565b820191905f5260205f20905b8154815290600101906020018083116106ba57829003601f168201915b5050505050905090565b5f6106eb82611ca3565b505f828152600460205260409020546001600160a01b031661064c565b610713828233611cda565b5050565b61071f611ce7565b5f818152600a60205260409020600381015460ff166107595760405162461bcd60e51b815260040161075090612b48565b60405180910390fd5b5f61076383611068565b90506001600160a01b03811633036107b55760405162461bcd60e51b815260206004820152601560248201527410d85b9b9bdd08189d5e481bdddb881c1c9bdb5c1d605a1b6044820152606401610750565b81600101543410156108005760405162461bcd60e51b8152602060048201526014602482015273125b9cdd59999a58da595b9d081c185e5b595b9d60621b6044820152606401610750565b5f6103e8601984600101546108159190612b80565b61081f9190612b97565b83549091505f906001600160a01b039081169084160361083f575f610860565b6103e8846002015485600101546108569190612b80565b6108609190612b97565b90505f818386600101546108749190612bb6565b61087e9190612bb6565b9050821561091e576009546040515f916001600160a01b03169085908381818185875af1925050503d805f81146108d0576040519150601f19603f3d011682016040523d82523d5f602084013e6108d5565b606091505b505090508061091c5760405162461bcd60e51b8152602060048201526013602482015272119959481d1c985b9cd9995c8819985a5b1959606a1b6044820152606401610750565b505b81156109c55784546040515f916001600160a01b03169084908381818185875af1925050503d805f811461096d576040519150601f19603f3d011682016040523d82523d5f602084013e610972565b606091505b50509050806109c35760405162461bcd60e51b815260206004820152601760248201527f526f79616c7479207472616e73666572206661696c65640000000000000000006044820152606401610750565b505b8015610a65575f846001600160a01b0316826040515f6040518083038185875af1925050503d805f8114610a14576040519150601f19603f3d011682016040523d82523d5f602084013e610a19565b606091505b5050905080610a635760405162461bcd60e51b815260206004820152601660248201527514d95b1b195c881d1c985b9cd9995c8819985a5b195960521b6044820152606401610750565b505b610a70843388611d15565b60038501805460ff199081169091555f878152600c6020908152604080832033845290915281208054909216600190811790925590860154610ab29034612bb6565b90508015610b41576040515f90339083908381818185875af1925050503d805f8114610af9576040519150601f19603f3d011682016040523d82523d5f602084013e610afe565b606091505b5050905080610b3f5760405162461bcd60e51b815260206004820152600d60248201526c1499599d5b990819985a5b1959609a1b6044820152606401610750565b505b846001600160a01b0316336001600160a01b0316887f0a266a787da51d05458e31e30f069b6df3c2db67ac445b7c781793fe6965ab568960010154604051610b8b91815260200190565b60405180910390a4505050505050610bc260017f9b779b17422d0df92223018b32b4d1fa46e071723d6817e2486d003becc55f0055565b50565b6001600160a01b038216610bee57604051633250574960e11b81525f6004820152602401610750565b5f610bfa838333611dc2565b9050836001600160a01b0316816001600160a01b031614610c48576040516364283d7b60e01b81526001600160a01b0380861660048301526024820184905282166044820152606401610750565b50505050565b5f858152600a60205260409020546001600160a01b03163314610ca15760405162461bcd60e51b815260206004820152600b60248201526a2737ba1031b932b0ba37b960a91b6044820152606401610750565b82610ce25760405162461bcd60e51b815260206004820152601160248201527013595d1859185d18481c995c5d5a5c9959607a1b6044820152606401610750565b80610d275760405162461bcd60e51b815260206004820152601560248201527414dd1bdc9859d9481a185cda081c995c5d5a5c9959605a1b6044820152606401610750565b5f858152600a60205260409020600401610d42828483612c0d565b50610d828585858080601f0160208091040260200160405190810160405280939291908181526020018383808284375f92019190915250611eaf92505050565b600b5f8681526020019081526020015f20604051806080016040528084848080601f0160208091040260200160405190810160405280939291908181526020018383808284375f92019190915250505090825250604080516020601f8901819004810282018101909252878152918101919088908890819084018382808284375f92018290525093855250504260208085019190915233604090940193909352508354600181018555938152208151919260040201908190610e449082612cc7565b5060208201516001820190610e599082612cc7565b506040828101516002830155606090920151600390910180546001600160a01b0319166001600160a01b039092169190911790555f868152600b60205281902054905133919087907f8380cf27146e822bc067e8226875fcf9737613f722a05fdfb1eb9ff18f40263690610ed490879087908b908b90612dab565b60405180910390a45050505050565b60605f610eef83611efe565b90506001600160a01b038116610f3e5760405162461bcd60e51b8152602060048201526014602482015273151bdad95b88191bd95cc81b9bdd08195e1a5cdd60621b6044820152606401610750565b5f838152600c6020908152604080832033845290915290205460ff1680610f6d57506001600160a01b03811633145b610faa5760405162461bcd60e51b815260206004820152600e60248201526d139bdd08185d5d1a1bdc9a5e995960921b6044820152606401610750565b5f838152600a602052604090206004018054610fc590612b10565b80601f0160208091040260200160405190810160405280929190818152602001828054610ff190612b10565b801561103c5780601f106110135761010080835404028352916020019161103c565b820191905f5260205f20905b81548152906001019060200180831161101f57829003601f168201915b5050505050915050919050565b61106383838360405180602001604052805f81525061127d565b505050565b5f61064c82611ca3565b5f6001600160a01b03821661109c576040516322718ad960e21b81525f6004820152602401610750565b506001600160a01b03165f9081526003602052604090205490565b6110bf611f18565b6110c85f611f45565b565b336110d483611efe565b6001600160a01b0316146110fa5760405162461bcd60e51b815260040161075090612dd1565b5f828152600a602052604090206003015460ff1661112a5760405162461bcd60e51b815260040161075090612b48565b5f81116111695760405162461bcd60e51b815260206004820152600d60248201526c496e76616c696420707269636560981b6044820152606401610750565b5f828152600a602090815260409182902060010180549084905582518181529182018490529184917f15819dd2fd9f6418b142e798d08a18d0bf06ea368f4480b7b0d3f75bd966bc48910160405180910390a2505050565b60606001805461066090612b10565b610713338383611f96565b336111e582611efe565b6001600160a01b03161461120b5760405162461bcd60e51b815260040161075090612dd1565b5f818152600a602052604090206003015460ff1661123b5760405162461bcd60e51b815260040161075090612b48565b5f818152600a6020526040808220600301805460ff191690555182917f0bddeda537dfb7b32166e27a0b53c9b1e035fa574beb377e3a3605a5c134c64791a250565b611288848484610bc5565b610c48338585858561205d565b3361129f83611efe565b6001600160a01b0316146112c55760405162461bcd60e51b815260040161075090612dd1565b5f828152600a602052604090206003015460ff16156113175760405162461bcd60e51b815260206004820152600e60248201526d416c72656164792061637469766560901b6044820152606401610750565b5f81116113565760405162461bcd60e51b815260206004820152600d60248201526c496e76616c696420707269636560981b6044820152606401610750565b5f828152600a60205260409081902060018082018490556003909101805460ff1916909117905551339083907f5f06fb2e7d11b3bf83850a59ec5b2eb0514eedac76d4b72ffe8451aba2521311906113b19085815260200190565b60405180910390a35050565b60606113c882611ca3565b505f6113de60408051602081019091525f815290565b90505f6113ea84612185565b905081515f036113fb579392505050565b80511561142d578181604051602001611415929190612df4565b60405160208183030381529060405292505050919050565b61143684612224565b949350505050565b600a6020525f9081526040902080546001820154600283015460038401546004850180546001600160a01b03909516959394929360ff9092169261148190612b10565b80601f01602080910402602001604051908101604052809291908181526020018280546114ad90612b10565b80156114f85780601f106114cf576101008083540402835291602001916114f8565b820191905f5260205f20905b8154815290600101906020018083116114db57829003601f168201915b5050505050905085565b5f8061150d84611efe565b90506001600160a01b038116611526575f91505061064c565b5f848152600c602090815260408083206001600160a01b038716845290915290205460ff16806114365750826001600160a01b0316816001600160a01b031614949350505050565b5f8085116115b25760405162461bcd60e51b815260206004820152601160248201527005072696365206d757374206265203e203607c1b6044820152606401610750565b60c88411156115f65760405162461bcd60e51b815260206004820152601060248201526f0a4def2c2d8e8f240e8dede40d0d2ced60831b6044820152606401610750565b8561163b5760405162461bcd60e51b815260206004820152601560248201527413595d1859185d1848155492481c995c5d5a5c9959605a1b6044820152606401610750565b816116805760405162461bcd60e51b815260206004820152601560248201527414dd1bdc9859d9481a185cda081c995c5d5a5c9959605a1b6044820152606401610750565b5f60085f815461168f90612e22565b918290555090506116a03382612295565b6116df8189898080601f0160208091040260200160405190810160405280939291908181526020018383808284375f92019190915250611eaf92505050565b6040518060a00160405280336001600160a01b0316815260200187815260200186815260200160011515815260200185858080601f0160208091040260200160405190810160405280939291908181526020018383808284375f920182905250939094525050838152600a6020908152604091829020845181546001600160a01b0319166001600160a01b03909116178155908401516001820155908301516002820155606083015160038201805460ff1916911515919091179055608083015190915060048201906117b29082612cc7565b50905050600b5f8281526020019081526020015f20604051806080016040528086868080601f0160208091040260200160405190810160405280939291908181526020018383808284375f92019190915250505090825250604080516020601f8d018190048102820181019092528b815291810191908c908c90819084018382808284375f920182905250938552505042602080850191909152336040909401939093525083546001810185559381522081519192600402019081906118789082612cc7565b506020820151600182019061188d9082612cc7565b506040828101516002830155606090920151600390910180546001600160a01b0319166001600160a01b039092169190911790555f828152600c602090815282822033808452915290829020805460ff19166001179055905182907fae66545bff9b9a0d4b9e897351d9a199d6df9d859e94b4dd1916ff6689d977f89061191d908a90899089908f908f90612e3a565b60405180910390a3336001600160a01b03166001827f8380cf27146e822bc067e8226875fcf9737613f722a05fdfb1eb9ff18f40263687878d8d6040516119679493929190612dab565b60405180910390a4979650505050505050565b6001600160a01b039182165f90815260056020908152604080832093909416825291909152205460ff1690565b6119af611f18565b6001600160a01b0381166119f85760405162461bcd60e51b815260206004820152601060248201526f496e76616c696420747265617375727960801b6044820152606401610750565b600980546001600160a01b0319166001600160a01b0392909216919091179055565b611a22611f18565b6001600160a01b038116611a4b57604051631e4fbdf760e01b81525f6004820152602401610750565b610bc281611f45565b611a86604051806080016040528060608152602001606081526020015f81526020015f6001600160a01b031681525090565b5f838152600b60205260409020548210611ada5760405162461bcd60e51b815260206004820152601560248201527456657273696f6e206f7574206f6620626f756e647360581b6044820152606401610750565b5f838152600b60205260409020805483908110611af957611af9612e72565b905f5260205f2090600402016040518060800160405290815f82018054611b1f90612b10565b80601f0160208091040260200160405190810160405280929190818152602001828054611b4b90612b10565b8015611b965780601f10611b6d57610100808354040283529160200191611b96565b820191905f5260205f20905b815481529060010190602001808311611b7957829003601f168201915b50505050508152602001600182018054611baf90612b10565b80601f0160208091040260200160405190810160405280929190818152602001828054611bdb90612b10565b8015611c265780601f10611bfd57610100808354040283529160200191611c26565b820191905f5260205f20905b815481529060010190602001808311611c0957829003601f168201915b5050509183525050600282015460208201526003909101546001600160a01b03166040909101529392505050565b5f6001600160e01b031982166380ac58cd60e01b1480611c8457506001600160e01b03198216635b5e139f60e01b145b8061064c57506301ffc9a760e01b6001600160e01b031983161461064c565b5f80611cae83611efe565b90506001600160a01b03811661064c57604051637e27328960e01b815260048101849052602401610750565b61106383838360016122f6565b611cef6123fa565b60027f9b779b17422d0df92223018b32b4d1fa46e071723d6817e2486d003becc55f0055565b6001600160a01b038216611d3e57604051633250574960e11b81525f6004820152602401610750565b5f611d4a83835f611dc2565b90506001600160a01b038116611d7657604051637e27328960e01b815260048101839052602401610750565b836001600160a01b0316816001600160a01b031614610c48576040516364283d7b60e01b81526001600160a01b0380861660048301526024820184905282166044820152606401610750565b5f80611dcd84611efe565b90506001600160a01b03831615611de957611de981848661243c565b6001600160a01b03811615611e2357611e045f855f806122f6565b6001600160a01b0381165f90815260036020526040902080545f190190555b6001600160a01b03851615611e51576001600160a01b0385165f908152600360205260409020805460010190555b5f8481526002602052604080822080546001600160a01b0319166001600160a01b0389811691821790925591518793918516917fddf252ad1be2c89b69c2b068fc378daa952ba7f163c4a11628f55a4df523b3ef91a4949350505050565b5f828152600660205260409020611ec68282612cc7565b506040518281527ff8e1a15aba9398e019f0b49df1a4fde98ee17ae345cb5f6b5e2c27f5033e8ce79060200160405180910390a15050565b5f908152600260205260409020546001600160a01b031690565b6007546001600160a01b031633146110c85760405163118cdaa760e01b8152336004820152602401610750565b600780546001600160a01b038381166001600160a01b0319831681179093556040519116919082907f8be0079c531659141344cd1fd0a4f28419497f9722a3daafe3b4186f6b6457e0905f90a35050565b6001600160a01b038316611fbf5760405163a9fbf51f60e01b81525f6004820152602401610750565b6001600160a01b038216611ff157604051630b61174360e31b81526001600160a01b0383166004820152602401610750565b6001600160a01b038381165f81815260056020908152604080832094871680845294825291829020805460ff191686151590811790915591519182527f17307eab39ab6107e8899845ad3d59bd9653f200f220920489ca2b5937696c31910160405180910390a3505050565b6001600160a01b0383163b1561217e57604051630a85bd0160e11b81526001600160a01b0384169063150b7a029061209f908890889087908790600401612e86565b6020604051808303815f875af19250505080156120d9575060408051601f3d908101601f191682019092526120d691810190612ec2565b60015b612140573d808015612106576040519150601f19603f3d011682016040523d82523d5f602084013e61210b565b606091505b5080515f0361213857604051633250574960e11b81526001600160a01b0385166004820152602401610750565b805160208201fd5b6001600160e01b03198116630a85bd0160e11b1461217c57604051633250574960e11b81526001600160a01b0385166004820152602401610750565b505b5050505050565b5f8181526006602052604090208054606091906121a190612b10565b80601f01602080910402602001604051908101604052809291908181526020018280546121cd90612b10565b80156122185780601f106121ef57610100808354040283529160200191612218565b820191905f5260205f20905b8154815290600101906020018083116121fb57829003601f168201915b50505050509050919050565b606061222f82611ca3565b505f61224560408051602081019091525f815290565b90505f8151116122635760405180602001604052805f81525061228e565b8061226d846124a0565b60405160200161227e929190612df4565b6040516020818303038152906040525b9392505050565b6001600160a01b0382166122be57604051633250574960e11b81525f6004820152602401610750565b5f6122ca83835f611dc2565b90506001600160a01b03811615611063576040516339e3563760e11b81525f6004820152602401610750565b808061230a57506001600160a01b03821615155b156123cb575f61231984611ca3565b90506001600160a01b038316158015906123455750826001600160a01b0316816001600160a01b031614155b80156123585750612356818461197a565b155b156123815760405163a9fbf51f60e01b81526001600160a01b0384166004820152602401610750565b81156123c95783856001600160a01b0316826001600160a01b03167f8c5be1e5ebec7d5bd14f71427d1e84f3dd0314c0f7b2291e5b200ac8c7c3b92560405160405180910390a45b505b50505f90815260046020526040902080546001600160a01b0319166001600160a01b0392909216919091179055565b7f9b779b17422d0df92223018b32b4d1fa46e071723d6817e2486d003becc55f00546002036110c857604051633ee5aeb560e01b815260040160405180910390fd5b612447838383612530565b611063576001600160a01b03831661247557604051637e27328960e01b815260048101829052602401610750565b60405163177e802f60e01b81526001600160a01b038316600482015260248101829052604401610750565b60605f6124ac83612591565b60010190505f8167ffffffffffffffff8111156124cb576124cb6128b5565b6040519080825280601f01601f1916602001820160405280156124f5576020820181803683370190505b5090508181016020015b5f19016f181899199a1a9b1b9c1cb0b131b232b360811b600a86061a8153600a85049450846124ff57509392505050565b5f6001600160a01b038316158015906114365750826001600160a01b0316846001600160a01b031614806125695750612569848461197a565b806114365750505f908152600460205260409020546001600160a01b03908116911614919050565b5f8072184f03e93ff9f4daa797ed6e38ed64bf6a1f0160401b83106125cf5772184f03e93ff9f4daa797ed6e38ed64bf6a1f0160401b830492506040015b6d04ee2d6d415b85acef810000000083106125fb576d04ee2d6d415b85acef8100000000830492506020015b662386f26fc10000831061261957662386f26fc10000830492506010015b6305f5e1008310612631576305f5e100830492506008015b612710831061264557612710830492506004015b60648310612657576064830492506002015b600a831061064c5760010192915050565b6001600160e01b031981168114610bc2575f80fd5b5f6020828403121561268d575f80fd5b813561228e81612668565b5f5b838110156126b257818101518382015260200161269a565b50505f910152565b5f81518084526126d1816020860160208601612698565b601f01601f19169290920160200192915050565b602081525f61228e60208301846126ba565b5f60208284031215612707575f80fd5b5035919050565b80356001600160a01b0381168114612724575f80fd5b919050565b5f806040838503121561273a575f80fd5b6127438361270e565b946020939093013593505050565b5f805f60608486031215612763575f80fd5b61276c8461270e565b925061277a6020850161270e565b9150604084013590509250925092565b5f8083601f84011261279a575f80fd5b50813567ffffffffffffffff8111156127b1575f80fd5b6020830191508360208285010111156127c8575f80fd5b9250929050565b5f805f805f606086880312156127e3575f80fd5b85359450602086013567ffffffffffffffff80821115612801575f80fd5b61280d89838a0161278a565b90965094506040880135915080821115612825575f80fd5b506128328882890161278a565b969995985093965092949392505050565b5f60208284031215612853575f80fd5b61228e8261270e565b5f806040838503121561286d575f80fd5b50508035926020909101359150565b5f806040838503121561288d575f80fd5b6128968361270e565b9150602083013580151581146128aa575f80fd5b809150509250929050565b634e487b7160e01b5f52604160045260245ffd5b5f805f80608085870312156128dc575f80fd5b6128e58561270e565b93506128f36020860161270e565b925060408501359150606085013567ffffffffffffffff80821115612916575f80fd5b818701915087601f830112612929575f80fd5b81358181111561293b5761293b6128b5565b604051601f8201601f19908116603f01168101908382118183101715612963576129636128b5565b816040528281528a602084870101111561297b575f80fd5b826020860160208301375f60208483010152809550505050505092959194509250565b60018060a01b0386168152846020820152836040820152821515606082015260a060808201525f6129d260a08301846126ba565b979650505050505050565b5f80604083850312156129ee575f80fd5b823591506129fe6020840161270e565b90509250929050565b5f805f805f8060808789031215612a1c575f80fd5b863567ffffffffffffffff80821115612a33575f80fd5b612a3f8a838b0161278a565b909850965060208901359550604089013594506060890135915080821115612a65575f80fd5b50612a7289828a0161278a565b979a9699509497509295939492505050565b5f8060408385031215612a95575f80fd5b612a9e8361270e565b91506129fe6020840161270e565b602081525f825160806020840152612ac760a08401826126ba565b90506020840151601f19848303016040850152612ae482826126ba565b6040860151606086810191909152909501516001600160a01b0316608090940193909352509192915050565b600181811c90821680612b2457607f821691505b602082108103612b4257634e487b7160e01b5f52602260045260245ffd5b50919050565b6020808252600a90820152694e6f742061637469766560b01b604082015260600190565b634e487b7160e01b5f52601160045260245ffd5b808202811582820484141761064c5761064c612b6c565b5f82612bb157634e487b7160e01b5f52601260045260245ffd5b500490565b8181038181111561064c5761064c612b6c565b601f82111561106357805f5260205f20601f840160051c81016020851015612bee5750805b601f840160051c820191505b8181101561217e575f8155600101612bfa565b67ffffffffffffffff831115612c2557612c256128b5565b612c3983612c338354612b10565b83612bc9565b5f601f841160018114612c6a575f8515612c535750838201355b5f19600387901b1c1916600186901b17835561217e565b5f83815260208120601f198716915b82811015612c995786850135825560209485019460019092019101612c79565b5086821015612cb5575f1960f88860031b161c19848701351681555b505060018560011b0183555050505050565b815167ffffffffffffffff811115612ce157612ce16128b5565b612cf581612cef8454612b10565b84612bc9565b602080601f831160018114612d28575f8415612d115750858301515b5f19600386901b1c1916600185901b17855561217c565b5f85815260208120601f198616915b82811015612d5657888601518255948401946001909101908401612d37565b5085821015612d7357878501515f19600388901b60f8161c191681555b5050505050600190811b01905550565b81835281816020850137505f828201602090810191909152601f909101601f19169091010190565b604081525f612dbe604083018688612d83565b82810360208401526129d2818587612d83565b6020808252600990820152682737ba1037bbb732b960b91b604082015260600190565b5f8351612e05818460208801612698565b835190830190612e19818360208801612698565b01949350505050565b5f60018201612e3357612e33612b6c565b5060010190565b858152606060208201525f612e53606083018688612d83565b8281036040840152612e66818587612d83565b98975050505050505050565b634e487b7160e01b5f52603260045260245ffd5b6001600160a01b03858116825284166020820152604081018390526080606082018190525f90612eb8908301846126ba565b9695505050505050565b5f60208284031215612ed2575f80fd5b815161228e8161266856fea26469706673582212205a5f7c1a913302c3defd705960daad81590843cb935f086c915cc2e2a070bfdc64736f6c63430008180033",
  "linkReferences": {},
  "deployedLinkReferences": {}
}